:100000000C944E070C946B070C946B070C946B07C5
:100010000C946B070C946B070C946B070C946B0798
:100020000C946B070C946B070C94171F0C94A8236B
:100030000C94C92F0C946B070C946B070C946B07F2
:100040000C946B070C946B070C946B070C946B0768
:100050000C946B070C94F01F0C946B070C946B07BB
:100060000C946B070C946B070C946B070C946B0748
:100070000C946B070C946B070C946B070C946B0738
:100080000C946B070C946B070C946B070C946B0728
:100090000C946B070C946B070C946B070C946B0718
:1000A0000C946B070C946B070C946B07050109808B
:1000B000A101850319012AB700150126B700950192
:1000C00075108100C0050C0901A101850419012AE0
:1000D000A002150126A002950175108100C005013E
:1000E0000906A1018506050719E029E71500250184
:1000F0009508750181020507190029EF15002501F2
:1001000095F075018102050819012905950575010C
:100110009102950175039101C005010902A1010930
:1001200001A1000509190129081500250195087587
:100130000181020501093009311581257F9502757C
:1001400008810609381581257F9501750881060506
:100150000C0A38021581257F950175088106C0C0FB
:1001600005010906A101050719E029E71500250188
:10017000950875018102950175088101050719002F
:1001800029FF150026FF009506750881000508194E
:10019000012905950575019102950175039101C02D
:1001A00000000000000000000000000000000097B8
:1001B000CEFF97CEFF97CEFF97CEFF97CEFF97CE7D
:1001C000FF97CEFF97CEFF97CEFF97CEFF97CEFF3C
:1001D00097CEFF97CEFF97CEFF97CEFF97CEFF002B
:1001E000000000000000000000000000000000000F
:1001F0000000000000000097CEFF97CEFF97CEFFD3
:1002000097CEFF97CEFF97CEFF97CEFF97CEFF9763
:10021000CEFF97CEFF97CEFF97CEFF97CEFF97CE1C
:10022000FF97CEFF97CEFF00000000000000000007
:100230000000000000000000000000000000009727
:10024000CEFF97CEFF97CEFF97CEFF97CEFF97CEEC
:10025000FF97CEFF97CEFF97CEFF97CEFF0000000F
:1002600097CEFF97CEFF97CEFF97CEFF97CEFF009A
:10027000000000000000000000000000000000007E
:10028000000000000000000000000000000000006E
:1002900000000000000000000097CEFF97CEFF97FF
:1002A000CEFF97CEFF00000000000000000000001D
:1002B000000000000000000000000000000000003E
:1002C0000000000000000000000000000000009797
:1002D000CEFF97CEFF97CEFF97CEFF97CEFF0000C1
:1002E0000097CEFF97CEFF97CEFF97CEFF0000007E
:1002F00097CEFF97CEFF97CEFF97CEFF97CEFF000A
:1003000000000000000000000000000000000000ED
:1003100000000000000000000000000000000000DD
:1003200000000000000000000097CEFF97CEFF976E
:10033000CEFF97CEFF00000000000000000000008C
:1003400000000000000000000000000000000000AD
:100350000000000000000000000000000000009706
:10036000CEFF97CEFF97CEFF97CEFF97CEFF000030
:100370000097CEFF97CEFF97CEFF97CEFF000000ED
:1003800000000000000000000000000097CEFF0009
:10039000000000000000000000000000000000005D
:1003A000000000000000000000000000000000004D
:1003B00000000000000000000097CEFF97CEFF97DE
:1003C000CEFF97CEFF0000000000000000000000FC
:1003D0000000000097CEFF000000000000000000B9
:1003E000000000000000000000000000000000000D
:1003F00000000000000000000000000000000000FD
:100400000097CEFF97CEFF97CEFF97CEFF0000005C
:1004100000000000000000000000000000000000DC
:1004200000000000000000000000000000000000CC
:100430000000000000000097CEFF97CEFF97CEFF90
:1004400097CEFF97CEFF97CEFF97CEFF97CEFF9721
:10045000CEFF97CEFF97CEFF97CEFF97CEFF97CEDA
:10046000FF97CEFF97CEFF000000000000000000C5
:10047000000000000000000000000000000000007C
:10048000000000000000000000000000000000006C
:100490000097CEFF97CEFF97CEFF97CEFF000000CC
:1004A000000000000000000000000000000000004C
:1004B000000000000000000000000000000000003C
:1004C0000000000000000097CEFF97CEFF97CEFF00
:1004D00097CEFF97CEFF97CEFF97CEFF97CEFF9791
:1004E000CEFF97CEFF97CEFF97CEFF97CEFF97CE4A
:1004F000FF97CEFF97CEFF00000000000000000035
:1005000000000000000000000000000000000000EB
:1005100000000000000000000000000000000000DB
:100520000097CEFF97CEFF97CEFF97CEFF0000003B
:1005300000000000000000000000000097CEFF0057
:1005400000000000000000000000000000000000AB
:100550000000000000000097CEFF97CEFF97CEFF6F
:1005600097CEFF97CEFF97CEFF97CEFF97CEFF9700
:10057000CEFF97CEFF97CEFF97CEFF97CEFF97CEB9
:10058000FF97CEFF00000000000000000000000008
:10059000000000000000000000000000000000005B
:1005A000000000000000000000000000000000004B
:1005B000000000000000000000000000000000003B
:1005C000000000000000000000000000000000002B
:1005D000000000000000000000000097CEFF97CE52
:1005E000FF00000000000097CEFF000000000000A8
:1005F00097CEFF97CEFF97CEFF00000097CEFF97D4
:10060000CEFF97CEFF97CEFF00000000000097CEF0
:10061000FF00000097CEFF00000000000000000077
:100620000102E0610102E1650103E10103E0000173
:10063000014F010150000100010001000100010013
:1006400000000100140004681D00010007510100B2
:100650001A0016641B0001002B420100080007610C
:10066000060001002A410100150009621900294312
:100670000100010017000A00050000000100010050
:100680000100000001000000010001000100000065
:10069000010000002C0901001C000B0011000000EB
:1006A0000100010018000D6210004C46010001001D
:1006B0000C000E61360001002C44010012000F6492
:1006C0003774010028450100130034683800010028
:1006D000B55D010001000100010001000000010002
:1006E0000100010001000100000001000000E30022
:1006F00000000100010001000000E2000000010014
:10070000000001000000E000000001000100010005
:100710000000E100000000000100010000000000F6
:1007200000000000010001000100000001000000C5
:1007300001000100010000000100000001000100B3
:100740001D0A5000000000000100010019085100BE
:100750004A00010001000100060852004E0001009D
:100760002A0001001B084F004B0001002800010077
:100770001D08AD5D4D0001000100010001000100F8
:100780000100010000000100010001000100010062
:10079000000001000000E300000001000100010072
:1007A0000000E20000000100010001000000E00084
:1007B00000000100000001000000E1000000000056
:1007C0000100010000000000000000000100010025
:1007D0000100000001000000010001000100000014
:1007E00001000000010001001D0AEF0000000000F0
:1007F000010001001908EE00FB00F30001000100F8
:100800000608ED00FA000100F10001001B08F000ED
:10081000F9000100F20001001D080000FC000100C9
:1008200001000100010001000100010000000100C1
:100830000100010001000100000001000000E300D0
:1008400000000100010001000000E20000000100C2
:10085000000001000000E0000000010000000100B5
:100860000000E100000001000100010000000000A4
:100870000000000001000100010000000100000074
:100880000100010001000000010000000100010062
:10089000C35C00000000000001000100C45CAC006B
:1008A0000000A80001000100C65CAA0000000100D1
:1008B000AE000100C85CA90000000100AD0001000D
:1008C000CA5CAB0000000100010001000100010052
:1008D0000100010000000100010001000100010011
:1008E000000001002F00330035000100010001006D
:1008F000240021001E0001002D000100250022001F
:100900001F000100270001002600230020003700FF
:100910000100010030002E00310000000100010044
:1009200001000000010000000100010001000000C2
:1009300001000000010001000000000000000000B4
:10094000010001000000E1000000000001000100C2
:100950000000E00000000100010001000000E200D2
:1009600000000100000001000000E30000000100A1
:100970000100010001000100010001000000010070
:100980000100010001000100000001002F023302FC
:100990003502010001000100240221021E020100B3
:1009A0002D020100250222021F0201002702010080
:1009B00026022302200226020100010030022E023C
:1009C00031020000010001000100000001000000F0
:1009D0000100010001000000010000000100010011
:1009E0000000000000000000010001000000E10024
:1009F00000000000010001000000E0000000010014
:100A0000000001000000E200000001000100010000
:100A10000000E300000001000100010001000100EE
:100A200001000100000001000100010001000100BF
:100A300000000100450044004300010001000100E6
:100A400040003D003A0001002B00010041003E0043
:100A50003B0001002C00010042003F003C00000070
:100A600001000100460047004800000001000100AD
:100A70000100000001000000010001000100000071
:100A80000100000001000100000000000000000063
:100A9000010001000000E100000001000100010070
:100AA0000000E00000000100000001000000E20082
:100AB00000000100000001000000E3000000010050
:100AC000010001000100010001000100000001001F
:100AD0000100010001000100000001002C0550058B
:100AE0000000010001000100520528055105010028
:100AF0000000200A00004F05000001000000210A4C
:100B00000000000000000100010001002C042C087E
:100B1000190A0000010001000100000001000000AE
:100B200001000100010000000100000001000100BF
:100B300000000000000000000100010000000000B3
:100B400000000000010001000000000000000100A2
:100B50000000010000000000000001000000010092
:100B60000000000000000100010001000100010080
:100B7000010001000000000101010101010101016A
:100B8000020202020202020202030303030303033E
:100B9000030404040404040405050505050606060B
:100BA0000606070707070708080808090909090AC8
:100BB0000A0A0B0B0B0C0C0C0D0D0D0E0E0E0F0F6D
:100BC0000F101011111112121313141415151616FB
:100BD0001717181819191A1A1B1B1C1D1D1E1E1F6A
:100BE0002020212222232424252626272829292AB9
:100BF0002B2C2D2D2E2F30313232333435363738E1
:100C0000393A3B3C3D3E3F404142434445464748DC
:100C1000494A4C4D4E4F50515354555658595A5BB2
:100C20005D5E5F616264656668696B6C6D6F707252
:100C3000737577787A7B7D7E8082838587888A8CBE
:100C40008E8F91939596989A9C9EA0A2A3A5A7A9F2
:100C5000ABADAFB1B3B5B7BABCBEC0C2C4C6C9CBE9
:100C6000CDCFD1D4D6D8DBDDDFE2E4E7E9EBEEF09F
:100C7000F3F5F8FAFDFF0044345400746484005521
:100C800045650085759500362646006656760096C1
:100C900086A60037274700776787003828480088EE
:100CA00078980039294900695979009989A9003A49
:100CB0002A4A006A5A7A003B2B4B006B5B7B004C44
:100CC0003C5C007C6C8C005D4D6D008D7D9D003E1C
:100CD0002E4E006E5E7E01443454017464840155CE
:100CE000456501857595013626460166567601965D
:100CF00086A601372747017767870138284801888A
:100D000078980139294901695979019989A9013AE4
:100D10002A4A016A5A7A013B2B4B016B5B7B014CDF
:100D20003C5C017C6C8C015D4D6D018D7D9D013EB7
:100D30002E4E016E5E7E09025400030100A0FA09E6
:100D400004000001030101000921110100012240FA
:100D500000070581030800010904010001030102E5
:100D60000009211101000122470007058203080044
:100D70000109040200010300000009211101000122
:100D8000226D00070583032000011201000200000C
:100D90000008973276490100010200012003450056
:100DA000720067006F0044006F007800200045006B
:100DB0005A00200047006C006F00770000002803F5
:100DC0005A00530041002000540065006300680091
:100DD0006E006F006C006F006700790020004C000F
:100DE00061006200730000000403090400000000B9
:100DF00000000000000000000000000000000000F3
:100E000000000000000000000000000000000000E2
:100E10007E0F00D4FFFFFFC7000000780000000035
:100E2000000000002A2B2800000000000000000045
:100E30000000000000000029000000002C1E3420EB
:100E4000212224342627252E362D3738271E1F2011
:100E50002122232425263333362E37381F04050656
:100E60000708090A0B0C0D0E0F101112131415169A
:100E70001718191A1B1C1D2F3130232D3504050698
:100E80000708090A0B0C0D0E0F101112131415167A
:100E90001718191A1B1C1D2F3130354C11241FBE79
:100EA000CFEFDAE0DEBFCDBF25E0A0E5B2E001C0C4
:100EB0001D92AF3BB207E1F712E0A0E0B1E0ECEF2A
:100EC000F0E702C005900D92A035B107D9F70E9456
:100ED000F02F0C9438380C9400009091B505937065
:100EE00061F081110BC094609093B50510922001C0
:100EF0008091B40581608093B40508958F3110F01E
:100F00009867F2CF880F880F982BEECF9091B50598
:100F1000937059F08093B6056093B7054093B80578
:100F20008091B40581608093B4050895E8EDF0E008
:100F300080818E7F80831092E2001092DA001092FE
:100F4000E100A0EEB0E08C9181608C9380818F777E
:100F5000808319BCA7EDB0E08C918E7F8C9380814B
:100F60008F7E80831092810508952091E400309156
:100F7000E50095E6A9012091EC00822F817020FF09
:100F800006C08091E80080FF06C080E008952091AF
:100F9000E80022FD1AC08091A605882389F08530DB
:100FA00089F08091EB0085FD0FC02091E400309125
:100FB000E50042175307F9F29150E1F684E00895F5
:100FC00082E0089583E0089581E00895EF92FF9212
:100FD0000F931F93CF937C018B010E94B507C82FFD
:100FE000811117C08091E80085FD0BC08091E80059
:100FF0008E778093E8000E94B507882399F3C82F65
:1010000008C0F70181917F018093F100015011091F
:1010100049F78C2FCF911F910F91FF90EF9008957A
:101020008091A80587FF13C08091E80082FF06C069
:101030008091E8008B778093E80004C08091A6053A
:101040008111F2CF08958091A6058823D9F380916C
:10105000E80080FFF8CF8091E8008E77ECCF982FE2
:101060009093E900242F762F50E0891731F070918A
:10107000EC002091ED005091F00021FD07C09F5F32
:10108000973071F78093E90081E008953091EB008B
:101090003E7F3093EB003091ED003D7F3093ED00CB
:1010A0003091EB0031603093EB007093EC002093B3
:1010B000ED005093F0002091EE0027FDE0CF80E09E
:1010C0000895B0E0A0E0E7E6F8E00C94F133C8ED55
:1010D000D0E088818F7E8883E7EDF0E080818160B9
:1010E000808384E082BF81E08093810588818E7F48
:1010F000888302EE10E0F80110821092DA0081EE8F
:10110000C82ED12CF601108288818F778883888140
:101110008068888388818F7D888319BC1092A6059A
:101120001092A7051092A5051092A40590EEE92E45
:10113000F12CF70180818B7F808388818160888397
:1011400042E060E080E00E942F08F60180818E7FFF
:101150008083F801808181608083808188608083C2
:10116000F70180818E7F8083888180618883CDB7FD
:10117000DEB7E8E00C940D34FC018091AE0590914F
:10118000AF0586179707A0F06115710529F49091B6
:10119000E8009E779093E80090E06115710551F4A6
:1011A000911108C08091E80082FF34C080E008956A
:1011B000BC01F2CF8091A6058823C1F18530C1F131
:1011C0008091E80083FD30C08091E80082FDEACF85
:1011D0008091E80080FFE1CF8091F3002091F20040
:1011E000382F6115710519F02830310558F091E05C
:1011F0002830310509F090E02091E8002E77209307
:10120000E800CBCF81918093F100615071092F5F8D
:101210003F4FE7CF8091A605882341F0853041F00C
:101220008091E80083FFBECF81E0089582E00895B9
:1012300083E00895089580918305089520917505B0
:10124000309176052817390771F0909376058093D1
:101250007505E0917305F0917405309721F00084D5
:10126000F185E02D09950895209171053091720561
:101270002817390771F09093720580937105E091FA
:101280007305F0917405309721F00680F781E02D09
:1012900009950895E0917305F0917405309729F050
:1012A0000190F081E02D0995089580E00895FA01FC
:1012B000811101C0FB01099508958093BA058091C1
:1012C000B40581608093B4050895E5EBF5E02481D1
:1012D00030E1231B08F420E024838091B405816071
:1012E0008093B4050895E5EBF5E0248130E1230F08
:1012F00008F42FEF24838091B40581608093B405B6
:101300000895E5EBF5E0438120E1421B08F440E05D
:101310008181628190E00E9486070895E5EBF5E007
:10132000438120E1420F08F44FEF8181628190E018
:101330000E9486070895E5EBF5E0628120E1621BDB
:1013400008F460E08181438190E00E94860708955F
:10135000E5EBF5E0628120E1620F08F46FEF818137
:10136000438190E00E9486070895E5EBF5E08181D6
:10137000438162818850990B0E9486070895E5EBAE
:10138000F5E0818190E04381628108960E948607A2
:1013900008958091B50586958695815009F48EE172
:1013A0000E946D0708958091B505869586958F5F9B
:1013B0008F3108F081E00E946D0708958091B50596
:1013C000837011F4109220018091B5058C7F8160AB
:1013D0008093B5050895E42FF0E0EE0FFF1FE05471
:1013E000FE4F9081921B97FD9195292F38E1239F05
:1013F000212D1124620F08950F931F9310E0F8011F
:10140000EE0FFF1FE054FE4F9081905797FD91958E
:10141000000F111FF801EF53FE4F00810052110B16
:101420002003F001219FF00D112408E310E0091BB7
:10143000110997FD139540039001419F300D112430
:10144000E20FF31F9F01220F331F2E0F3F1F37FFA5
:1014500002C021583F4F220F232F221F330B620F50
:101460001F910F9108950F931F93522F10E0F801D1
:10147000EE0FFF1FEF53FE4FA081A052BB0B9D014B
:101480005203F001539FF00D1124000F111FD801DA
:10149000A054BE4F0C910057110B40039001419F87
:1014A000300D11242E0F3F1F37FF02C0215C3F4F2C
:1014B00096E0359527959A95E1F7620F1F910F9168
:1014C00008950F931F93522F10E0F801EE0FFF1FA6
:1014D000EF53FE4FA081A052BB0B9D015203F001C0
:1014E000539FF00D1124000F111FD801A054BE4FBF
:1014F0000C910057110B40039001419F300D1124B6
:101500002E0F3F1F37FF02C021583F4F220F232FBE
:10151000221F330B620F1F910F910895EF920F93CB
:10152000972F23E0029FB0011124759567956E0DEA
:10153000792F0F91EF900895322F50E0FA01EE0FBE
:10154000FF1FEF53FE4F9081905297FD9195440FEE
:10155000551FFA01E054FE4F2081231B330B290F46
:10156000311D97FD3A95620F0895E42FF0E0EE0FDC
:10157000FF1FEF53FE4F6081621B0895E42FF0E0E0
:10158000EE0FFF1FE054FE4F6081621B0895622F33
:101590000895E42FF0E0EE0FFF1FE054FE4F40816E
:1015A00034EE439F412D1124E82FF0E050E0445EDB
:1015B0005F4FDA01A21BB1099D01B7FF03C031954E
:1015C0002195310993E0220F331F9A95E1F7AF017E
:1015D000421B530B9A0157FD20E0582F259F212DC8
:1015E0001124822F0895E42FF0E0EE0FFF1FE05446
:1015F000FE4F408134EE439F412D1124E72FF0E050
:1016000050E0445E5F4FDA01A21BB1099D01B7FFB4
:1016100003C031952195310993E0220F331F9A952C
:10162000E1F7AF01421B530B9A0157FD20E0279FC2
:10163000212D1124722F08950E944E1508950E94A5
:1016400010150895FC019B01009729F480E077FFB5
:101650002BC080E80895AC0197FF04C044275527AC
:10166000481B590BB901640F751F37FD10C0241BAF
:10167000350BC901A5E0880F991FAA95E1F70E94D3
:101680002A3480E2861BF7FF0FC081950895CB01B5
:1016900065E0880F991F6A95E1F7BA01621B730B29
:1016A0000E942A3480E6EECF0895EF920F93CF93F5
:1016B000DF93D72FC82FC9010E19BA010E94220B40
:1016C000602F681B7D2F8C2FDF91CF910F91EF90B2
:1016D00008950F93CF93DF93D72FC82FC901BA0175
:1016E0000E94220B682F600F7D2F8C2FDF91CF91EE
:1016F0000F910895EF920F931F93CF93DF93D62FFF
:10170000C72F182FC9010E19010FBA010E94220B11
:10171000081B202F219F212D1124822F6D2F7C2F1C
:10172000DF91CF911F910F91EF900895EF920F935A
:101730001F93CF93DF93D62F172FC82FC9010E19F0
:10174000070FBA010E94220B702F781B719F712D19
:1017500011246D2F8C2FDF91CF911F910F91EF905E
:1017600008950F931F93CF93DF93D62FC72F182F72
:10177000C901212F201B022FBA010E94220B982F92
:10178000990F990F891B800F282F219F212D11243C
:10179000822F6D2F7C2FDF91CF911F910F91089594
:1017A0000F931F93CF93DF93D62F172FC82FC90105
:1017B000272F201B022FBA010E94220B982F990F6E
:1017C000990F782F791B700F719F712D11246D2F38
:1017D0008C2FDF91CF911F910F910895E82F86FDF7
:1017E000E0952E2F2F7086FD2F5FE695E695E69506
:1017F000E670F0E0EB5AFE4F9181929F902D212DE3
:10180000112492959F702295207F922B2081920F18
:1018100087FD919580E8890F08950F931F93CF93CB
:10182000DF938B01D82FC42F822F0E94EE0BEC2F59
:10183000F0E0EE0FFF1FE054FE4F90819058890FAB
:1018400087FD8195880F682F2CE0629F612D112400
:10185000600F712F8D2FDF91CF911F910F91089500
:10186000409118015091190125E038E0429FC001D4
:10187000439F900D529F900D1124875E994C909339
:10188000190180931801890F0895AC0182309105E8
:1018900008F408959FEF413E8EE1580740F49A0105
:1018A00095E0369527959A95E1F798E0920F61E0DB
:1018B000E62FE90FFF27FF1F9F0135952795822F00
:1018C000229FF001239FF00DF00D11244E175F07AA
:1018D00038F49FEF920F961758F78FEF860F089501
:1018E0002F3FE9F361E0620FF6CF0F93CF93DF93C1
:1018F000D72FC82F47FD419588E390E0841B9109BD
:1019000047FD9395889FB001899F700D700D11243C
:10191000229FC001239F900D900D1124860F971FC9
:101920000E94450C982F990F890F682F600F7D2F0B
:101930008C2FDF91CF910F91089530E020E0869FAA
:10194000212D969F200D311D1124C901089520914C
:10195000B90530E1230F08F42FEF60E1822F90E00A
:101960000E949D0CBC0188EB9BE00E94D33390E069
:1019700080E00895AF92BF92CF92DF92FF920F93D3
:101980001F93CF93DF93362F472FE82FF0E0EA58CD
:10199000F44F71110FC0E4918E2F2E2F6E2F722FE6
:1019A000DF91CF911F910F91FF90DF90CF90BF906B
:1019B000AF900895C72FD0E02491F22E022F10E0AF
:1019C00056E0659FC0011124EFEFF0E0BF010E94D7
:1019D000D333832F90E0880F991F35E5369FD001D0
:1019E000379FB00D11248A1B9B0B982F990F980FCE
:1019F0006F01CC1ADD0AC09ED001C19EB00DD09EF1
:101A0000B00D11248B2F499FA0011124452F55277C
:101A10006F01C41AD50AC09EA001C19E500DD09E70
:101A2000500D11245F01A91AB108AC9E6001AD9E52
:101A3000D00CBC9ED00C1124CD2CDD24EC19FD095A
:101A4000E09FE001E19FD00DF09FD00D1124ED2F1C
:101A500062307105A1F050F46115710509F49ECF53
:101A60006130710581F0EB2F852F98CF64307105BF
:101A700069F080F06630710509F490CFF4CFE22F61
:101A80002B2F8D2F8BCFE22F252F88CFEB2F822F5F
:101A90002D2F84CF2B2F8F2DE52F80CFB0E0A0E00E
:101AA000E4E5FDE00C94F2338C01FC01E05EFD4FB7
:101AB0008081682349F1D090B705D091B805C091D5
:101AC000B605EC2EF12C0E94300C282FC7018C5447
:101AD0009F4F68E671E00E942A348E199F0997FD96
:101AE0000396959587959595879523706C2F289FDC
:101AF000600D11247D2D8D2F0E94BA0C462F282FAA
:101B0000672FC8010E941F0BCDB7DEB7E7E00C942A
:101B10000E34B0E0A0E0EFE8FDE00C94F2337C017D
:101B200080911D01C82FCC0FCC0FC80F15E01C0FE2
:101B3000012F113308F000E36091B90566956695B1
:101B400021E0620F08F46FEF8091B0059091B1052C
:101B50000E949D0CD82ED0E0C01748F081E01033D1
:101B600008F080E0CDB7DEB7E7E00C940E34FE015C
:101B7000E05EFD4F808190911E01892391F060917C
:101B8000B6057091B7058091B8052D2D4C2FF70142
:101B900009950E94BA0C462F282F672FCE010E946C
:101BA0001F0B2196D9CFB0E0A0E0E9EDFDE00C9449
:101BB000EE336C0180911D01C82FCC0FCC0FC80FE4
:101BC00015E01C0FB12E113310F030E3B32E6091ED
:101BD000B905669566958091B0059091B1050E9412
:101BE0009D0CF82E80E48F0D0E94EE0B90E8A92E3C
:101BF000A80E8F2D0E94EE0B20E8922E980ED0E0BA
:101C0000CB1548F081E0103308F080E0CDB7DEB7A7
:101C1000EBE00C940A34FE01E05EFD4F8081909170
:101C20001E018923A1F06091B6057091B7058091DE
:101C3000B805EF2C0C2F292D4A2DF60109950E948D
:101C4000BA0C462F282F672FCE010E941F0B21961A
:101C5000D7CFB0E0A0E0EFE2FEE00C94EC335C0103
:101C600080911D01C82FCC0FCC0FC80F15E01C0FA1
:101C7000F12E113310F030E3F32E6091B905669523
:101C80008091B0059091B1050E949D0C782ED0E016
:101C9000CF1548F081E0103308F080E0CDB7DEB713
:101CA000EDE00C940834FE01E05EFD4F80819091E0
:101CB0001E018923C9F1CE01880F991F84599E4FB7
:101CC000FC01EC5AFF4F2081422F4057550B6A010F
:101CD0008B5A9F4FFC018081282F2052330B4901E2
:101CE000449F9001459F300D300D1124889CC00108
:101CF000899C900D900D1124820F931F0E94450C1A
:101D0000082F6091B6057091B7058091B805E72C52
:101D10009401A601F50109950E94BA0C462F282FBF
:101D2000672FCE010E941F0B2196B2CFB0E0A0E03A
:101D3000ECE9FEE00C94F1337C0180911D01C82F89
:101D4000CC0FCC0FC80F15E01C0FD12E113310F0A3
:101D500030E3D32E6091B90566958091B0059091DE
:101D6000B1050E949D0CC82ED0E0CD1548F081E051
:101D7000103308F080E0CDB7DEB7E8E00C940D3406
:101D8000FE01E05EFD4F808190911E01892311F1DB
:101D9000CE01880F991F84599E4FFC01EB5AFF4FCB
:101DA00020812052330B8C5A9F4FFC0140814057B9
:101DB000550B6091B6057091B7058091B8050C2D53
:101DC000F70109950E94BA0C462F282F672FCE01E4
:101DD0000E941F0B2196C9CF40913E038D3E59F4BE
:101DE00080913F0387FF0DC010923F0341110BC04C
:101DF0001092370308C08E3E81F480913F0318167D
:101E00009CF3442381F08091400390914103892BFE
:101E100009F05AC01092360308958F3E49F447FFE7
:101E2000F0CF10923E0380913F038111ECCFE0CFC1
:101E3000803F19F41416ACF3E4CF90914003893F2E
:101E400029F41916F4F610924003DBCF8A3F19F4F7
:101E500097FFD7CFF8CF909141038B3F29F497FF9D
:101E6000D0CF10924103CDCF8C3F19F41916CCF38B
:101E7000C8CF9FE0980F983090F4815F990B21E0D4
:101E800030E0B90102C0660F771F8A95E2F7CB01F7
:101E9000809590913D03892380933D03B2CF8D3F80
:101EA00031F4809138038E7F80933803AACF8E3F20
:101EB00021F4809138038D7FF7CF8F3F09F0A1CFB8
:101EC000809138038B7FF0CF08958091380380FD97
:101ED0001AC081FD14C082FD14C08091360388238E
:101EE00091F08C3370F427E0829FC00111246CE3E1
:101EF00070E00E942A34862F672B29F0089583E032
:101F0000089587E0089581E008958091380380FD69
:101F100016C081FD16C082FD18C08091370388234A
:101F200091F08C3390F428E3829FC00111246CE37C
:101F300070E00E942A34862F672B49F008958EE0C6
:101F400008958CE1089588E0089588E3089581E07C
:101F500008958D3E31F40E94850F819580933F0353
:101F600008958E3E19F40E94850FF8CF8F3E31F40C
:101F70000E94850F819580933E030895803F19F458
:101F80000E94850FF8CF893F29F40E94650F809346
:101F9000400308958A3F21F40E94650F8195F7CF91
:101FA0008B3F31F40E94650F819580934103089522
:101FB0008C3F19F40E94650FF8CF9FE0980F98307E
:101FC00070F4815F990B21E030E001C0220F8A9507
:101FD000EAF780913D03822B80933D0308958D3F66
:101FE00031F48091380381608093380308958E3FE7
:101FF00021F4809138038260F7CF8F3FB9F7809149
:1020000038038460F1CF80E0089590917C0592FFC1
:1020100006C0282F28712830F9F4877F846093FF49
:1020200006C0282F28712831F1F4877E8461209121
:102030007D0520FF06C0382F38713830D9F4877FEE
:10204000816021FF06C0282F28712831D1F4877EB6
:10205000816194FD877E0895282F24712430F9F63C
:102060008B7F8860DCCF282F2471243101F78B7E91
:102070008861DDCF382F3171313019F78E7F88605C
:10208000E0CF282F2171213121F78E7E8861E1CFA9
:10209000972F7E30A8F4663098F470E026E0929F87
:1020A000600D711D1124FB0194E5899FE00DF11D68
:1020B0001124EE0FFF1FEA5CF94F8591949108956A
:1020C00080E090E00895CF93DF93EC018238910592
:1020D000B1F108F040C08133910509F49DC048F585
:1020E0008932910509F48DC08A9709F49CC0C11505
:1020F00021E5D20708F0C3C0C11530E5D30708F0C9
:102100001EC1C83ED10508F0A3C0C03ED10588F568
:10211000C83AD10508F08EC0C53AD10508F007C10C
:10212000C130D10531F1209721F1C430D10508F536
:1021300045C08533910509F45FC0C997C1F6809108
:102140007C05837009F043C180917D0583FF11C038
:10215000C9E2D0E00EC0833E910599F170F4803E53
:10216000910501F1823E910511F680917C0582FD79
:1021700021C0CE01DF91CF910895863E910561F196
:10218000873E910571F1843E910509F0B0CF8091B1
:102190007D0581FFEECF80917C05C7EED0E084FD08
:1021A0000DC0E7CF80917C0580FD33C090917D0507
:1021B00090FFDFCFC3EED0E084FFDBCFD0E0C0E004
:1021C000D8CF80917C0582FDFFC090917D0590FD68
:1021D000FEC084FFCECFF2CF80917C0583FDDDCFA2
:1021E000C8CF80917C0583FDF5C090917D0591FF5E
:1021F000F0CFC4EED0E0BDCF80917C0585FFB9CF94
:10220000A7CF80917C0585FDE8C080917D0583FF87
:10221000B0CFC9E3D0E0ADCF80917C0586FFA9CFD8
:10222000CAE2D0E0A6CF80917C0586FFA2CFC1E3B1
:10223000D0E09FCFCF3BD10508F6C85AD0E0CC0FF5
:10224000DD1FC95DDE4F0990D881C02DD46491CFC8
:10225000C11540E2D40758F4C11581E0D80708F051
:1022600088CFCD3ED10508F4A9CFD06582CFC11566
:1022700020E4D20708F4A2CFDF70D06A7ACFC1156C
:1022800035E5D30718F5C11544E5D40708F084C037
:10229000C11583E5D80708F06BC0C11522E5D20748
:1022A00008F461C0CE018370992721E030E002C0BC
:1022B000220F331F8A95E2F7C695C69580E2C89F24
:1022C000E0011124C22BD32BDC6853CFC11539E5B3
:1022D000D307A8F4C11548E5D40708F062C0C115BA
:1022E00086E5D80708F06ACF8C2F0E940510C82F0A
:1022F000D0E0DC2FCC27CC27DF71D0623ACFC115DC
:102300002AE5D20708F452C0CE01905681159042BA
:1023100008F054CF8D2F8F710E94051090E0982FF8
:10232000882788279F719C012C2BE901E6CFC55A8D
:10233000D0E0CC5DDE4FC881D0E0D0641ACFCE01B2
:102340008370992721E030E002C0220F331F8A9565
:10235000E2F7C695C69540E2C49FE0011124C22B66
:10236000D32BDD6806CFDC2FCC27C16FD06A01CF1D
:10237000CE018370992721E030E002C0220F331F85
:102380008A95E2F7C695C69540E2C49FE001112404
:10239000C22BD32BDA68EDCEDC2FCC27C46FD06AEA
:1023A000E8CEDC2FCC27C06FD06AE3CE8C2F8F70A5
:1023B0000E94051034E0D695C7953A95E1F7CF70A5
:1023C0009C2FEC01D069D5CEC2EED0E0D2CEC0EECB
:1023D000D0E0CFCEC6EED0E0CCCEC5E3D0E0C9CEC3
:1023E0008091FB0281111092FB02089580959091DB
:1023F000FA0298239093FA02089590911C01992370
:10240000D1F090917C0597FF16C0E82FE695E695F0
:10241000E695EE31E0F4F0E0EE5AFD4F282F2770FC
:1024200081E090E001C0880F2A95EAF780959281BB
:10243000892382830895E4E5F2E09191891303C032
:10244000DF0111971C9292E0EA35F907B1F7089580
:1024500090911C019923C1F090917C0597FF14C0C5
:10246000E82FE695E695E695EE31F8F4F0E0EE5AC1
:10247000FD4F877021E030E001C0220F8A95EAF716
:102480008281822B82830895A4E5B2E0EFEF90E091
:102490002D91821751F0EF3F19F4211101C0E92F5E
:1024A0009F5F9630A9F7EF3F09F408950E2E000CB8
:1024B000FF0BEE5AFD4FE6CF8091D8029091A70214
:1024C000981301C008958F5F8770FACFB0E0A0E045
:1024D000ECE6F2E10C94F0337C0100910C041091D5
:1024E0000D048091FC029091FD02082B192BCFE086
:1024F000D0E0CC24C394D12CBC2EC6010C2E02C03B
:10250000880F991F0A94E2F780239123892B49F4BD
:10251000219790F7B12C8B2DCDB7DEB7E9E00C9465
:102520000C34B7018C2F0E9448100E946310019751
:1025300079F3F1CFCF93DF93EC010E946612BE01D5
:102540000E9448100E946310DF91CF9108959E3041
:1025500078F5863068F5E82FF0E086E0989FE00D8A
:10256000F11D11249E2F977083E0F695E7958A95CB
:10257000E1F7EE0FFF1FEE0FFF1FEB58FD4F50E08E
:1025800040E080E0219130E0092E02C03695279589
:102590000A94E2F721703327042E01C0220F0A9417
:1025A000EAF7822B4F5F5F4F4430510559F708958A
:1025B00080E008959E3098F5863088F5E82FF0E0A9
:1025C00086E0989FE00DF11D11248E2F877041E069
:1025D00001C0440F8A95EAF783E0F695E7958A955E
:1025E000E1F7EE0FFF1FEE0FFF1FEB58FD4F30E03E
:1025F00020E070E05191DF011197CB01022E02C063
:10260000969587950A94E2F78170819585278423B2
:1026100085278C932F5F3F4F2430310559F708955C
:10262000FC0183819481892B29F080819181892308
:102630008F3F51F480E00895843FE1F717C0883E52
:10264000A8F0813FB9F712C0808191810E949A124F
:1026500092959F70963099F358F4925F9F709230E4
:1026600048F7803F19F040F7883E20F781E0089551
:102670009A5FF4CFB0E0A0E0E0E4F3E10C94EE3335
:1026800020E9289FE001299FD00D1124C056DE4F7C
:1026900010E000E0FE0164913196749131968491CE
:1026A000962F972B982B89F420E040E060E0C8013A
:1026B0000E941F0B0F5F1F4F23960033110551F728
:1026C000CDB7DEB7EBE00C940A340E94BA0C962E1C
:1026D000B72EA82E6091B80570E090E080E00E94CF
:1026E0003D3720E030E04FE753E40E949C366B0119
:1026F0007C016A2D70E090E080E00E943F37A701E6
:1027000096010E94CB370E940E37A62E692D70E0ED
:1027100090E080E00E943F37A70196010E94CB37EE
:102720000E940E37962E6B2D70E090E080E00E94A4
:102730003F37A70196010E94CB370E940E372A2D02
:10274000492DB5CF27982F98089526982E9808954B
:1027500025982D98089556985E980895279A2F9A4F
:102760000895269A2E9A0895259A2D9A08951F93D2
:10277000CF93DF93182FD92F892F90E0C8E00097CF
:1027800019F4812F9D2FC0E09C0154E036952795C8
:102790005A95E1F72115310511F0CC5FC9019C0173
:1027A00036952795369527952115310511F0CE5F81
:1027B000C90196958795892B09F0CF5F0E94AB13CD
:1027C0000E94A8130E94A5130E94A213C150C730F3
:1027D00040F4EC2FF0E0E65CF74C0C943E340E94A1
:1027E000B413812F9D2FDF91CF911F9108950E94E7
:1027F000B4130E94B113F5CF0E94B4130E94AE131C
:10280000F0CF0E94B4130E94B113F8CF20982898FB
:102810002198299822982A9823982B9852985A9868
:1028200053985B983E98469808958098889A819826
:10283000899A84988C9A85988D9A86988E9A87988A
:102840008F9A089580937E057093800560937F052D
:102850008091A605843001F583E08093E9008FEF35
:102860009091E800815095FD06C095ED9A95F1F79D
:1028700000008111F5CF8091E80085FF0DC050E088
:1028800040E063E070E08EE795E00E94E60780910B
:10289000E8008E778093E8000895BC0184E00E94F0
:1028A00022140895BC0183E00E94221408959C0123
:1028B00082E08093E9009FEF8091E800915085FDD0
:1028C00006C085ED8A95F1F700009111F5CF809152
:1028D000E80085FF0CC050E040E065E070E0C90111
:1028E0000E94E6078091E8008E778093E8000895C3
:1028F000CF93DF93EC0180911C018823B1F180918B
:102900007C0587FF32C060E283E08093E9008FEFAF
:102910009091E800815095FD06C095ED9A95F1F7EC
:1029200000008111F5CF8091E80085FF1BC08091E8
:102930001C0170E050E040E0811104C050E040E034
:1029400068E070E0CE010E94E6078091E8008E7793
:102950008093E80080E2FE01A4E8B5E001900D92CA
:102960008A95E1F7DF91CF91089568E081E0CDCFBE
:102970000E94AB130E94A8130E94A5130E94A213E9
:102980008FEF90E0909389008093880090938B0064
:1029900080938A0090938D0080938C000E94B413E2
:1029A0002FEF80E792E0215080409040E1F700C097
:1029B00000000E94B1132FEF80E792E02150804089
:1029C0009040E1F700C000000E94AE132FEF80E7B7
:1029D00092E0215080409040E1F700C000000E944A
:1029E000A8132FEF80E792E0215080409040E1F75C
:1029F00000C000000E94A5132FEF80E792E0215055
:102A000080409040E1F700C000000E94A2130E94A5
:102A1000AB130E94A8130E94A5130E94A21308954D
:102A2000A4E0B0E0E6E1F5E10C94F433F62E042FD7
:102A3000122F8033910570F5880F991F880F991F09
:102A4000BC016A58734F44E050E0CE0101960E94E9
:102A5000A03489818370EA81282F30E040E9849F87
:102A6000C0011124875D9B4FE80FF92FF11DB4972A
:102A7000F082EB81E80FF92FF11DB4970083EC8110
:102A8000E80FF92FF11DB4971083295D3B4F81E0CA
:102A9000F90180832496E5E00C941034FF920F93A3
:102AA0001F93CF93DF93182F062FF42ED0E0C0E0B2
:102AB0002F2D402F612FCE010E9410152196C0337B
:102AC000D105B1F7CDB7DEB7E5E00C9410340F9324
:102AD0001F93CF93DF93082F000FEB0114E21093A5
:102AE0001304E4E1F4E0DE018D91819384E0E432AB
:102AF000F807D1F724E630E041E150E063E174E00B
:102B0000802F0E94AE33105F6096143B41F7DF9137
:102B1000CF911F910F91089580912704882329F068
:102B200069E274E084E70E9467151092270480919F
:102B30002804882329F069EB74E087E70E94671571
:102B4000109228040895E3E1F4E06083418324E6D1
:102B500030E042E050E0BF01880F0E94AE3308959C
:102B6000EF92FF920F931F93CF93DF93E82E062FE0
:102B700010E003591A4FF8018081882381F0F2E1B7
:102B80006F9FE0011124C75BDA4FF12C49916F2D43
:102B90008E2D0E94A315F39482E1F812F7CFF8016D
:102BA0001082CDB7DEB7E6E00C940F34CF93DF93FD
:102BB000C82F4BE06DEF0E94A31540E06AE08C2F18
:102BC0000E94A3158FE39CE90197F1F700C0000074
:102BD00040E060E08C2F0E94A31540E061E08C2F64
:102BE0000E94A31540E066E08C2F0E94A31540E0F0
:102BF0006DEF8C2F0E94A315D0E040E06D2F8C2F3D
:102C00000E94A315DF5FD231C1F740E06D2F8C2FFA
:102C10000E94A315DF5FD432C1F740E06D2F8C2FE7
:102C20000E94A315DF5FD43BC1F74BE06DEF8C2F03
:102C30000E94A31541E06AE08C2F0E94A31540E09A
:102C40006DEF8C2F0E94A315DF91CF910895A4E022
:102C5000B0E0EDE2F6E10C94EB330E94EB3284E756
:102C60000E94D61587E70E94D61506E71CE052E1C0
:102C7000752E68E0C62ED12CEE24E394F12C662448
:102C8000639444E050E0B801CE0101960E94A03464
:102C90004A8150E0CA0184972B81622F6452770BDE
:102CA0004B012C81E22FE452FF0B5F01298123703D
:102CB00030E0FC0197FD379643E0F595E7954A959E
:102CC000E1F7729EA001739E500D1124475B5A4F8D
:102CD000E40FF52FF11DB6010E942A34A70101C0AF
:102CE000440F8A95EAF78081842B8083F40197FC56
:102CF000379693E0F595E7959A95E1F7729EC001B6
:102D0000739E900D1124875B9A4FE80FF92FF11DE8
:102D1000C401B6010E942A34A70101C0440F8A955C
:102D2000EAF78081842B8083F501B7FC379683E036
:102D3000F595E7958A95E1F7729EC001739E900D17
:102D40001124875B9A4FE80FF92FF11DC501B601D9
:102D50000E942A34A70101C0440F8A95EAF78081B6
:102D6000842B808323593A4FF90160820C5F1F4FF7
:102D7000FDE006331F0709F084CF60E084E70E947E
:102D8000B01561E087E70E94B0152496EEE00C9440
:102D900007341F93CF93DF93EC01FC01E05EFD4FFE
:102DA00080816823B1F00E949034182F0E949034E3
:102DB0008F77782F20E8720F08F47FEF612F8091D2
:102DC000B8050E94BA0C462F282F672FCE010E940B
:102DD0001F0BDF91CF911F910895A3E0B0E0E3EFC7
:102DE000F6E10C94EA33182F80911B01811323C064
:102DF0009091B505937020911A0130E081E092170F
:102E0000130609F480E0817080931F018091BA0558
:102E100090911E01981739F080931E0140E060E008
:102E200080E00E941C0B1F3160F4E12FF0E0EF5BAB
:102E3000F74C0C943E3481E0E6CF80911F01811164
:102E400002C019822BC040E060E080E00E941C0BB1
:102E5000F8CF80911D01282F220F220F280F2983E0
:102E6000022F0B5FF02E013310F030E3F32E609150
:102E7000B6057091B7058091B8050E94BA0CE62E90
:102E8000D72EC82E9981892F90E09B838A83FA815F
:102E9000FF15E0F021E02983003398F680911D01B1
:102EA0008F5F80931D01398131110CC082E08093C6
:102EB000200180911F01811105C0111103C083E021
:102EC000809320012396EFE00C940634EA81FB8185
:102ED000E05EFD4F808190911E01892339F02C2DF9
:102EE0004E2D6D2D8A819B810E941F0BEA81FB81F3
:102EF0003196FB83EA83CBCF80911D01382F330FAE
:102F0000330F380F3983032F0B5FF02E013310F08E
:102F100020E3F22ED090B705E090B8058091B60579
:102F20008A83682F7D2D8E2D0E94BA0CC62EB72E57
:102F3000A82E6091B9059A81690F7D2D8E2D0E9472
:102F4000BA0CE62ED72E982EF981EF2FF0E0FB83F6
:102F5000EA833A813F1518F081E089839DCFEA81A9
:102F6000FB81E05EFD4F908180911E01892361F01D
:102F7000292D4E2D6D2D90FD03C02A2D4C2D6B2D2E
:102F80008A819B810E941F0B2A813B812F5F3F4FCB
:102F90003B832A83DECF80911D01982F990F990FD3
:102FA000980F9983092F0B5FE02E013310F090E307
:102FB000E92ED090B705C090B8052091B90580E4FE
:102FC000F82E3F2D329F312D1124F32E9981892F18
:102FD00090E09B838A83FA81FE1508F05BCFEA813B
:102FE000FB81E05EFD4F808190911E018923C9F035
:102FF000EA81FB81EE0FFF1FEF53FE4F8081829528
:103000008F706091B6058F9D600D11247D2D8C2DE4
:103010000E94BA0C462F282F672F8A819B810E941D
:103020001F0BEA81FB813196FB83EA83D4CF809129
:103030001D01382F330F330F380F3983032F0B5FE8
:10304000E02E013310F0A0E3EA2ED090B705C09037
:10305000B8052091B905F0E4FF2E3F2D329F312DA8
:103060001124F32E9981892F90E09B838A83FA8122
:10307000FE1508F00FCFEA81FB81E05EFD4F8081F5
:1030800090911E018923E9F0EA81FB81EE0FFF1F79
:10309000E054FE4F6081F69EB0011124E5E0759585
:1030A0006795EA95E1F78091B605680F7D2D8C2D27
:1030B0000E94BA0C462F282F672F8A819B810E947D
:1030C0001F0BEA81FB813196FB83EA83D0CF80918D
:1030D0001D01382F330F330F380F3983032F0B5F48
:1030E000F02E013310F060E3F62EE090B6058091EB
:1030F000B7058A83D090B8056091B9056695669545
:1031000066958091B0059091B1050E949D0C0E943A
:10311000EE0B805887FD8195880F282F3D2D239F2A
:10312000212D1124822F6E2D7A810E94BA0CE62E59
:10313000D72EC82E9981892F90E09B838A83FA81AC
:10314000FF1508F0A7CEEA81FB81E05EFD4F80818C
:1031500090911E01892339F02C2D4E2D6D2D8A81E1
:103160009B810E941F0BEA81FB813196FB83EA83DE
:10317000E6CF83EF9AE00E94890D07C089EC9AE0C0
:10318000FACF80ED9BE00E94960E898387CE81EB7B
:103190009BE0F9CF86E99BE00E94290EF6CF8AE7F3
:1031A0009BE0FACF87EC9AE0E6CF8EEB9AE0E3CF94
:1031B00085EB9AE0E0CF8CE99AE0DDCF8EE89AE0EB
:1031C000EBCF85E79CE0DFCF89E69BE0DCCF85E5B0
:1031D0009BE0E2CF81E69AE00E94D30DD6CF83E355
:1031E0009AE0FACF8CEF99E0F7CF80911D01382F4C
:1031F000330F330F380F3983032F0B5F80911F017B
:10320000811120C06091B90520E1620F08F46FEFD1
:103210008091B0059091B1050E949D0C6AE070E02C
:103220000E94D333892B59F40E94300C60E30E9432
:103230001E3460911E01892F90E00E944E0D91E096
:1032400099832ACE802F013308F080E3F981EF2F94
:10325000F0E0FB83EA83E82EF12C8A819B818E15B6
:103260009F056CF760911E018A819B810E944E0D23
:103270002A813B812F5F3F4F3B832A83EECFE09132
:103280001F01E983E1111EC06091B90520E1620FC1
:1032900008F46FEF8091B0059091B1050E949D0CEC
:1032A00065E070E00E94D333892B09F0CACD0E94FB
:1032B000903460E370E00E942A3460911E010E9405
:1032C000C916ECCD80911D01F82FFF0FFF0FF80FED
:1032D000F9830F2F0B5F802F013308F080E33981D2
:1032E000232F30E03B832A83E82EF12CEA81FB81F7
:1032F000EE15FF051CF0F1E0F983CECD60911E01C3
:103300008A819B810E94C9168A819B8101969B8339
:103310008A83ECCF80911D01282F220F220F280FC6
:103320002983022F0B5FF02E013310F050E3F52EAE
:10333000D090B705E090B8053091B6053A8360911A
:10334000B9056695669566958091B0059091B10531
:103350000E949D0C0E94EE0B805887FD8195880F7E
:10336000682F2CE0629F612D11248A81680F7D2DCA
:103370008E2D0E94BA0CE62ED72EC82EF981EF2F83
:10338000F0E0FB83EA833A813F1508F0E5CDEA815E
:10339000FB81E05EFD4F808190911E01892339F011
:1033A0002C2D4E2D6D2D8A819B810E941F0B2A8111
:1033B0003B812F5F3F4F3B832A83E5CF8DE09CE02D
:1033C000DACE8BEE99E0D7CE80911D018F5F082F6A
:1033D000000F000F080F4091B0055091B1056091AA
:1033E000B2057091B3058091420390914303A0917F
:1033F0004403B091450384179507A607B70708F063
:103400007ACF0E94300CF82E0E94300C90E3891B7A
:10341000F0F7890FE82FF0E0FB83EA83E05EFD4FD1
:1034200080911E019081892309F465CF20E040E05E
:1034300060E0F1FC13C00E94300CF82E0E94300CAA
:10344000782F76952FE7720F08F47FEF6F2D80911C
:10345000B8050E94BA0C462F282F672F8A819B81BE
:103460000E941F0B2091B90530E1230F08F42FEFC4
:1034700060E1822F90E00E949D0CBC0184EF91E0FE
:103480000E94D3338091B0059091B105A091B2050F
:10349000B091B305860F971FA11DB11D8093420304
:1034A00090934303A0934403B093450324CF4091EA
:1034B000D6035091D7036091D8037091D9038091BE
:1034C000B0059091B105A091B205B091B3058417F4
:1034D0009507A607B70708F4B4CC80911F018111A6
:1034E00026C080911D01282F220F220F280F29832B
:1034F000022F0B5FD02E013310F040E3D42E398120
:10350000E32EF12CE3E03E9FC00111248A5B9C4F27
:103510009B838A83ED1408F44CC0E6E4F3E083ED6A
:1035200093E0003308F065C021E02983B7CC40E088
:1035300060E080E00E941C0B36E4E32E33E0F32EC3
:103540001B821A820FE70E94300C81FF12C0F70124
:103550001082118212822A813B812F5F3F4F3B8371
:103560002A8333E0E30EF11C8A819B81C09759F7CF
:10357000B8CF0E94300CB82E0E94300C8695782F60
:10358000700F08F47FEF8A819B81880F991F2A8131
:103590003B81820F931FFC01EA5BFC4F6F016B2D97
:1035A0008091B8050E94BA0CF60160837183828312
:1035B000D2CFF701E05EFD4F808190911E018923FB
:1035C00041F0EA81FB81228140816181C7010E9433
:1035D0001F0B2A813B812D5F3F4F3B832A833FEFA7
:1035E000E31AF30A97CF23813481458121933193E4
:1035F00041938E179F07B9F70E94300C81FF1FC0BF
:103600001092D3031092D4031092D5030E94A70CFA
:10361000C090B005D090B105E090B205F090B30530
:10362000DC01CB018C0D9D1DAE1DBF1D8093D6030B
:103630009093D703A093D803B093D90302CC0E94F0
:10364000300C89830E94300C8695782F2FE7720FFB
:1036500008F47FEF69818091B8050E94BA0C6093ED
:10366000D3037093D4038093D503D0CF80911F01EF
:10367000882329F040E060E080E00E941C0B50901D
:103680001D015394852D880F880F580E4091B00569
:103690005091B1056091B2057091B3058091040419
:1036A00090910504A0910604B09107048417950732
:1036B000A607B70708F080C06091B6057091B705FE
:1036C0008091B8050E94BA0C062F772E682E8AEDDD
:1036D000E82E83E0F82E8CE691E09B838A83AA8013
:1036E000BB804501670192E001C091E09983F6013A
:1036F00021916F01F40181914F0190E0222309F49F
:1037000062C0262D402F672D0E941F0BF501858179
:10371000262D402F672D90E00E941F0BF60180811F
:1037200031978083F1E0AF1AB10829812130E9F6A1
:10373000EA81FB81828190E0F7012281222309F452
:103740004DC0262D402F672D0E941F0BEA81FB8163
:103750008381262D402F672D90E00E941F0B0E9431
:10376000300C837091E009F090E0F7019283F3E070
:10377000EF0EF11C2A813B812A5F3F4F3B832A8356
:10378000205C314009F0ABCF0E94A70CC090B0057F
:10379000D090B105E090B205F090B305DC01CB010B
:1037A0008C0D9D1DAE1DBF1D8093040490930504D8
:1037B000A0930604B0930704E1E0E983FFE2F51566
:1037C00008F06CCB3ECB20E040E060E00E941F0B95
:1037D000F501858120E040E060E09DCF20E040E001
:1037E00060E00E941F0BEA81FB81838120E040E0C2
:1037F00060E0B2CFCF938FB7F894409178055091A5
:10380000790560917A0570917B058FBF409308041C
:103810005093090460930A0470930B04809112047E
:10382000C0E0811108C08091B505C82FC37019F0A0
:10383000C82FC695C695809120018130C1F088239C
:1038400041F0823009F485C0833009F48DC0CF91F6
:10385000089510921D014093B0055093B1056093F7
:10386000B2057093B30581E080932001F0CF8C2FD7
:103870000E94ED16CC2359F380910E04E82FE870D6
:1038800083FDE5CF80910C0490910D04B0E0A0E0A1
:10389000492F5A2F6B2F7727411551056105710567
:1038A00019F0DB01CA01E8E0AC01BD01F4E0769556
:1038B000679557954795FA95D1F7411551056105DB
:1038C000710519F0EC5FDB01CA01AC01BD0132E00A
:1038D00076956795579547953A95D1F741155105D6
:1038E0006105710519F0EE5FDB01CA01B695A79578
:1038F00097958795892B8A2B8B2B09F0EF5FE83002
:10390000F8F4F0E0E05AF74C0C943E3490E080E09C
:103910000E943A139CCF81E090E0FACF82E090E0E1
:10392000F7CF83E090E0F4CF84E090E0F1CF85E042
:1039300090E0EECF86E090E0EBCF87E090E0E8CF3C
:103940008091BA05811183CF40E060E00E941C0B9A
:103950007ECFC0931B018091B505837080931A01BF
:103960000E948C1583E080CF8091B405882351F0AC
:1039700046E050E06CE170E085EB95E00E94053692
:103980001092B4054091B0055091B1056091B20517
:103990007091B3052FB7F8948091780590917905CF
:1039A000A0917A05B0917B052FBF841B950BA60BC8
:1039B000B70B4A97A105B10508F449CF1092200131
:1039C00046CFE5EBF5E085E380838091210190917E
:1039D0002201A091230181839283A3838CE38483BA
:1039E0008FEF858346E050E06CE170E0CF010E94EC
:1039F00005361092B40508958091FA0290916F05F2
:103A0000892B809352029091FB029923A1F0892B7C
:103A10008093520280911C018823E1F180917C0502
:103A200087FF38C08EE1E4E5F2E090E08150A0F538
:103A300091110E94F01140E250E06AED72E082E5DF
:103A400092E00E94D435892B21F180E2E2E5F2E098
:103A5000AAEDB2E001900D928A95E1F7E09173052D
:103A6000F09174053097A9F080911C01882359F0DA
:103A700080917C0587FF07C080915202809353029A
:103A800086E0809352020280F381E02D82E592E08D
:103A90000995089586E0C7CF2191222339F29F5FCF
:103AA000C5CF80917005882349F080916F058D7D89
:103AB00080936F050E94FC1C109270050895882366
:103AC00021F00E94F6110E94FC1C0895882339F011
:103AD0009091FA02982B9093FA020E94FC1C089590
:103AE000CF9384E090E00E94F135C82F82E290E00D
:103AF0000E94F135982F8C2FCF91089568EE7EEFBC
:103B000090E080E00E94333660E082E090E00E9426
:103B1000153660E083E090E00E9415361092FD02B9
:103B20001092FC0260E084E090E00E94153664E0B0
:103B300082E290E00E94153660E085E090E00E940D
:103B4000153660E086E090E00E9415366FEF87E062
:103B500090E00E94153640E050E0BA0188E090E025
:103B60000E94273660E08DE090E00E94153640E02C
:103B700050E0BA0188E190E00E94273660E087E1DA
:103B800090E00E94153640E050E0BA018CE190E0F0
:103B90000E94273670E060E080E290E00E943336B9
:103BA00040E050E0BA0188E190E00E942736109290
:103BB0000E0410920F04109210041092110484E06D
:103BC000806180930E0440910E0450910F04609127
:103BD0001004709111048FE090E00E94273640E0BD
:103BE00050E0BA0183E190E00E94273608950E94D8
:103BF000271690E080E00E94FF35883E9E4F21F01E
:103C00000E947E1D0E94E11C46E050E06CE170E0E5
:103C100085EB95E00E94E1351092B4058091B505E1
:103C20008C7F11F40E94E11C089580E290E0909353
:103C30001701809316018091720281110EC00E94BB
:103C4000EB3281E0809372022FEF83ED90E32150FD
:103C500080409040E1F700C0000064E670E080E43E
:103C60000E94F1329093170180931601892B09F07D
:103C70004EC064E670E080E00E945D3390931701CF
:103C800080931601892B09F042C064E670E080E061
:103C90000E945D339093170180931601892BB9F52B
:103CA00064E670E08FE30E945D3390931701809388
:103CB0001601892B61F50E94CF3364E670E080E441
:103CC0000E94F1329093170180931601892BF9F429
:103CD00064E670E08CE00E945D339093170180935E
:103CE0001601892BA1F464E670E080E00E945D3348
:103CF0009093170180931601892B49F464E670E0D4
:103D00008FE30E945D3390931701809316010E9408
:103D1000CF33809116010895CF93C82F873078F55F
:103D20008091160190911701892B39F564E670E0B6
:103D300080E40E94F1329093170180931601892B41
:103D4000D1F464E670E082E10E945D339093170144
:103D500080931601892B79F481E090E001C0880FEF
:103D6000CA95EAF764E670E080950E945D3390930F
:103D70001701809316010E94CF33CF9108958A30A6
:103D8000B1F038F4883069F0893071F0209A2898C1
:103D9000F4CF8C3091F070F08D30C1F73E9A469898
:103DA000ECCF219A2998E9CF229A2A98E6CF239A34
:103DB0002B98E3CF529A5A98E0CF539A5B98DDCF75
:103DC000CF93873050F58091160190911701C0E094
:103DD000892B71F464E670E081E40E94F1329093E3
:103DE000170180931601892B31F0C0E00E94CF3378
:103DF0008C2FCF91089584E690E00E948B3397FF3B
:103E000005C09093170180931601EFCFC82FC0957E
:103E10001092170110921601E9CFCFB18FB186959C
:103E200086958C73C3708C2BC82FC095E1CF1F92E1
:103E30000F920FB60F9211242F933F934F935F93DE
:103E40006F937F938F939F93AF93BF93EF93FF9362
:103E50008091E10082FF09C08091E20082FF05C0ED
:103E60008091E1008B7F8093E1008091DA0080FFF8
:103E700024C08091D80080FF20C08091DA008E7F1E
:103E80008093DA008091D90080FF9DC080E189BDD8
:103E900082E189BD09B400FEFDCF81E08093A605D3
:103EA00080918105811109C00E9496070E946108D6
:103EB0008091E20084608093E2008091E10080FFC5
:103EC00017C08091E20080FF13C08091E2008E7FD6
:103ED0008093E2008091E20080618093E200809113
:103EE000D80080628093D80019BC85E08093A60535
:103EF0008091E10084FF2BC08091E20084FF27C005
:103F000080E189BD82E189BD89B5982F917080FFDC
:103F1000FBCF8091D8008F7D8093D8008091E10005
:103F20008F7E8093E1008091E2008F7E8093E2009B
:103F30008091E20081608093E2008091A705882350
:103F400009F447C084E08093A6058091A60580917E
:103F5000E10083FF27C08091E20083FF23C08091AE
:103F6000E100877F8093E10082E08093A6051092B4
:103F7000A7058091E1008E7F8093E1008091E200AF
:103F80008E7F8093E2008091E20080618093E20066
:103F900042E060E080E00E942F088091F00088609D
:103FA0008093F000FF91EF91BF91AF919F918F911E
:103FB0007F916F915F914F913F912F910F900FBE25
:103FC0000F901F90189519BC1092A60510928105AC
:103FD00074CF8091E30087FD93E09093A605B5CF61
:103FE00078941F921FB61F9211248F939F93AF93C3
:103FF000BF938091780590917905A0917A05B09151
:104000007B050196A11DB11D8093780590937905DC
:10401000A0937A05B0937B05BF91AF919F918F914B
:104020001F901FBE1F9018959C014FB7F894809168
:10403000780590917905A0917A05B0917B054FBFE5
:10404000821B930B08952FB7F89480917805909177
:104050007905A0917A05B0917B052FBF08950E9444
:1040600023209C0190913E0380913F03982B21F0E7
:1040700030933C0320933B03909140038091410394
:10408000982B21F030933A0320933903E091730584
:10409000F0917405309731F00480F581E02D8DE3C7
:1040A00093E00995089590E080E00E94340990E043
:1040B00080E00E941E0910926F050E94FC1C85E0A2
:1040C000EDE3F3E0DF011D928A95E9F710923703E3
:1040D00010923603109238030E942F2008950E94F8
:1040E000B71390930D0480930C040E9453200895FD
:1040F00021E030E002C0220F331F8A95E2F72095BD
:10410000309580910C0490910D04822393230E949A
:104110006F2008959091D902809589238093D902C8
:10412000282F277091F4282F082E000C330B92179C
:10413000130659F090917D0592FF07C085958595EE
:1041400085950E9478201092D9020895CF93C0914E
:104150007D05C2FB992790F9981791F080FBC2F971
:10416000C0937D0560917C0584E090E00E94153647
:104170006C2F82E290E00E94153682E00E948A2035
:10418000CF91089521E030E002C0220F331F8A95BD
:10419000E2F780910C0490910D04822B932B0E94E6
:1041A0006F2008959093FD028093FC020E9453209B
:1041B00008951092FA0280911C01E4E5F2E0882350
:1041C00061F080917C0587FF08C08EE1DF011D92C0
:1041D0008A95E9F70E945320089586E0F7CFAAE276
:1041E000B0E0E5EFF0E20C94F63388EA95E0209138
:1041F000F100DC012D93CD01B5E0803B9B07B9F7C1
:104200008091A905833009F472C0B8F4813009F4B3
:1042100049C0823009F4B3C08091E80083FF86C2B0
:104220008091A8059091A9059A3008F07FC2E92FE6
:10423000F0E0E859F74C0C943E348A3009F48EC013
:104240008B3009F471C0893039F78091A80581322B
:1042500019F78091AC059091AD05009711F0029788
:10426000D9F68091E800877F8093E8008091E8008C
:1042700082FF38C09091F3008091F200029731F4F0
:104280008091F100813011F0863021F48091F100AD
:10429000809383058091E8008B778093E8000E94EB
:1042A0001008BACF8091A805813A09F0B5CF809166
:1042B000E800877F8093E8008091AC059091AD0580
:1042C000892B61F460E284E895E070E00E94BC080C
:1042D0008091E8008B778093E8009ECF60E090E0CB
:1042E00080E0F3CF8091A6058111C0CF95CF80915A
:1042F000A805813A09F090CF8091AC059091AD0569
:10430000892B09F089CF8091E800877F8093E800AE
:104310008091E80080FFFCCF80911C018093F10028
:104320008091E8008E77B9CF8091A805813209F09D
:1043300073CF8091AC059091AD05892B09F06CCFBE
:104340008091E800877F8093E8000E9410088091A8
:10435000AA0580931C010E94D9205ECF8091A805F8
:10436000813209F059CF8091E800877F8093E8007F
:104370000E9410088091AB05809382054DCF8091FB
:10438000A805813A09F048CF8091E800877F8093A3
:10439000E8008091E80080FFFCCF80918205BECFCD
:1043A000803899F0823809F0C1C18091AC058F70D6
:1043B000873008F0BBC18093E9008091EB0085FB5A
:1043C000882780F91092E90006C08091A405909199
:1043D000A505911182609091E800977F9093E80085
:1043E0008093F1001092F1008091E8008E779AC1DD
:1043F000882309F488C1823009F098C18091AA0508
:1044000081118BC18091AC058F702FEF280F263062
:1044100008F08CC18093E9002091EB0020FF7DC162
:10442000933031F48091EB0080628093EB0075C192
:104430009091EB0090619093EB0021E030E001C09F
:10444000220F8A95EAF72093EA001092EA00809101
:10445000EB008860EACF811169C11091AA051F772E
:104460008091E3008078812B8093E3008091E800C5
:10447000877F8093E8000E9410088091E80080FF09
:10448000FCCF8091E30080688093E30082E011110B
:1044900083E08093A6054AC18058823008F046C167
:1044A0002091AA053091AB052C3DE3E03E07A1F534
:1044B00083E08A838AE289834FB7F894DE011396FA
:1044C00020E03EE051E2E32FF0E050935700E4910A
:1044D00020FF03C0E295EF703F5FEF708E2F90E0FA
:1044E000EA30C0F0C7968D939D932F5F243159F722
:1044F0004FBF8091E800877F8093E8006AE270E018
:10450000CE0101960E94BC088091E8008B778093D1
:10451000E8000CC1C096E7CF8091AC059091AD0545
:10452000432F55274330510509F44AC078F54130EF
:10453000510509F47AC084E590E0E6E3FDE04230FD
:10454000510509F0F3C02091E800277F2093E8008F
:104550002091AE053091AF058217930708F49C01B6
:1045600040E02115310509F065C0411163C080911B
:10457000E80082FDC9CF8091A605882329F2853005
:1045800019F28091E80083FFF2CFBECF413251058E
:1045900009F43CC04232510509F0C8C0833091058E
:1045A00008F0C4C0FC01EE0FFF1FE05AFE4F01905F
:1045B000F081E02D835A9E4FDC018C9190E01AC06F
:1045C000332721303105D1F02115310561F022303A
:1045D000310509F0ABC0ECE9FDE0E4918E2F90E0ED
:1045E000ECE9FDE007C0E8EEFDE0E4918E2F90E0FD
:1045F000E8EEFDE0009709F499C0A5CFEEEBFDE0F1
:10460000E4918E2F90E0EEEBFDE0F4CF8330910546
:1046100008F08CC0880F991FFC01EA59FE4F0190E9
:10462000F081E02D89E090E08ECF82E190E0EAE831
:10463000FDE089CF8091A605882309F465CF8530F8
:1046400009F462CF8091E80083FD5ECF8091E8009D
:1046500082FD8DCF8091E80080FF83CF9091F300A1
:104660008091F2002115310519F08830910550F044
:1046700041E0089709F040E08091E8008E77809350
:10468000E8006FCF44914093F100319621503109F9
:104690000196E8CF803809F049C08091E800877F13
:1046A0008093E8008091A7058093F1009DCE811151
:1046B0003DC01091AA051230C8F58091E800877FAF
:1046C0008093E8001093A7050E941008112311F0B1
:1046D00084E005C08091E30087FDFACF81E08093FC
:1046E000A60542E061EC81E00E942F0842E061EC07
:1046F00082E00E942F0842E261EC83E00E942F08D2
:104700008091A60513C08091AA05813079F481E0DB
:10471000933009F080E08093A5051092E900809124
:10472000E800877F8093E8000E9410088091E800ED
:1047300083FF0AC08091E800877F8093E800809122
:10474000EB0080628093EB00AA96E3E00C941234B5
:104750001F920F920FB60F9211242F933F934F93F6
:104760005F936F937F938F939F93AF93BF93CF93F9
:10477000DF93EF93FF93D091E900DF708091EC001D
:10478000C82FC17080FDC0E81092E9008091F00050
:10479000877F8093F00078940E94EF201092E900C8
:1047A0008091F00088608093F000CD2BCF70C09393
:1047B000E900FF91EF91DF91CF91BF91AF919F9170
:1047C0008F917F916F915F914F913F912F910F90BA
:1047D0000FBE0F901F9018950E94D9202FEF84E3F1
:1047E0009CE0215080409040E1F700C0000088E14B
:1047F0009AE00FB6F894A895809360000FBE90934E
:104800006000FFCF882309F455C0823879F40E94F4
:104810004A0981FF4FC089E30E9428120E94FC1CB4
:1048200089E30E94FD110E94FC1C0895833859F40D
:104830000E944A0980FF3EC083E50E9428120E9420
:10484000FC1C83E5EECF843859F40E944A0982FFAC
:1048500031C087E40E9428120E94FC1C87E4E1CF4B
:104860009CEF980F913AE8F290E2980F983050F44C
:10487000877091E001C0990F8A95EAF7892F0E940D
:10488000F611D1CF9BE5980F933028F490E080E0AB
:104890000E943409089598E5980F973128F490E024
:1048A00080E00E941E0908958D3E20F00E94EC0ECB
:1048B0000E942F200895CF93C82F8823C9F08238F3
:1048C000C9F40E944A0981FD13C089E30E9428129D
:1048D0000E94FC1C2FEF87EE93E021508040904017
:1048E000E1F700C0000089E30E94FD110E94FC1C5A
:1048F000CF9108958338A1F40E944A0980FDF8CF32
:1049000083E50E9428120E94FC1C2FEF81EE94E0A8
:10491000215080409040E1F700C0000083E5E4CFE3
:104920008438A1F40E944A0982FDE2CF87E40E9404
:1049300028120E94FC1C2FEF81EE94E02150804051
:104940009040E1F700C0000087E4CECF8CEF8C0FE1
:10495000813A88F580911C01882301F180917C05C2
:1049600087FF1CC0EC2FE695E695E695F0E0EE5A41
:10497000FD4F828190E04C2F477021E030E002C073
:10498000220F331F4A95E2F782239323892B79F074
:104990008C2F0E94FD110E94FC1C09C0E4E5F2E08E
:1049A0008191C817A9F322E0EA35F207C9F78C2FE5
:1049B0000E9428129BCF80E28C0F883068F4C77069
:1049C00021E030E001C0220FCA95EAF78091FA0297
:1049D000822B8093FA028ACFEBE5EC0FE33040F4B0
:1049E000F0E0EC5DFE4F808190E00E94340980CFC2
:1049F000E8E5EC0FE73150F4F0E0EE0FFF1FE95D62
:104A0000FE4F808191810E941E0972CFCD3E08F435
:104A10006FCF8C2F0E94A90F0E942F2069CF1F9368
:104A2000CF93DF93182FEB010E945B24209739F47A
:104A3000812F0E940224DF91CF911F9108958FE969
:104A40009FE00197F1F700C000002197EFCFB0E0A1
:104A5000A0E0EDE2F5E20C94EF33EC018AE0A82E41
:104A6000FE012491222309F4A6C0213009F044C09C
:104A700031968491813061F42296FE01849170E038
:104A800060E0893311F460E570E00E940F2507C0F3
:104A9000823039F42296FE0184910E945B24219693
:104AA000DFCF833031F42296FE0184910E940224EC
:104AB000F6CF843009F07DC02296FE01249190E06B
:104AC00080E0FE0131962053330B2A30310548F047
:104AD000019728F3EFE9FFE03197F1F700C00000FC
:104AE000F7CFA89EA001A99E500D1124C901840FE3
:104AF000951F2491EF01E5CFE22FF0E0E45EF14F46
:104B0000B490822F86958695869590E0FC01E45FAF
:104B1000F14FE4902770F12C022E02C0F594E79437
:104B20000A94E2F731E0E322FF24FC01E450F24F63
:104B3000C490D12C022E02C0D594C7940A94E2F7F7
:104B4000E1E0CE22DD24FC01E451F24F049110E0BB
:104B500002C0159507952A95E2F701701127E11417
:104B6000F10419F081EE0E945B24C114D10419F004
:104B700086EE0E945B24F9E370E060E0BF1202C0A1
:104B800060E570E08B2D0E940F25C114D10419F04F
:104B900086EE0E940224E114F10419F081EE0E94D5
:104BA00002240115110509F47ACF70E060E08CE26F
:104BB0006CCFEF0174CFCDB7DEB7EAE00C940B34C5
:104BC000B0E0A0E0E6EEF5E20C94F133809116013E
:104BD00090911701892BA1F08091FE028F5F809345
:104BE000FE0281110DC00E94151E90E090931701E6
:104BF00080931601892B21F40E94B8140E94F71D9E
:104C000006E013E07801C0E0D0E087E0C82ECD0ECA
:104C10008D2F0E948C1E8C2D0E948C1E8D2F0E9429
:104C2000E01E8F73F70191917F01D12C891721F03C
:104C300031978083DD24D3948C2D0E94E01E8F73E6
:104C4000F7019681891709F444C0868381E08D2994
:104C5000C82B0E940614DF5FD730B9F61092030309
:104C6000D0910203DD23F1F10E9423202091000363
:104C700030910103AC01421B530B9A019093010345
:104C8000809300034F3F510509F028F5452BE9F0CB
:104C9000109202031092FF02E0910403F0910503C9
:104CA000AF01425F5F4F90E030E08191882331F0A7
:104CB000DF011197281790F01C929D2FE417F5073C
:104CC000A1F7309302039093FF02C11119C0CD2FB9
:104CD0000BC080E0BCCF2FEF30E0DACF821B8C938B
:104CE0003D2FECCFC11106C08091FF028823A1F1B6
:104CF000C11106C00E9423209093010380930003FA
:104D0000A0910403B091050320910203E6E1F3E0D2
:104D100090E04EE13191E80189918E01381799F0C8
:104D20003C91311110C04C93EF0121978883E80129
:104D3000219728818227292F30E0282B91E0232BEF
:104D400009F490E021E01196D3E0E432FD0711F779
:104D5000909303032093020380910303CDB7DEB742
:104D6000E8E00C940D34A5E0B0E0E9EBF6E20C9439
:104D7000ED337C01FC0183819481892B31F08081AA
:104D8000918189238F3F09F0B3C62596ECE00C94FE
:104D900009340E946612182F682F89819A810E9417
:104DA000DA1269817A81812F0E9448108C01823B3E
:104DB000FDE59F0709F43EC0833B2DE5920709F40A
:104DC0007FC0833C3CE5930709F0A3C0F7018281D3
:104DD0008823F1F08091BA058F3F09F091C080E0FF
:104DE0000E945D0980910E048F7E80930E0440E046
:104DF00060E080E00E941C0B40910E0450910F0473
:104E000060911004709111048FE090E00E942736A9
:104E10008091D902877009F4B8CFF7018281882385
:104E200009F4B3CF80917D0582FFAFCF82E00E946D
:104E30008A20ABCFF70182818823A9F180910E04EB
:104E400091E0980F9770887F953008F4892B8093B4
:104E50000E0480910E048770FFEF8F9FC001112414
:104E60009595879595958795992790938900809337
:104E7000880090938B0080938A0090938D0080939C
:104E80008C0040910E0450910F04609110047091B9
:104E900011048FE090E00E94273680910C049091DD
:104EA0000D040E94B71380917302823009F473C01D
:104EB00008F02FC6813009F485C01092730277C0C4
:104EC000F7018281882379F390910E04892F877FDF
:104ED00093FF886080930E0483FF05C040E060E08C
:104EE00080E00E941C0B40910E0450910F046091D1
:104EF0001004709111048FE090E00E942736D3CF08
:104F00008FEF0E945D0980910E04806180930E04F2
:104F100073CF813E910509F481C0853E910509F466
:104F20007DC0853B9D4509F0BECFF7018281882376
:104F300009F4B9CF1091FA028091FB02812B8272A1
:104F4000A9F482EE0E945B2480917302811104C057
:104F50008FE296E00E94272581EE0E945B248FE479
:104F60000E945B2482E08093730252CF809173028F
:104F700081110CC01092FA020E94F01180E296E0BA
:104F80000E9427251093FA0283E0EDCF81E50E946D
:104F90005B2484E0E8CF8FE40E94022481EE0E942B
:104FA000022482EE0E94022481E080937302043B7B
:104FB000FDE51F0799F4F7018281882309F428CFC2
:104FC00081E0D5C20932110509F077CF70E060E0C9
:104FD0008FE40E940F25109273021ACF0D3AFDE55F
:104FE0001F07E1F4F7018281882309F411CF809132
:104FF0007005882319F00E94511D0ACF1092FA0201
:105000000E94F0110E94232088579C4E90933403F5
:105010008093330381E080937005FACE8091700510
:10502000882381F1C090FA02D090FB020E942320D5
:1050300088579C4E9093340380933303F701828109
:10504000882301F18D2D8C298D7909F089C00115F6
:10505000F5E51F0708F064C0011523E5120790F479
:10506000011530E5130750F4011580E4180708F026
:1050700082C0063E110531F0C80184C0011592E5D9
:105080001907D0F7F7018281882309F44AC5043053
:10509000FDE51F0708F094C00B3F2CE5120730F424
:1050A000C80182509C45449708F095C00E94701D2D
:1050B00090937D0580937C050231ECE51E0709F491
:1050C00093C108F0DFC009302CE5120709F46AC16A
:1050D00008F0A9C005308CE5180709F453C108F0A1
:1050E00095C00330ECE51E0709F444C108F046C141
:1050F00080917C05816002302CE5120709F4BFC065
:1051000060917C0510917D0584E090E00E94153649
:10511000612F82E290E00E9415360E94D92078CE5D
:105120000115E9E51E0758F40115F8E51F0708F019
:10513000A9CF043125E5120709F09ECFA3CFC801FE
:1051400090568115904208F097CFF7018581807FB6
:10515000B9F4812F8F71823159F028F4823041F0F7
:105160000E94511D8FCF843109F48CCF8631C1F755
:1051700010926F05F5CFF7018581807F09F482CF0A
:10518000C801992710926F058832910548F48E3135
:10519000910560F4049720F382E080936F0506C0C8
:1051A0008D329105C9F328F48A97D1F60E94FC1C30
:1051B00069CF8C349105D1F38D329240B9F3D0CFC1
:1051C000063A3DE5130709F471CFD0F402369DE5A8
:1051D000190709F46BCF06318CE5180709F017C2DF
:1051E0008091FA028A7A91E009F490E09093740237
:1051F000811124C189E20E9428120E94FC1C08CE61
:10520000C8018E5A9D45039730F750CF80917C0599
:10521000806207303CE5130791F108F4BFC080912C
:105220007C0580642CC00D309CE5190709F4C4C0CE
:1052300090F480917C058E7F0B30FCE51F07F9F020
:1052400080917C058C600C302CE51207C0F08091B9
:105250007C058D7F14C00F303CE5130709F4BCC0FA
:1052600008F4AEC000319CE5190709F4B9C080917B
:105270007C058F7B0131ECE51E0709F041CF80935F
:105280007C053ECF0115FDE51F0709F4B7C0A8F561
:105290000B3F3CE5130709F479C0C0F404319CE5E9
:1052A000190709F4B9C008F4A5C00531FCE51F07CA
:1052B00009F026CF80917C0582FB992790F921E0A7
:1052C000922790FB82F990FB83F9D9CF0D3F2CE513
:1052D000120709F479C008F45DC00E3F8CE5180789
:1052E00009F476C080917D0583600F3F9CE5190726
:1052F00009F006CF80937D0503CF0236EDE51E074A
:1053000009F495C090F402302DE5120709F48DC020
:1053100008F478C060E003308DE5180709F0F0CE9E
:105320008EE090E00E941536EBCE0E3A9DE519070F
:10533000E9F060F490917C05892F8E7F90FF816069
:10534000063AFDE51F0709F49ACFDACE0F3A2DE5AC
:10535000120771F1003B3DE5130709F0D1CE9091A2
:105360007D05892F877F93FF8860C4CF80917D055D
:105370008860C0CF80917C05826081CF80917C0560
:1053800084607DCF80917C05886079CF80917D0598
:105390008160B0CF80917D058260ACCF80917C052B
:1053A00080616DCF0E94D92080917C05806867CF95
:1053B00080917D05877F9ECF80917C058B7F5FCF1D
:1053C00080917C05877F5BCF80917D058E7F92CF1A
:1053D00080917D058D7F8ECF80917C058F7E4FCF14
:1053E00080917C058F7D4BCF0E94D92080917C05D8
:1053F0008F7745CF80917C05837F41CF80917D055C
:105400008C7F78CF80917D05982F909591708E7FBD
:10541000892B90FB81F96ECF0E94D92090917C0559
:10542000892F97FB87F980582ACF61E079CF909137
:105430007C05892F8F7E94FF806121CF85E3DBCEB1
:1054400085E379C38091FA0282720B3C9CE51907CF
:1054500009F4CCC008F073C0063CFCE51F0709F452
:10546000B1C008F054C0043C3CE5130709F4A0C0E7
:1054700008F0A3C0033CECE51E0709F48BC0F7015C
:10548000828100811181882309F42AC1C8010E9408
:105490006612D82E682FC8010E94DA12B8018D2D2D
:1054A0000E9448100E9463108C01882EF701D28060
:1054B000B580B2943FE0B3228091D9028770C1F0E9
:1054C000AD2CDD20B1F0812F807F803421F080E28F
:1054D000800F883068F080917D0582FF09C082E0EE
:1054E0000E948A208091D9028770AA24A3948111F6
:1054F000A12C912E92942FE09222FBE0F91508F452
:1055000054C1E92DF0E0EE58F74C0C943E34083CC1
:10551000FCE51F0709F460C008F459C0093C3CE5EC
:10552000130709F45EC041E859E06EE879E00A3CEF
:105530009CE5190709F0A3CF0E94570969CC003DEB
:10554000ECE51E0709F461C0A8F40D3C2CE5120738
:1055500009F456C008F44FC00E3C8CE5180709F456
:105560002FCD85E00F3C9CE5190709F088CF0E94FC
:105570006D074ECC073DECE51E0730F482E1023D9D
:10558000FCE51F07A0F344CC0E352DE5120709F406
:105590003FCC75CF8091B50591E089278093B50503
:1055A000109220018091B40581608093B40530CCC5
:1055B00049EC59E063ED79E0BFCF43ED59E069EC88
:1055C00079E0BACF45EB59E06FEB79E0B5CF4FEB1F
:1055D00059E065EB79E0B0CF4BE959E068EA79E052
:1055E000ABCF48EA59E06BE979E0A6CF4EE859E045
:1055F00061E879E0A1CF45E659E063E779E09CCF27
:1056000043E759E065E679E097CF8DE0B0CF0B3501
:105610003DE5130709F460C058F401159CE519072E
:10562000A1F00F3D1C4509F02ACF0E947E1D0BC042
:105630000D35FDE51F0709F445C008F44FC0083AD1
:105640001D4509F01CCF0E94EC230E94D9208FEF4A
:1056500094E3ECE081509040E040E1F700C00000AE
:10566000F89481E08093E00080E28093D80010926B
:10567000C9008FE19EE40197F1F700C000001DBA58
:10568000109268001CBC10BE1FBA10927A001092D3
:105690006E0010926F0010927100109272001092C2
:1056A000C9001092BC0014B817B81AB81DB810BAC7
:1056B0001092BC0015B818B81BB81EB811BA0C94DB
:1056C000003FA6CB80917D0582FB882780F991E081
:1056D00089270E94A620D3CE81E0FBCF80E0F9CFBE
:1056E000C8010E94A712D82ED9CE212F2F70C22E0A
:1056F000107F19F0C29490EFC922DD20B9F0CC20C0
:1057000069F080E2800F883010F0811009C080912C
:10571000FA02C82AC092FA020E94FC1C802F43C0E1
:1057200080916F05C82AC0926F05F6CF802F0E9426
:105730000224CC20D1F1005E083010F0811004C0AA
:105740008C2D0E94F61106C0C09480916F05C8226E
:10575000C0926F050E94FC1C28C0312F3F70C32EE1
:10576000107F103219F0C29480EFC822882059F0BF
:1057700081E0881609F472C0DD2009F47AC0BB20EC
:1057800009F472C0CBCF20917D0522FD44C0DD20FD
:10579000E1F1CC2039F08091FA02C82AC092FA02D5
:1057A0000E94FC1C80E00E945B24292D2850330BB2
:1057B0002430310510F40E944A09AA20A9F08091F2
:1057C000D90280FD11C0F7011282859585958595D6
:1057D0000E94C220C7010E94B3268091D9028595FC
:1057E000859585950E94782085E0F701DE01119668
:1057F00001900D928A95E1F709811A81C8010E94F2
:10580000A712B8010E944810C0CA80E00E9402247A
:10581000CC2059F295CFDD20A1F09091FB028C2D88
:10582000892BB11003C00E94661DBFCFE1E0BE12FC
:10583000FACF22FFBACF891709F4B7CF8093FB02C2
:10584000B4CFB11006C00E94F0118C2D0E945F1DD4
:10585000ACCFF1E0BF1609F4A8CFF5CFDD2031F0D1
:1058600021E02B1508F4A1CF8C2DDDCFB1109DCFF9
:10587000ECCFBB2051F339E3831233C18FEF97EEA6
:10588000E3E081509040E040E1F700C0000029C112
:10589000812F86958695837061F0813009F085CFE0
:1058A000C8019370D11002C090E080E00E941E09F0
:1058B0007CCFC8019370D11002C090E080E00E94BC
:1058C000340973CF802FDD2029F00E94A90F0E9498
:1058D0002F206BCF0E94EC0EFACF812F837009F03E
:1058E0003FC0D11062CF402F429546954770440F7C
:1058F000440F802F8F7090E0042E02C0880F991FF4
:105900000A94E2F730E020E004FF09C02FE030E025
:1059100002C0220F331F4A95E2F720953095169565
:1059200016951370123099F078F44091FC02509162
:10593000FD02113039F0822B932B842395230E9492
:10594000D22033CF842B952B822B932BF8CF822B15
:10595000932B2091FC023091FD0282279327EFCFF9
:105960008695DD2011F0812F8170882309F41DCFE9
:10597000402F429546954770440F440F802F8F70FB
:1059800090E0042E02C0880F991F0A94E2F730E0DD
:1059900020E004FF09C02FE030E002C0220F331FD7
:1059A0004A95E2F7209530951695169513701230AA
:1059B00099F078F440910C0450910D04113039F0B5
:1059C000822B932B842395230E946F20EECE842B71
:1059D000952B822B932BF8CF822B932B20910C04A9
:1059E00030910D0482279327EFCF1F70DD2029F01F
:1059F000812F0E94C220802F16CF802F0E945F1D12
:105A0000812F0E947820D1CE802FF2EF8F1689F15E
:105A1000F81570F020EF8216D1F031EF831691F077
:105A2000DD2009F459C0B11079CE812F8F7125C0C6
:105A300093EF891629F1E4EF8E12F2CF80917D0564
:105A400082FD2CC0812F8F71DD20D9F216C0DD20A0
:105A500059F0B110AACE1F7181E090E002C0880F0A
:105A6000991F1A95E2F7BACFF1E0FB1508F49DCE25
:105A7000F2CF812F8F71D110C4CF0E94C22095CE5A
:105A800090E080E0DD2009F49FCF1F7181E090E07D
:105A900002C0880F991F1A95E2F796CFDD2089F092
:105AA0001F71812F0E94C22080917D0582FF07C057
:105AB00028E0129FC001112483608093D902812FB6
:105AC000DCCF81E00E948A2031E03B1508F06DCEEA
:105AD00082E00E948A2069CEBB2039F0893309F424
