:100000000C9462050C947F050C947F050C947F057D
:100010000C947F050C947F050C947F050C947F0550
:100020000C947F050C947F050C9472220C942E2264
:100030000C94392E0C947F050C947F050C947F054D
:100040000C947F050C947F050C947F050C947F0520
:100050000C947F050C944B230C947F050C947F0526
:100060000C947F050C947F050C947F050C947F0500
:100070000C947F050C947F050C947F050C947F05F0
:100080000C947F050C947F050C947F050C947F05E0
:100090000C947F050C947F050C947F050C947F05D0
:1000A0000C947F050C947F050C947F0569FFFF6914
:1000B000FFFF69FFFF69FFFF69FFFFAC81FFAC81B4
:1000C000FFAC81FFAC81FFAC81FF69FFFF69FFFFDF
:1000D00069FFFF69FFFF69FFFFAC81FFAC81FFACE7
:1000E00081FFAC81FFAC81FF69FFFF69FFFF00006A
:1000F0000000000069FFFF69FFFF69FFFF69FFFF64
:1001000069FFFFAC81FFAC81FFAC81FFAC81FFAC2C
:1001100081FF69FFFF69FFFF69FFFF69FFFF69FF5B
:10012000FFAC81FFAC81FFAC81FFAC81FFAC81FFF4
:1001300069FFFF69FFFF69FFFF000000000000008A
:100140000000000000000000000000AC81FFAC8156
:10015000FFAC81FFAC81FFAC81FF69FFFF69FFFF4E
:1001600069FFFF69FFFF69FFFF000000000000005A
:10017000000000000000000000000000000000007F
:10018000000000000000000000000000000000006F
:10019000000000AC81FFAC81FFAC81FFAC81FFAC03
:1001A00081FF69FFFF69FFFF69FFFF69FFFF69FFCB
:1001B000FF00000000000000000000000000000040
:1001C000000000000000000000000000000000002F
:1001D000000000000000000000000000000069FFB7
:1001E000FF69FFFF00000000000069FFFFAC81FF16
:1001F000AC81FF69FFFF000000000000000000006C
:1002000000000000000000000000000000000000EE
:1002100000000000000000000000000000000000DE
:1002200000000000000000000000000000000000CE
:10023000000000000069FFFFAC81FF69FFFF0000C4
:1002400000000000000000000000000000000000AE
:10025000000000000000000000000000000000009E
:10026000000000000000000000000000000000008E
:10027000000000000000000000000000000000007E
:10028000000000000000000000000000000000006E
:10029000000000000000000000000000000000005E
:1002A00000000000000000AC81FFAC81FF000000F6
:1002B00000000069FFFF00000000000069FFFFACC4
:1002C00081FFAC81FF00000069FFFFAC81FF69FF87
:1002D000FF00000000000000000069FFFF000000B8
:1002E000000000000000000000000000000000000E
:1002F00000000000000000000000000000000000FE
:100300000000000000000000000069FFFF69FFFF1F
:1003100069FFFFAC81FFAC81FF000000000000001E
:1003200000000000000000000000000000000000CD
:1003300000000000000000000000000000000000BD
:1003400000000000000000000000000000000000AD
:10035000000000000000000000000000000000009D
:10036000000000000000000000000000000000008D
:100370000000000000000000000000000102E06139
:100380000102E1650103E10103E00001014F010108
:1003900050000102E20102E001014F0103E001030C
:1003A000E2000102E20102E00101280103E0010391
:1003B000E2000102E20102E00101500103E0010359
:1003C000E20035002B002961E100010000001E0061
:1003D000140004001D00010003511F001A00160044
:1003E0001B00E00002512000080007000600E200A8
:1003F00001512100150009001900E300010022004D
:1004000017000A00050000004C002F022602000021
:100410002F000000045130022702000030000000CD
:100420002C0923001C000B00110000000100240017
:1004300018000D001000E700010025000C000E0060
:100440003600E2002C00260012000F0037000100E9
:10045000280027001300330038000100B85D2A008F
:1004600031003400E500010000000100010001003E
:1004700001000100000001001E021E000100010039
:10048000010001001F021F00010001000100010026
:1004900020022000010001000100010021022100D2
:1004A0000100010001000100220222000100000001
:1004B0000100010001000000010000000100010036
:1004C00001000000010000000100010023022300E0
:1004D00001000000010001002402240001000100CD
:1004E00001000100250225000100010001000100BA
:1004F0002D00260001000100010001002E00270050
:1005000001000100010001000100010001000100E3
:1005100000000100010001000100010000000100D5
:100520000100010001000100010001000100E000E4
:1005300001000100010001000100E20001000100D2
:10054000010001000100E3000100010001000100C1
:100550000100010001000000010001000100000095
:100560000100000001000100010000000100000086
:100570000100010001005000010000000100010025
:100580004E00510001000100010001004B0052002B
:10059000010001000100010001004F000100010005
:1005A0000100010001000100010001000100010043
:1005B0000100010001000100000001000100010034
:1005C00001000100000001002C05B55D01000100E3
:1005D000010001005205B65D510501000100200A2D
:1005E0000100B75D010001000100210A01000100C6
:1005F00001000100010001002C042C080100000092
:1006000001000100010000000100000001000100E4
:1006100001000000010000000100010001000100D4
:1006200001000000010001000100010001000100C3
:1006300001000100010001000100010001000100B2
:1006400001000100010001000100010001000100A2
:100650000100010001000100010001000100010092
:100660000000010001000100010001000000010084
:100670000100010001000100010001000100010072
:100680000100010001000100010001000100010062
:100690000100010001000100010001000100010052
:1006A0000100010001000000010001000100000044
:1006B0000100000001000100010000000100000035
:1006C000010001000100AC00010000000100010078
:1006D0000100AE0001000100010001000100AB00BB
:1006E00001000100010001000100AA000100010059
:1006F000010001000100A90001000100010001004A
:1007000001000100010001000000000101010101E0
:1007100001010101020202020202020202030303BA
:10072000030303030304040404040404050505058A
:10073000050606060606070707070708080808094A
:100740000909090A0A0A0B0B0B0C0C0C0D0D0D0EF6
:100750000E0E0F0F0F10101111111212131314148B
:10076000151516161717181819191A1A1B1B1C1D00
:100770001D1E1E1F20202122222324242526262759
:100780002829292A2B2C2D2D2E2F3031323233348B
:1007900035363738393A3B3C3D3E3F404142434491
:1007A00045464748494A4C4D4E4F50515354555673
:1007B00058595A5B5D5E5F616264656668696B6C1F
:1007C0006D6F7072737577787A7B7D7E808283859A
:1007D00087888A8C8E8F91939596989A9C9EA0A2DA
:1007E000A3A5A7A9ABADAFB1B3B5B7BABCBEC0C2E4
:1007F000C4C6C9CBCDCFD1D4D6D8DBDDDFE2E4E7A8
:10080000E9EBEEF0F3F5F8FAFDFF00443454007420
:10081000648400554565008575950036264600665A
:100820005676009686A600372747007767870038F8
:100830002848008878980039294900695979009931
:1008400089A9003A2A4A006A5A7A003B2B4B006B6E
:100850005B7B004C3C5C007C6C8C005D4D6D008DC6
:100860007D9D003E2E4E006E5E7E01443454017428
:1008700064840155456501857595013626460166F6
:100880005676019686A60137274701776787013894
:1008900028480188789801392949016959790199CD
:1008A00089A9013A2A4A016A5A7A013B2B4B016B0A
:1008B0005B7B014C3C5C017C6C8C015D4D6D018D62
:1008C0007D9D013E2E4E016E5E7E00000000000008
:1008D0000000000000000000000000000000000018
:1008E00000000000000000000000000000007E0F7B
:1008F00000D4FFFFFFC700000078000000000000E8
:1009000000002A2B2800000000000000000000006A
:10091000000000000029000000002C1E34202122CD
:1009200024342627252E362D3738271E1F20212236
:10093000232425263333362E37381F0405060708AF
:10094000090A0B0C0D0E0F1011121314151617189F
:10095000191A1B1C1D2F3130232D350405060708DD
:10096000090A0B0C0D0E0F1011121314151617187F
:10097000191A1B1C1D2F3130354C05010980A101AE
:10098000850319012AB700150126B70095017510D6
:100990008100C0050C0901A101850419012AA002EA
:1009A000150126A002950175108100C005010906F8
:1009B000A1018506050719E029E71500250195081D
:1009C000750181020507190029EF1500250195F031
:1009D0007501810205081901290595057501910226
:1009E000950175039101C005010906A101050719CB
:1009F000E029E7150025019508750181029501752B
:100A00000881010507190029FF150026FF0095063A
:100A100075088100050819012905950575019102E0
:100A2000950175039101C009023B00020100A0FA83
:100A30000904000001030101000921110100012244
:100A400040000705810308000109040100010300BB
:100A50000000092111010001226D00070582032019
:100A600000011201000200000008973276490100DF
:100A70000102000120034500720067006F0044007E
:100A80006F007800200045005A00200047006C00ED
:100A90006F007700000028035A0053004100200037
:100AA00054006500630068006E006F006C006F000A
:100AB0006700790020004C006100620073000000B4
:100AC0000403090411241FBECFEFDAE0DEBFCDBF5F
:100AD00025E0AAE4B2E001C01D92A73CB207E1F70D
:100AE00012E0A0E0B1E0EEE4F1E702C005900D9263
:100AF000AA34B107D9F70E94602E0C9469380C947F
:100B000000009091BD05937061F081110BC094605D
:100B10009093BD05109223018091BC058160809364
:100B2000BC0508958F3110F09867F2CF880F880FB9
:100B3000982BEECF9091BD05937059F08093BE0530
:100B40006093BF054093C0058091BC058160809390
:100B5000BC050895E8EDF0E080818E7F80831092DF
:100B6000E2001092DA001092E100A0EEB0E08C9169
:100B700081608C9380818F77808319BCA7EDB0E072
:100B80008C918E7F8C9380818F7E808310928905DB
:100B900008952091E4003091E50095E6A9012091A7
:100BA000EC00822F817020FF06C08091E80080FF5A
:100BB00006C080E008952091E80022FD1AC08091CF
:100BC000AE05882389F0853089F08091EB0085FDA2
:100BD0000FC02091E4003091E50042175307F9F26D
:100BE0009150E1F684E0089582E0089583E008954D
:100BF00081E00895EF92FF920F931F93CF937C01B2
:100C00008B010E94C905C82F811117C08091E8008F
:100C100085FD0BC08091E8008E778093E8000E94EC
:100C2000C905882399F3C82F08C0F70181917F0176
:100C30008093F1000150110949F78C2FCF911F913A
:100C40000F91FF90EF9008958091B00587FF13C03A
:100C50008091E80082FF06C08091E8008B77809346
:100C6000E80004C08091AE058111F2CF0895809113
:100C7000AE058823D9F38091E80080FFF8CF8091FA
:100C8000E8008E77ECCF982F9093E900242F762FF1
:100C900050E0891731F07091EC002091ED005091F7
:100CA000F00021FD07C09F5F973071F78093E90046
:100CB00081E008953091EB003E7F3093EB0030915E
:100CC000ED003D7F3093ED003091EB0031603093CB
:100CD000EB007093EC002093ED005093F000209116
:100CE000EE0027FDE0CF80E00895B0E0A0E0EBE764
:100CF000F6E00C948331C8EDD0E088818F7E888344
:100D0000E7EDF0E080818160808384E082BF81E054
:100D10008093890588818E7F888302EE10E0F80138
:100D200010821092DA0081EEC82ED12CF6011082CA
:100D300088818F77888388818068888388818F7D88
:100D4000888319BC1092AE051092AF051092AD05C4
:100D50001092AC0590EEE92EF12CF70180818B7F8B
:100D6000808388818160888342E060E080E00E9427
:100D70004306F60180818E7F8083F8018081816047
:100D80008083808188608083F70180818E7F80836B
:100D9000888180618883CDB7DEB7E8E00C949F310D
:100DA000FC018091B6059091B70586179707A0F0D2
:100DB0006115710529F49091E8009E779093E80001
:100DC00090E06115710551F4911108C08091E8001F
:100DD00082FF34C080E00895BC01F2CF8091AE055F
:100DE0008823C1F18530C1F18091E80083FD30C0D6
:100DF0008091E80082FDEACF8091E80080FFE1CF9A
:100E00008091F3002091F200382F6115710519F0DF
:100E10002830310558F091E02830310509F090E094
:100E20002091E8002E772093E800CBCF819180932A
:100E3000F100615071092F5F3F4FE7CF8091AE0500
:100E4000882341F0853041F08091E80083FFBECFD8
:100E500081E0089582E0089583E00895089508955B
:100E600080918B05089520917D0530917E0528178E
:100E7000390771F090937E0580937D05E0917B05A5
:100E8000F0917C05309721F00084F185E02D0995E3
:100E900008952091790530917A052817390771F066
:100EA00090937A0580937905E0917B05F0917C051C
:100EB000309721F00680F781E02D09950895E091A3
:100EC0007B05F0917C05309729F00190F081E02DB1
:100ED0000995089580E00895FA01811101C0FB0190
:100EE000099508958093C2058091BC058160809327
:100EF000BC050895EDEBF5E0248130E1231B08F4F7
:100F000020E024838091BC0581608093BC05089516
:100F1000EDEBF5E0248130E1230F08F42FEF24837B
:100F20008091BC0581608093BC050895EDEBF5E0F0
:100F3000438120E1421B08F440E08181628190E01E
:100F40000E949A050895EDEBF5E0438120E1420F00
:100F500008F44FEF8181628190E00E949A05089524
:100F6000EDEBF5E0628120E1621B08F460E0818135
:100F7000438190E00E949A050895EDEBF5E06281CF
:100F800020E1620F08F46FEF8181438190E00E94BD
:100F90009A050895EDEBF5E08181438162818850E7
:100FA000990B0E949A050895EDEBF5E0818190E0A0
:100FB0004381628108960E949A0508958091BD053B
:100FC00086958695815009F48EE10E9481050895E9
:100FD0008091BD05869586958F5F8F3108F081E001
:100FE0000E94810508958091BD05837011F41092CF
:100FF00023018091BD058C7F81608093BD0508959C
:10100000E42FF0E0EE0FFF1FE754FE4F9081921B9C
:1010100097FD9195292F38E1239F212D1124620FEF
:1010200008950F931F9310E0F801EE0FFF1FE75490
:10103000FE4F9081905797FD9195000F111FF80179
:10104000E654FE4F00810052110B2003F001219F56
:10105000F00D112408E310E0091B110997FD139509
:1010600040039001419F300D1124E20FF31F9F01B7
:10107000220F331F2E0F3F1F37FF02C021583F4F53
:10108000220F232F221F330B620F1F910F91089500
:101090000F931F93522F10E0F801EE0FFF1FE6543D
:1010A000FE4FA081A052BB0B9D015203F001539F44
:1010B000F00D1124000F111FD801A754BE4F0C9141
:1010C0000057110B40039001419F300D11242E0F4A
:1010D0003F1F37FF02C0215C3F4F96E035952795B3
:1010E0009A95E1F7620F1F910F9108950F931F9347
:1010F000522F10E0F801EE0FFF1FE654FE4FA081C3
:10110000A052BB0B9D015203F001539FF00D11241F
:10111000000F111FD801A754BE4F0C910057110B9F
:1011200040039001419F300D11242E0F3F1F37FFC8
:1011300002C021583F4F220F232F221F330B620F73
:101140001F910F910895EF920F93972F23E0029F25
:10115000B0011124759567956E0D792F0F91EF9061
:101160000895322F50E0FA01EE0FFF1FE654FE4FB4
:101170009081905297FD9195440F551FFA01E754C5
:10118000FE4F2081231B330B290F311D97FD3A950C
:10119000620F0895E42FF0E0EE0FFF1FE654FE4FBC
:1011A0006081621B0895E42FF0E0EE0FFF1FE7540B
:1011B000FE4F6081621B0895622F0895E42FF0E0D6
:1011C000EE0FFF1FE754FE4F408134EE439F412D49
:1011D0001124E82FF0E050E0445E5F4FDA01A21BDB
:1011E000B1099D01B7FF03C031952195310993E005
:1011F000220F331F9A95E1F7AF01421B530B9A015F
:1012000057FD20E0582F259F212D1124822F08956E
:10121000E42FF0E0EE0FFF1FE754FE4F408134EE65
:10122000439F412D1124E72FF0E050E0445E5F4FD3
:10123000DA01A21BB1099D01B7FF03C031952195C9
:10124000310993E0220F331F9A95E1F7AF01421B5A
:10125000530B9A0157FD20E0279F212D1124722F57
:1012600008950E94441208950E9406120895FC01F8
:101270009B01009729F480E077FF2BC080E8089558
:10128000AC0197FF04C044275527481B590BB901EF
:10129000640F751F37FD10C0241B350BC901A5E075
:1012A000880F991FAA95E1F70E94BC3180E2861B46
:1012B000F7FF0FC081950895CB0165E0880F991F56
:1012C0006A95E1F7BA01621B730B0E94BC3180E69C
:1012D000EECF0895EF920F93CF93DF93D72FC82FC0
:1012E000C9010E19BA010E943709602F681B7D2FB2
:1012F0008C2FDF91CF910F91EF9008950F93CF93A3
:10130000DF93D72FC82FC901BA010E943709682F70
:10131000600F7D2F8C2FDF91CF910F910895EF9269
:101320000F931F93CF93DF93D62FC72F182FC90189
:101330000E19010FBA010E943709081B202F219FA7
:10134000212D1124822F6D2F7C2FDF91CF911F91A2
:101350000F91EF900895EF920F931F93CF93DF9328
:10136000D62F172FC82FC9010E19070FBA010E94D7
:101370003709702F781B719F712D11246D2F8C2FC1
:10138000DF91CF911F910F91EF9008950F931F93CD
:10139000CF93DF93D62FC72F182FC901212F201BE2
:1013A000022FBA010E943709982F990F990F891BB4
:1013B000800F282F219F212D1124822F6D2F7C2F0C
:1013C000DF91CF911F910F9108950F931F93CF93AA
:1013D000DF93D62F172FC82FC901272F201B022FCD
:1013E000BA010E943709982F990F990F782F791B0E
:1013F000700F719F712D11246D2F8C2FDF91CF9164
:101400001F910F910895E82F86FDE0952E2F2F70E4
:1014100086FD2F5FE695E695E695E670F0E0E35AE7
:10142000FE4F9181929F902D212D112492959F70B6
:101430002295207F922B2081920F87FD919580E845
:10144000890F08950F931F93CF93DF938B01D82FAC
:10145000C42F822F0E94030AEC2FF0E0EE0FFF1F33
:10146000E754FE4F90819058890F87FD8195880F32
:10147000682F2CE0629F612D1124600F712F8D2F3A
:10148000DF91CF911F910F910895409118015091D4
:10149000190125E038E0429FC001439F900D529F03
:1014A000900D1124875E994C909319018093180137
:1014B000890F0895AC018230910508F408959FEFDB
:1014C000413E8EE1580740F49A0195E03695279504
:1014D0009A95E1F798E0920F61E0E62FE90FFF2778
:1014E000FF1F9F0135952795822F229FF001239F93
:1014F000F00DF00D11244E175F0738F49FEF920F97
:10150000961758F78FEF860F08952F3FE9F361E0A4
:10151000620FF6CF0F93CF93DF93D72FC82F47FDDE
:10152000419588E390E0841B910947FD9395889F3E
:10153000B001899F700D700D1124229FC001239F5F
:10154000900D900D1124860F971F0E945A0A982F14
:10155000990F890F682F600F7D2F8C2FDF91CF910E
:101560000F91089530E020E0869F212D969F200D59
:10157000311D1124C90108952091C10530E1230FC7
:1015800008F42FEF60E1822F90E00E94B20ABC01C4
:1015900088EB9BE00E94653190E080E00895AF9277
:1015A000BF92CF92DF92FF920F931F93CF93DF935F
:1015B000362F472FE82FF0E0E65FF84F71110FC08C
:1015C000E4918E2F2E2F6E2F722FDF91CF911F91CE
:1015D0000F91FF90DF90CF90BF90AF900895C72FED
:1015E000D0E02491F22E022F10E056E0659FC0015A
:1015F0001124EFEFF0E0BF010E946531832F90E0EE
:10160000880F991F35E5369FD001379FB00D112403
:101610008A1B9B0B982F990F980F6F01CC1ADD0A2C
:10162000C09ED001C19EB00DD09EB00D11248B2F55
:10163000499FA0011124452F55276F01C41AD50ACF
:10164000C09EA001C19E500DD09E500D11245F017F
:10165000A91AB108AC9E6001AD9ED00CBC9ED00C06
:101660001124CD2CDD24EC19FD09E09FE001E19F60
:10167000D00DF09FD00D1124ED2F62307105A1F037
:1016800050F46115710509F49ECF6130710581F048
:10169000EB2F852F98CF6430710569F080F06630AC
:1016A000710509F490CFF4CFE22F2B2F8D2F8BCF24
:1016B000E22F252F88CFEB2F822F2D2F84CF2B2F9A
:1016C0008F2DE52F80CFB0E0A0E0E9E6FBE00C94A1
:1016D00084318C01FC01E75EFD4F8081682349F174
:1016E000D090BF05D091C005C091BE05EC2EF12C65
:1016F0000E94450A282FC7018C549F4F68E671E06D
:101700000E94BC318E199F0997FD03969595879588
:101710009595879523706C2F289F600D11247D2D42
:101720008D2F0E94CF0A462F282F672FC8010E94B5
:101730003409CDB7DEB7E7E00C94A031B0E0A0E00B
:10174000E4EAFBE00C9484317C0180912001C82FF5
:10175000CC0FCC0FC80F15E01C0F012F113308F070
:1017600000E36091C1056695669521E0620F08F47B
:101770006FEF8091B8059091B9050E94B20AD82EFA
:10178000D0E0C01748F081E0103308F080E0CDB71A
:10179000DEB7E7E00C94A031FE01E75EFD4F8081EB
:1017A00090912101892391F06091BE057091BF0550
:1017B0008091C0052D2D4C2FF70109950E94CF0A6D
:1017C000462F282F672FCE010E9434092196D9CFAA
:1017D000B0E0A0E0EEEEFBE00C9480316C01809173
:1017E0002001C82FCC0FCC0FC80F15E01C0FB12E55
:1017F000113310F030E3B32E6091C1056695669504
:101800008091B8059091B9050E94B20AF82E80E443
:101810008F0D0E94030A90E8A92EA80E8F2D0E941A
:10182000030A20E8922E980ED0E0CB1548F081E014
:10183000103308F080E0CDB7DEB7EBE00C949C31BC
:10184000FE01E75EFD4F8081909121018923A1F087
:101850006091BE057091BF058091C005EF2C0C2FE3
:10186000292D4A2DF60109950E94CF0A462F282FCF
:10187000672FCE010E9434092196D7CFB0E0A0E0B7
:10188000E4E4FCE00C947E315C0180912001C82FDF
:10189000CC0FCC0FC80F15E01C0FF12E113310F038
:1018A00030E3F32E6091C10566958091B805909163
:1018B000B9050E94B20A782ED0E0CF1548F081E039
:1018C000103308F080E0CDB7DEB7EDE00C949A312C
:1018D000FE01E75EFD4F8081909121018923C9F1CE
:1018E000CE01880F991F8B599E4FFC01EC5AFF4F78
:1018F0002081422F4057550B6A018B5A9F4FFC01A4
:101900008081282F2052330B4901449F9001459F2D
:10191000300D300D1124889CC001899C900D900DD4
:101920001124820F931F0E945A0A082F6091BE054E
:101930007091BF058091C005E72C9401A601F501C7
:1019400009950E94CF0A462F282F672FCE010E94AB
:1019500034092196B2CFB0E0A0E0E1EBFCE00C94BA
:1019600083317C0180912001C82FCC0FCC0FC80F90
:1019700015E01C0FD12E113310F030E3D32E6091FF
:10198000C10566958091B8059091B9050E94B20A8B
:10199000C82ED0E0CD1548F081E0103308F080E08B
:1019A000CDB7DEB7E8E00C949F31FE01E75EFD4F56
:1019B000808190912101892311F1CE01880F991F17
:1019C0008B599E4FFC01EB5AFF4F20812052330B65
:1019D0008C5A9F4FFC0140814057550B6091BE05CA
:1019E0007091BF058091C0050C2DF70109950E94EB
:1019F000CF0A462F282F672FCE010E943409219647
:101A0000C9CF80E008959091840592FF06C0282FE9
:101A100028712830F9F4877F846093FF06C0282F4F
:101A200028712831F1F4877E84612091850520FF9B
:101A300006C0382F38713830D9F4877F816021FF94
:101A400006C0282F28712831D1F4877E816194FD4A
:101A5000877E0895282F24712430F9F68B7F8860C3
:101A6000DCCF282F2471243101F78B7E8861DDCFF4
:101A7000382F3171313019F78E7F8860E0CF282FF1
:101A80002171213121F78E7E8861E1CF972F7E3041
:101A9000A8F4663098F470E026E0929F600D711D06
:101AA0001124FB0194E5899FE00DF11D1124EE0F37
:101AB000FF1FEE53FC4F85919491089580E090E0D4
:101AC0000895CF93DF93EC0182389105B1F108F0CE
:101AD00040C08133910509F49DC048F589329105D4
:101AE00009F48DC08A9709F49CC0C11522E5D2077C
:101AF00008F0BDC0C11531E5D30708F024C1C83EC8
:101B0000D10508F0A3C0C13ED10588F5C83AD1057A
:101B100008F08EC0C53AD10508F0F6C0C130D10535
:101B200031F1209721F1C430D10508F545C0853346
:101B3000910509F45FC0C997C1F68091840583704F
:101B400009F036C18091850583FF11C0C9E2D0E05C
:101B50000EC0833E910599F170F4803E910501F12C
:101B6000823E910511F68091840582FD21C0CE014F
:101B7000DF91CF910895863E910561F1873E9105F1
:101B800071F1843E910509F0B0CF8091850581FF08
:101B9000EECF80918405C7EED0E084FD0DC0E7CF85
:101BA0008091840580FD33C09091850590FFDFCF43
:101BB000C3EED0E084FFDBCFD0E0C0E0D8CF80918F
:101BC000840582FDF2C09091850590FDF1C084FFEF
:101BD000CECFF2CF8091840583FDDDCFC8CF809139
:101BE000840583FDE8C09091850591FFF0CFC4EE98
:101BF000D0E0BDCF8091840585FFB9CFA7CF80917C
:101C0000840585FDDBC08091850583FFB0CFC9E3E6
:101C1000D0E0ADCF8091840586FFA9CFCAE2D0E0A5
:101C2000A6CF8091840586FFA2CFC1E3D0E09FCFED
:101C3000CF3BD10508F6C85AD0E0CC0FDD1FC15DFF
:101C4000DE4F0990D881C02DD46491CFC11540E5F5
:101C5000D40708F064C0C11580E4D80708F05CC060
:101C6000CE019A9581159F4108F481CFA5CFC1156A
:101C700036E5D30718F5C11545E5D40708F07CC053
:101C8000C11584E5D80708F072C09E012370332780
:101C90009C2F96959695C115D34508F459C0C1E07F
:101CA000D0E002C0CC0FDD1F2A95E2F730E2939F0F
:101CB000C0011124C82BD92BDA6859CFC1158AE588
:101CC000D80778F4C11529E5D20708F060C0C1151E
:101CD00038E5D30708F470CFDC2FCC27C06FD06A6B
:101CE00046CFCE0190568115904208F065CF8D2FDA
:101CF0008F710E94030D90E0982F882788279F718D
:101D00009C012C2BE90141C0C55AD0E0C45DDE4FD7
:101D1000C881D0E0D0642BCFDF70D06A28CFCE014D
:101D20008370992721E030E002C0220F331F8A958B
:101D3000E2F7C695C69580E2C89FE0011124C22B48
:101D4000D32BDD6814CFDC2FCC27C16FD06A0FCF27
:101D5000C1E0D0E002C0CC0FDD1F2A95E2F720E2FF
:101D6000929FC0011124C82BD92BDC6800CFDC2F37
:101D7000CC27C46FD06AFBCE8C2F0E94030DC82FD6
:101D8000D0E0DC2FCC27CC27DF71D062F0CE8C2FB7
:101D90008F700E94030D34E0D695C7953A95E1F710
:101DA000CF709C2FEC01D069E2CEC2EED0E0DFCE46
:101DB000C0EED0E0DCCEC6EED0E0D9CEC5E3D0E0B8
:101DC000D6CE8091E90281111092E9020895909196
:101DD000850592FF05C09091E90298138093E9026E
:101DE00008958095909153059823909353050895F5
:101DF00090911F019923D1F09091840597FF16C00F
:101E0000E82FE695E695E695EE31E0F4F0E0E45B48
:101E1000FD4F282F277081E090E001C0880F2A95A0
:101E2000EAF780959281892382830895EEE4F2E0B7
:101E30009191891303C0DF0111971C9292E0E43560
:101E4000F907B1F7089590911F019923C1F090917E
:101E5000840597FF14C0E82FE695E695E695EE31E8
:101E6000F8F4F0E0E45BFD4F877021E030E001C062
:101E7000220F8A95EAF78281822B82830895AEE44D
:101E8000B2E0EFEF90E02D91821751F0EF3F19F49F
:101E9000211101C0E92F9F5F9630A9F7EF3F09F4A8
:101EA00008950E2E000CFF0BE45BFD4FE6CF8091F2
:101EB000C70290919602981301C008958F5F8770B2
:101EC000FACFCF92DF92FF920F931F93CF93DF93BE
:101ED0006C010091F1038091EA02082BC7E0D0E089
:101EE00010E0FC2EC8010C2E02C0959587950A942F
:101EF000E2F780FD0CC02197A0F7F12C8F2DDF9128
:101F0000CF911F910F91FF90DF90CF900895B60170
:101F10008C2F0E94460D0E94610D019761F3EECF58
:101F2000CF93DF93EC010E94610FBE010E94460D2A
:101F30000E94610DDF91CF910895292F9E3078F591
:101F4000863068F590E036E0239F800D911D1124C6
:101F5000682F677023E0969587952A95E1F7FC0135
:101F6000EE0FFF1FE80FF91FE159FD4F50E040E071
:101F700080E0219130E0062E02C0369527950A9424
:101F8000E2F721703327042E01C0220F0A94EAF7EA
:101F9000822B4F5F5F4F4330510559F7089580E022
:101FA0000895292F9E3098F5863088F590E036E028
:101FB000239F800D911D1124282F277041E001C01F
:101FC000440F2A95EAF723E0969587952A95E1F73D
:101FD000FC01EE0FFF1FE80FF91FE159FD4F30E044
:101FE00020E070E05191DF011197CB01022E02C079
:101FF000969587950A94E2F78170819585278423C9
:1020000085278C932F5F3F4F2330310559F7089573
:10201000FC0183819481892B29F08081918189231E
:102020008F3F51F480E00895843FE1F717C0883E68
:10203000A8F0813FB9F712C0808191810E94900F72
:1020400092959F70963099F358F4925F9F709230FA
:1020500048F7803F19F040F7883E20F781E0089567
:102060009A5FF4CF982F92959F7011F0892F94E08A
:10207000282F2695269511F09E5F822F869509F0D0
:102080009F5F892F08959C013A9521153F4150F596
:10209000FC01EE27F170BC0166277270AC01442789
:1020A00054709C012227387094FF0EC080E1EF2B02
:1020B00009F480E0672B09F08062452B09F0806409
:1020C000232B89F08068089581E0EF2B09F480E0EC
:1020D000672B09F08260452B09F08460232B19F0EF
:1020E0008860089580E00895B0E0A0E0EAE7F0E1BC
:1020F0000C94803120E9289FE001299FD00D112404
:10210000C455DF4F10E000E0FE01649131967491F8
:1021100031968491962F972B982B89F420E040E0FC
:1021200060E0C8010E9434090F5F1F4F23960033FF
:10213000110551F7CDB7DEB7EBE00C949C310E944E
:10214000CF0A962EB72EA82E6091C00570E090E0C1
:1021500080E00E946E3720E030E04FE753E40E94B9
:10216000CD366B017C016A2D70E090E080E00E942A
:102170007037A70196010E94FC370E943F37A62EB8
:10218000692D70E090E080E00E947037A701960111
:102190000E94FC370E943F37962E6B2D70E090E036
:1021A00080E00E947037A70196010E94FC370E94D0
:1021B0003F372A2D492DB5CF27982F980895269877
:1021C0002E98089525982D98089556985E9808950C
:1021D000279A2F9A0895269A2E9A0895259A2D9A2D
:1021E0000895CF93DF93D82F0E943210C82F0E94FA
:1021F000E5100E94E2100E94DF100E94DC10C15026
:10220000C73040F4EC2FF0E0E559F74C0C94D03196
:102210000E94EE108D2FDF91CF9108950E94EE1055
:102220000E94EB10F7CF0E94EE100E94E810F2CF50
:102230000E94EE100E94EB10F8CF20982898219869
:10224000299822982A9823982B9852985A9853980C
:102250005B983E98469808958098889A8198899AC4
:1022600084988C9A85988D9A86988E9A87988F9A5A
:102270000895809386057093880560938705809103
:10228000AE05843001F582E08093E9008FEF9091F4
:10229000E800815095FD06C095ED9A95F1F7000094
:1022A0008111F5CF8091E80085FF0DC050E040E03E
:1022B00063E070E086E895E00E94FA058091E8000E
:1022C0008E778093E8000895BC0184E00E94391164
:1022D0000895BC0183E00E9439110895CF93DF93E4
:1022E000EC0180911F018823B1F18091840587FF63
:1022F00032C060E282E08093E9008FEF9091E800C5
:10230000815095FD06C095ED9A95F1F70000811179
:10231000F5CF8091E80085FF1BC080911F0170E020
:1023200050E040E0811104C050E040E068E070E01F
:10233000CE010E94FA058091E8008E778093E80034
:1023400080E2FE01ACE8B5E001900D928A95E1F7DC
:10235000DF91CF91089568E081E0CDCF0E94E51034
:102360000E94E2100E94DF100E94DC108FEF90E0CC
:10237000909389008093880090938B0080938A00CB
:1023800090938D0080938C000E94EE102FEF80E7D9
:1023900092E0215080409040E1F700C000000E9490
:1023A000EB102FEF80E792E0215080409040E1F762
:1023B00000C000000E94E8102FEF80E792E021505B
:1023C00080409040E1F700C000000E94E2102FEF33
:1023D00080E792E0215080409040E1F700C000008B
:1023E0000E94DF102FEF80E792E021508040904064
:1023F000E1F700C000000E94DC100E94E5100E947E
:10240000E2100E94DF100E94DC100895A4E0B0E00A
:10241000ECE0F2E10C948631F62E042F122F80337B
:10242000910570F5880F991F880F991FBC01665F91
:10243000774F44E050E0CE0101960E94323289810C
:102440008370EA81282F30E040E9849FC001112485
:10245000835F9B4FE80FF92FF11DB497F082EB815A
:10246000E80FF92FF11DB4970083EC81E80FF92FE5
:10247000F11DB4971083255F3B4F81E0F901808304
:102480002496E5E00C94A231FF920F931F93CF9313
:10249000DF93182F062FF42ED0E0C0E02F2D402F11
:1024A000612FCE010E9406122196C033D105B1F7EB
:1024B000CDB7DEB7E5E00C94A2310F931F93CF9315
:1024C000DF93082F000FEB0114E21093F703E8EFFE
:1024D000F3E0DE018D91819384E0E830F807D1F7D5
:1024E00024E630E041E150E067EF73E0802F0E9486
:1024F0004031105F6096143B41F7DF91CF911F91FF
:102500000F91089580910B04882329F06DE074E009
:1025100084E70E945D1210920B0480910C048823C2
:1025200029F06DE974E087E70E945D1210920C04B7
:102530000895E7EFF3E06083418324E630E042E072
:1025400050E0BF01880F0E9440310895EF92FF9242
:102550000F931F93CF93DF93E82E062F10E00F5AAF
:102560001A4FF8018081882381F0F2E16F9FE0012A
:102570001124C35DDA4FF12C49916F2D8E2D0E94ED
:102580009912F39482E1F812F7CFF8011082CDB7D7
:10259000DEB7E6E00C94A131CF93DF93C82F4BE078
:1025A0006DEF0E94991240E06AE08C2F0E94991210
:1025B0008FE39CE90197F1F700C0000040E060E084
:1025C0008C2F0E94991240E061E08C2F0E9499129A
:1025D00040E066E08C2F0E94991240E06DEF8C2F56
:1025E0000E949912D0E040E06D2F8C2F0E9499122A
:1025F000DF5FD231C1F740E06D2F8C2F0E9499121E
:10260000DF5FD432C1F740E06D2F8C2F0E9499120A
:10261000DF5FD43BC1F74BE06DEF8C2F0E94991226
:1026200041E06AE08C2F0E94991240E06DEF8C2F00
:102630000E949912DF91CF910895A4E0B0E0E3E207
:10264000F3E10C947D310E947D3084E70E94CC122E
:1026500087E70E94CC120AE018E052E1752E68E08C
:10266000C62ED12CEE24E394F12C6624639444E02E
:1026700050E0B801CE0101960E9432324A8150E00A
:10268000CA0184972B81622F6452770B4B012C81F6
:10269000E22FE452FF0B5F012981237030E0FC013F
:1026A00097FD379643E0F595E7954A95E1F7729ED9
:1026B000A001739E500D1124435D5A4FE40FF52F76
:1026C000F11DB6010E94BC31A70101C0440F8A95DB
:1026D000EAF78081842B8083F40197FC379693E09E
:1026E000F595E7959A95E1F7729EC001739E900D5E
:1026F0001124835D9A4FE80FF92FF11DC401B60133
:102700000E94BC31A70101C0440F8A95EAF780817D
:10271000842B8083F501B7FC379683E0F595E79528
:102720008A95E1F7729EC001739E900D1124835D1E
:102730009A4FE80FF92FF11DC501B6010E94BC3177
:10274000A70101C0440F8A95EAF78081842B80831A
:102750002F5A3A4FF90160820C5F1F4FF8E00A3C94
:102760001F0709F084CF60E084E70E94A61261E0B1
:1027700087E70E94A6122496EEE00C9499311F93ED
:10278000CF93DF93EC01FC01E75EFD4F808168236E
:10279000B1F00E942232182F0E9422328F77782FB8
:1027A00020E8720F08F47FEF612F8091C0050E942E
:1027B000CF0A462F282F672FCE010E943409DF91C0
:1027C000CF911F910895A3E0B0E0E9EEF3E10C94FE
:1027D0007C31182F80911B01811323C09091BD057E
:1027E000937020911A0130E081E09217130609F4EA
:1027F00080E08170809322018091C2059091210137
:10280000981739F08093210140E060E080E00E9459
:1028100031091F3160F4E12FF0E0EE58F74C0C94D1
:10282000D03181E0E6CF80912201811102C019826E
:102830002BC040E060E080E00E943109F8CF809139
:102840002001282F220F220F280F2983022F0B5F30
:10285000F02E013310F030E3F32E6091BE0570913D
:10286000BF058091C0050E94CF0AE62ED72EC82E44
:102870009981892F90E09B838A83FA81FF15E0F08C
:1028800021E02983003398F6809120018F5F8093A7
:102890002001398131110CC082E0809323018091A5
:1028A0002201811105C0111103C083E0809323012F
:1028B0002396EFE00C949831EA81FB81E75EFD4FAF
:1028C000808190912101892339F02C2D4E2D6D2D81
:1028D0008A819B810E943409EA81FB813196FB83C6
:1028E000EA83CBCF80912001382F330F330F380F7D
:1028F0003983032F0B5FF02E013310F020E3F22E0B
:10290000D090BF05E090C0058091BE058A83682FF6
:102910007D2D8E2D0E94CF0AC62EB72EA82E609137
:10292000C1059A81690F7D2D8E2D0E94CF0AE62E5A
:10293000D72E982EF981EF2FF0E0FB83EA833A81BE
:102940003F1518F081E089839DCFEA81FB81E75E26
:10295000FD4F908180912101892361F0292D4E2D19
:102960006D2D90FD03C02A2D4C2D6B2D8A819B81EE
:102970000E9434092A813B812F5F3F4F3B832A838A
:10298000DECF80912001982F990F990F980F99838E
:10299000092F0B5FE02E013310F090E3E92ED09069
:1029A000BF05C090C0052091C10580E4F82E3F2DE1
:1029B000329F312D1124F32E9981892F90E09B8332
:1029C0008A83FA81FE1508F05BCFEA81FB81E75E1E
:1029D000FD4F8081909121018923C9F0EA81FB811B
:1029E000EE0FFF1FE654FE4F808182958F7060913D
:1029F000BE058F9D600D11247D2D8C2D0E94CF0A68
:102A0000462F282F672F8A819B810E943409EA81F3
:102A1000FB813196FB83EA83D4CF80912001382F4C
:102A2000330F330F380F3983032F0B5FE02E013341
:102A300010F0A0E3EA2ED090BF05C090C005209111
:102A4000C105F0E4FF2E3F2D329F312D1124F32ECE
:102A50009981892F90E09B838A83FA81FE1508F083
:102A60000FCFEA81FB81E75EFD4F808190912101CC
:102A70008923E9F0EA81FB81EE0FFF1FE754FE4F47
:102A80006081F69EB0011124E5E075956795EA95A1
:102A9000E1F78091BE05680F7D2D8C2D0E94CF0A35
:102AA000462F282F672F8A819B810E943409EA8153
:102AB000FB813196FB83EA83D0CF80912001382FB0
:102AC000330F330F380F3983032F0B5FF02E013391
:102AD00010F060E3F62EE090BE058091BF058A837A
:102AE000D090C0056091C105669566956695809108
:102AF000B8059091B9050E94B20A0E94030A805855
:102B000087FD8195880F282F3D2D239F212D11248E
:102B1000822F6E2D7A810E94CF0AE62ED72EC82EE4
:102B20009981892F90E09B838A83FA81FF1508F0B1
:102B3000A7CEEA81FB81E75EFD4F80819091210164
:102B4000892339F02C2D4E2D6D2D8A819B810E9479
:102B50003409EA81FB813196FB83EA83E6CF88E082
:102B600099E00E949E0B07C08EED98E0FACF85EEAB
:102B700099E00E94AB0C898387CE86EC99E0F9CF6F
:102B80008BEA99E00E943E0CF6CF8FE899E0FACFED
:102B90008CED98E0E6CF83ED98E0E3CF8AEC98E007
:102BA000E0CF81EB98E0DDCF83EA98E0EBCF8AE8D5
:102BB0009AE0DFCF8EE799E0DCCF8AE699E0E2CFBA
:102BC00086E798E00E94E80BD6CF88E498E0FACF39
:102BD00081E198E0F7CF80912001382F330F330F38
:102BE000380F3983032F0B5F80912201811120C0A0
:102BF0006091C10520E1620F08F46FEF8091B80584
:102C00009091B9050E94B20A6AE070E00E946531B5
:102C1000892B59F40E94450A60E30E94B03160910B
:102C20002101892F90E00E94630B91E099832ACEC5
:102C3000802F013308F080E3F981EF2FF0E0FB8370
:102C4000EA83E82EF12C8A819B818E159F056CF713
:102C5000609121018A819B810E94630B2A813B81C3
:102C60002F5F3F4F3B832A83EECFE0912201E98320
:102C7000E1111EC06091C10520E1620F08F46FEF01
:102C80008091B8059091B9050E94B20A65E070E0A4
:102C90000E946531892B09F0CACD0E94223260E37F
:102CA00070E00E94BC31609121010E94BF13ECCD05
:102CB00080912001F82FFF0FFF0FF80FF9830F2FDE
:102CC0000B5F802F013308F080E33981232F30E040
:102CD0003B832A83E82EF12CEA81FB81EE15FF0568
:102CE0001CF0F1E0F983CECD609121018A819B81B6
:102CF0000E94BF138A819B8101969B838A83ECCFBC
:102D000080912001282F220F220F280F2983022FC4
:102D10000B5FF02E013310F050E3F52ED090BF057D
:102D2000E090C0053091BE053A836091C10566957B
:102D3000669566958091B8059091B9050E94B20A92
:102D40000E94030A805887FD8195880F682F2CE028
:102D5000629F612D11248A81680F7D2D8E2D0E9426
:102D6000CF0AE62ED72EC82EF981EF2FF0E0FB8395
:102D7000EA833A813F1508F0E5CDEA81FB81E75E01
:102D8000FD4F808190912101892339F02C2D4E2D0A
:102D90006D2D8A819B810E9434092A813B812F5F9E
:102DA0003F4F3B832A83E5CF82E29AE0DACE80E090
:102DB00098E0D7CE809120018F5F082F000F000F81
:102DC000080F4091B8055091B9056091BA0570910E
:102DD000BB058091270390912803A0912903B0910E
:102DE0002A0384179507A607B70708F07ACF0E9431
:102DF000450AF82E0E94450A90E3891BF0F7890FD7
:102E0000E82FF0E0FB83EA83E75EFD4F809121012C
:102E10009081892309F465CF20E040E060E0F1FC77
:102E200013C00E94450AF82E0E94450A782F769515
:102E30002FE7720F08F47FEF6F2D8091C0050E947D
:102E4000CF0A462F282F672F8A819B810E94340941
:102E50002091C10530E1230F08F42FEF60E1822FAC
:102E600090E00E94B20ABC0184EF91E00E946531BB
:102E70008091B8059091B905A091BA05B091BB05B4
:102E8000860F971FA11DB11D8093270390932803E0
:102E9000A0932903B0932A0324CF4091BB03509100
:102EA000BC036091BD037091BE038091B805909101
:102EB000B905A091BA05B091BB0584179507A6077F
:102EC000B70708F4B4CC80912201811126C080910B
:102ED0002001282F220F220F280F2983022F0B5F9A
:102EE000D02E013310F040E3D42E3981E32EF12CA3
:102EF000E3E03E9FC0011124855D9C4F9B838A8344
:102F0000ED1408F44CC0EBE2F3E088EB93E00033FF
:102F100008F065C021E02983B7CC40E060E080E0A4
:102F20000E9431093BE2E32E33E0F32E1B821A822A
:102F30000FE70E94450A81FF12C0F701108211823B
:102F400012822A813B812F5F3F4F3B832A8333E0EC
:102F5000E30EF11C8A819B81C09759F7B8CF0E947C
:102F6000450AB82E0E94450A8695782F700F08F4FE
:102F70007FEF8A819B81880F991F2A813B81820F75
:102F8000931FFC01E55DFC4F6F016B2D8091C00527
:102F90000E94CF0AF601608371838283D2CFF7014A
:102FA000E75EFD4F808190912101892341F0EA8104
:102FB000FB81228140816181C7010E9434092A81FD
:102FC0003B812D5F3F4F3B832A833FEFE31AF30A98
:102FD00097CF2381348145812193319341938E177B
:102FE0009F07B9F70E94450A81FF1FC01092B803DE
:102FF0001092B9031092BA030E94BC0AC090B8059F
:10300000D090B905E090BA05F090BB05DC01CB018A
:103010008C0D9D1DAE1DBF1D8093BB039093BC0303
:10302000A093BD03B093BE0302CC0E94450A8983DE
:103030000E94450A8695782F2FE7720F08F47FEFDC
:1030400069818091C0050E94CF0A6093B803709394
:10305000B9038093BA03D0CF80912201882329F04D
:1030600040E060E080E00E943109509020015394DC
:10307000852D880F880F580E4091B8055091B905DD
:103080006091BA057091BB058091E9039091EA03C4
:10309000A091EB03B091EC0384179507A607B7073F
:1030A00008F080C06091BE057091BF058091C00599
:1030B0000E94CF0A062F772E682E8FEBE82E83E032
:1030C000F82E85E691E09B838A83AA80BB80450128
:1030D000670192E001C091E09983F60121916F01AF
:1030E000F40181914F0190E0222309F462C0262D62
:1030F000402F672D0E943409F5018581262D402F30
:10310000672D90E00E943409F60180813197808319
:10311000F1E0AF1AB10829812130E9F6EA81FB819B
:10312000828190E0F7012281222309F44DC0262DEF
:10313000402F672D0E943409EA81FB818381262D6F
:10314000402F672D90E00E9434090E94450A837049
:1031500091E009F090E0F7019283F3E0EF0EF11CAB
:103160002A813B812A5F3F4F3B832A83295B314081
:1031700009F0ABCF0E94BC0AC090B805D090B90549
:10318000E090BA05F090BB05DC01CB018C0D9D1DD4
:10319000AE1DBF1D8093E9039093EA03A093EB0358
:1031A000B093EC03E1E0E983FFE2F51508F06CCBA6
:1031B0003ECB20E040E060E00E943409F5018581CB
:1031C00020E040E060E09DCF20E040E060E00E9431
:1031D0003409EA81FB81838120E040E060E0B2CFE6
:1031E0000F931F93CF938FB7F89440918005509120
:1031F000810560918205709183058FBF4093ED0337
:103200005093EE036093EF037093F0038091F60305
:10321000C0E0811108C08091BD05C82FC37019F0AE
:10322000C82FC695C695809123018130D1F088239F
:1032300051F0823009F475C0833009F47DC0CF911C
:103240001F910F910895109220014093B80550935B
:10325000B9056093BA057093BB0581E080932301A3
:10326000EECF8C2F0E94E313CC2349F39091F2030D
:10327000892F887093FDE3CF4091F10350E070E017
:1032800060E08A019B01F4E0369527951795079534
:10329000FA95D1F7011511052105310519F0B9018C
:1032A000A80184E08A019B01E2E0369527951795F5
:1032B0000795EA95D1F7011511052105310519F09A
:1032C0008E5FB901A8017695679557954795452B6F
:1032D000462B472B09F08F5F8230E9F068F4882392
:1032E00091F08130A9F08091C2058111A8CF40E012
:1032F00060E00E943109A3CF833081F0843099F7D8
:1033000084E090E002C090E080E00E94741097CFCB
:1033100081E090E0FACF82E090E0F7CF83E090E0A8
:10332000F4CFC0931B018091BD05837080931A0177
:103330000E94821283E092CF8091BC05882351F0D5
:1033400046E050E06CE170E08DEB95E00E9436368F
:103350001092BC054091B8055091B9056091BA052D
:103360007091BB052FB7F8948091800590918105ED
:10337000A0918205B09183052FBF841B950BA60BEE
:10338000B70B4A97A105B10508F459CF1092230154
:1033900056CFEDEBF5E085E3808380912401909199
:1033A0002501A091260181839283A3838CE38483EA
:1033B0008FEF858346E050E06CE170E0CF010E9422
:1033C00036361092BC050895CF9384E090E00E94B9
:1033D0002236C82F82E290E00E942236982F8C2F4E
:1033E000CF91089568EE7EEF90E080E00E94643611
:1033F00060E082E090E00E94463660E083E090E08A
:103400000E9446361092EA0260E084E090E00E945A
:10341000463664E082E290E00E94463660E085E055
:1034200090E00E94463660E086E090E00E944636DA
:103430006FEF87E090E00E94463640E050E0BA012E
:1034400088E090E00E94583660E08DE090E00E94B5
:10345000463640E050E0BA0188E190E00E945836DC
:1034600060E087E190E00E94463640E050E0BA011B
:103470008CE190E00E94583670E060E080E290E0DD
:103480000E94643640E050E0BA0188E190E00E947A
:1034900058361092F2031092F3031092F403109234
:1034A000F50384E080618093F2034091F203509130
:1034B000F3036091F4037091F5038FE090E00E94B4
:1034C000583640E050E0BA0183E190E00E9458365F
:1034D00008950E941D1390E080E00E943036883EDF
:1034E0009E4F21F00E94F2190E94C91946E050E057
:1034F0006CE170E08DEB95E00E9412361092BC05F5
:103500008091BD058C7F11F40E94C91908958091A6
:10351000530590915405892B80934C029091E902B8
:103520009923A1F0892B80934C0280911F0188235D
:10353000E1F18091840587FF38C08EE1EEE4F2E08E
:1035400090E08150A0F591110E94E10E40E250E020
:1035500069EC72E08CE492E00E946633892B21F1E1
:1035600080E2ECE4F2E0A9ECB2E001900D928A95E1
:10357000E1F7E0917B05F0917C053097A9F080910F
:103580001F01882359F08091840587FF07C080912F
:103590004C0280934D0286E080934C020280F381BE
:1035A000E02D8CE492E00995089586E0C7CF219143
:1035B000222339F29F5FC5CF80911E01877F8093C0
:1035C0001E01909154059D7F9093540584FF08C07F
:1035D0008F7E80931E0180915305826080935305F6
:1035E00080911E0185FF08C08F7D80931E01809110
:1035F00053058062809353050E94871A089590E0D6
:1036000080E00E94490790E080E00E94330710921A
:1036100054050E94871A08950E94F1108093F103C7
:103620000E94FF1A089521E030E001C0220F8A9520
:10363000EAF720958091F10382230E940C1B0895E4
:103640009091C802809589238093C802282F277003
:1036500091F4282F082E000C330B9217130659F003
:103660009091850592FF07C08595859585950E9467
:10367000131B1092C8020895CF93C0918505C2FB19
:10368000992790F9981791F080FBC2F9C0938505AE
:103690006091840584E090E00E9446366C2F82E2BF
:1036A00090E00E94463682E00E94201BCF91089550
:1036B00021E030E001C0220F8A95EAF78091F10302
:1036C000822B0E940C1B08958093EA020E94FF1A2D
:1036D0000895882341F08095909154058923809323
:1036E00054050E94871A0895882339F09091540553
:1036F000982B909354050E94871A0895882321F0EF
:103700000E94F10E0E94871A0895882339F0909143
:103710005305982B909353050E94871A0895882388
:1037200009F44DC0823879F40E945F0781FF47C0D9
:1037300089E30E94230F0E94871A89E30E94F80EF2
:103740000E94871A0895833859F40E945F0780FF0A
:1037500036C083E50E94230F0E94871A83E5EECFCF
:10376000843859F40E945F0782FF29C087E40E94D1
:10377000230F0E94871A87E4E1CF9CEF980F913ABC
:10378000E8F290E2980F983050F4877091E001C011
:10379000990F8A95EAF7892F0E94F10ED1CF9BE508
:1037A000980F933028F490E080E00E944907089534
:1037B000885A873120F490E080E00E943307089512
:1037C000CF93DF93EC010E948F1BCE010E94431028
:1037D0009E01205E31092830310510F0CD2B29F4EF
:1037E0000E947E1BDF91CF9108950E94691BFACF42
:1037F000CF93C82F8823C9F08238C9F40E945F078D
:1038000081FD13C089E30E94230F0E94871A2FEFC6
:1038100087EE93E0215080409040E1F700C0000027
:1038200089E30E94F80E0E94871ACF910895833889
:10383000A1F40E945F0780FDF8CF83E50E94230F6B
:103840000E94871A2FEF81EE94E021508040904033
:10385000E1F700C0000083E5E4CF8438A1F40E94C2
:103860005F0782FDE2CF87E40E94230F0E94871A40
:103870002FEF81EE94E0215080409040E1F700C0AE
:10388000000087E4CECF8CEF8C0F813A88F58091D1
:103890001F01882301F18091840587FF1CC0EC2F54
:1038A000E695E695E695F0E0E45BFD4F828190E0D9
:1038B0004C2F477021E030E002C0220F331F4A95A1
:1038C000E2F782239323892B79F08C2F0E94F80E44
:1038D0000E94871A09C0EEE4F2E08191C817A9F3AB
:1038E00022E0E435F207C9F78C2F0E94230F9BCF0B
:1038F00080E28C0F883068F4C77021E030E001C0AE
:10390000220FCA95EAF780915305822B80935305C5
:103910008ACFEBE5EC0FE33040F4F0E0E45DFE4FDE
:10392000808190E00E94490780CFC85AC73108F0D3
:103930007CCFEC2FF0E0EE0FFF1FE15DFE4F8081AA
:1039400091810E94330771CF1F93CF93DF93182F7C
:10395000D0E0C0E0893311F4C0E5D0E0812F0E94AF
:10396000F81B209739F4812F0E948F1BDF91CF9194
:103970001F9108958FE99FE00197F1F700C00000C3
:103980002197EFCFB0E0A0E0E8ECFCE10C948431AB
:10399000E82FF0E0E650F74FD490282F2695269593
:1039A000269530E0F901E651F74F0491877010E059
:1039B000082E02C0159507950A94E2F701701127A9
:1039C000F901E652F74FE490F12C082E02C0F5946D
:1039D000E7940A94E2F791E0E922FF24F901E65323
:1039E000F74FC491D0E002C0D595C7958A95E2F70C
:1039F000C170DD270115110519F081EE0E94F81B39
:103A0000E114F10419F086EE0E94F81B8D2D0E943E
:103A1000A41CE114F10419F086EE0E948F1B01151D
:103A2000110519F081EE0E948F1BCD2B19F08CE24D
:103A30000E94A41CCDB7DEB7E7E00C94A031FF9242
:103A40000F931F93CF93DF938C018AE0F82EF80138
:103A50008491882309F44BC0813009F044C0E80107
:103A60002196FE018491813049F42196FE018491D2
:103A70000E94A41C8E010F5F1F4FE9CF823039F4E2
:103A8000E8012296FE0184910E94F81BF3CF833057
:103A900039F4E8012296FE0184910E948F1BEACF3F
:103AA000843041F7E8012296FE01249190E080E005
:103AB000FE0131962053330B2A30310548F001972F
:103AC000C8F2EFE9FFE03197F1F700C00000F7CF4F
:103AD000F89EA001F99E500D1124C901840F951F75
:103AE0002491EF01E5CF0E94C21CE801C3CFCDB7FE
:103AF000DEB7E5E00C94A231CF93DF93EC010E9496
:103B000043109E01205E31092830310510F02097C6
:103B100041F40E94851B8C2F0E94F81BDF91CF91EE
:103B200008950E94741BF7CFB0E0A0E0EAE9FDE140
:103B30000C948431EC018B0180911E0182FF90C0B6
:103B4000E0907705F0907805EC16FD0619F02097C7
:103B500009F086C080911E018B7F80931E0181FD3C
:103B600078C08091750590917605A801481B590B86
:103B700081E020911C0130911D014217530708F488
:103B800080E08170D82E80911E01D0FA81F9809357
:103B90001E01E701DD27FE0184E0F695E7958A9591
:103BA000E1F7EE0FFF1FEB5AFA4F20813181A70199
:103BB0004F70552781E090E002C0880F991F4A9509
:103BC000E2F7DD2009F447C0822B932B9183808399
:103BD0008091530581FF08C080911E018061809310
:103BE0001E0182E00E94F10E8091530585FF08C0FE
:103BF00080911E01806280931E0180E20E94F10E7E
:103C0000DD2029F080915405826080935405C7011E
:103C10009056811520E2920728F0905E8115904120
:103C200008F0E701CE010E947C1D809177059091FC
:103C300078059C013056211540E2340720F0305EB3
:103C40002115304108F499270E94E01B0E94DC1ADC
:103C50001DC081E096CF8095909582239323B6CFA7
:103C6000CE0199279E013056211540E2340728F0F5
:103C7000305E2115304108F0CE010E94E01B80919A
:103C8000770590917805C817D90701F31093760549
:103C900000937505CDB7DEB7E7E00C94A031109224
:103CA000530580911F01EEE4F2E0882361F08091DA
:103CB000840587FF08C08EE1DF011D928A95E9F730
:103CC0000E94FF1A089586E0F7CFAAE2B0E0EBE683
:103CD000FEE10C94883180EB95E02091F100FC012D
:103CE0002193CF01F5E0883B9F07B9F78091B1059B
:103CF000833009F470C0B8F4813009F447C08230D1
:103D000009F4B1C08091E80083FF7EC28091B005C4
:103D10009091B1059A3008F077C2E92FF0E0EF56A4
:103D2000F74C0C94D0318A3009F48CC08B3009F4F4
:103D30006FC0893039F78091B005813219F78091D1
:103D4000B4059091B5050297E8F68091E800877F69
:103D50008093E8008091E80082FF38C09091F300E2
:103D60008091F200029731F48091F100813011F0DE
:103D7000863021F48091F10080938B058091E800DA
:103D80008B778093E8000E942406BCCF8091B00519
:103D9000813A09F0B7CF8091E800877F8093E800EF
:103DA0008091B4059091B505892B61F460E28CE8AF
:103DB00095E070E00E94D0068091E8008B778093B8
:103DC000E800A0CF60E090E080E0F3CF8091AE0506
:103DD0008111C0CF97CF8091B005813A09F092CF81
:103DE0008091B4059091B505892B09F08BCF809116
:103DF000E800877F8093E8008091E80080FFFCCF97
:103E000080911F018093F1008091E8008E77B9CFF7
:103E10008091B005813209F075CF8091B405909101
:103E2000B505892B09F06ECF8091E800877F8093DC
:103E3000E8000E9424068091B20580931F010E9431
:103E40004F1E60CF8091B005813209F05BCF809129
:103E5000E800877F8093E8000E9424068091B305E4
:103E600080938A054FCF8091B005813A09F04ACFFF
:103E70008091E800877F8093E8008091E80080FFD0
:103E8000FCCF80918A05BECF803899F0823809F046
:103E9000BBC18091B4058F70873008F0B5C18093A5
:103EA000E9008091EB0085FB882780F91092E900FA
:103EB00006C08091AC059091AD0591118260909102
:103EC000E800977F9093E8008093F1001092F10052
:103ED0008091E8008E7794C1882309F482C18230F2
:103EE00009F092C18091B205811185C18091B4051C
:103EF0008F702FEF280F263008F086C18093E900DD
:103F00002091EB0020FF77C1933031F48091EB00DA
:103F100080628093EB006FC19091EB009061909371
:103F2000EB0021E030E001C0220F8A95EAF72093F0
:103F3000EA001092EA008091EB008860EACF8111DC
:103F400063C11091B2051F778091E3008078812BC7
:103F50008093E3008091E800877F8093E8000E94CF
:103F600024068091E80080FFFCCF8091E300806808
:103F70008093E30082E0111183E08093AE0544C199
:103F80008058823008F040C18091B2059091B3050D
:103F90008C3D23E09207A1F583E08A838AE289833E
:103FA0004FB7F894DE01139620E03EE051E2E32F94
:103FB000F0E050935700E49120FF03C0E295EF70CA
:103FC0003F5FEF708E2F90E0EA30C0F0C7968D9380
:103FD0009D932F5F243159F74FBF8091E800877F71
:103FE0008093E8006AE270E0CE0101960E94D0065C
:103FF0008091E8008B778093E80006C1C096E7CFF8
:104000004091B4055091B505292F33272330310550
:1040100009F444C078F52130310509F46FC08BE311
:1040200090E0E7E2FAE02230310509F0EDC020919E
:10403000E800277F2093E8002091B6053091B7056E
:104040008217930708F49C0140E02115310509F01F
:1040500064C0411162C08091E80082FDC9CF8091A7
:10406000AE05882329F2853019F28091E80083FF9C
:10407000F2CFBECF21323105A9F12232310509F04C
:10408000C3C04115510509F443C04130510509F041
:10409000BBC08DE690E0EAE7F9E0C9CF992781300F
:1040A0009105C1F0009759F0029709F0ADC0E4E71F
:1040B000FAE0E4918E2F90E0E4E7FAE007C0E0EC4C
:1040C000FAE0E4918E2F90E0E0ECFAE0009709F43A
:1040D0009BC0ADCFE6E9FAE0E4918E2F90E0E6E9EF
:1040E000FAE0F4CF4115510571F04130510509F066
:1040F0008BC089E090E0E2E5FAE099CF82E190E0C0
:10410000E2E6FAE094CF89E090E0E9E3FAE08FCFCD
:1041100080E490E0E7EEF9E08ACF8091AE05882355
:1041200009F466CF853009F463CF8091E80083FD00
:104130005FCF8091E80082FD8ECF8091E80080FF04
:1041400084CF9091F3008091F2002115310519F090
:104150008830910550F041E0089709F040E08091E7
:10416000E8008E778093E80070CF44914093F1008F
:104170003196215031090196E8CF803809F044C0CA
:104180008091E800877F8093E8008091AF0580935D
:10419000F1009ECE811138C01091B2051230A0F509
:1041A0008091E800877F8093E8001093AF050E941C
:1041B0002406112311F084E005C08091E30087FDFF
:1041C000FACF81E08093AE0542E061EC81E00E948D
:1041D000430642E261EC82E00E9443068091AE0514
:1041E00013C08091B205813079F481E0933009F0F9
:1041F00080E08093AD051092E9008091E800877F10
:104200008093E8000E9424068091E80083FF0AC0A2
:104210008091E800877F8093E8008091EB008062C6
:104220008093EB00AA96E3E00C94A4310E944F1E09
:104230002FEF84E39CE0215080409040E1F700C0E4
:10424000000088E19AE00FB6F894A895809360008A
:104250000FBE90936000FFCF80E290E09093170133
:104260008093160180916C0281110EC00E947D30F6
:1042700081E080936C022FEF83ED90E3215080402A
:104280009040E1F700C0000064E670E080E40E9426
:1042900083309093170180931601892B09F04EC04B
:1042A00064E670E080E00E94EF3090931701809305
:1042B0001601892B09F042C064E670E080E00E949C
:1042C000EF309093170180931601892BB9F564E6BE
:1042D00070E08FE30E94EF309093170180931601F6
:1042E000892B61F50E94613164E670E080E40E94F0
:1042F00083309093170180931601892BF9F464E6BB
:1043000070E08CE00E94EF309093170180931601CB
:10431000892BA1F464E670E080E00E94EF30909376
:10432000170180931601892B49F464E670E08FE34E
:104330000E94EF3090931701809316010E94613123
:10434000809116010895CF93C82F873078F580911A
:10435000160190911701892B39F564E670E080E42D
:104360000E9483309093170180931601892BD1F41A
:1043700064E670E082E10E94EF3090931701809331
:104380001601892B79F481E090E001C0880FCA956D
:10439000EAF764E670E080950E94EF309093170191
:1043A000809316010E946131CF9108958A30B1F057
:1043B00038F4883069F0893071F0209A2898F4CF69
:1043C0008C3091F070F08D30C1F73E9A4698ECCF6A
:1043D000219A2998E9CF229A2A98E6CF239A2B98F6
:1043E000E3CF529A5A98E0CF539A5B98DDCFCF93A0
:1043F000873050F58091160190911701C0E0892B0C
:1044000071F464E670E081E40E94833090931701B8
:1044100080931601892B31F0C0E00E9461318C2F0E
:10442000CF91089584E690E00E941D3197FF05C06A
:104430009093170180931601EFCFC82FC09510926B
:10444000170110921601E9CFCFB18FB186958695ED
:104450008C73C3708C2BC82FC095E1CF1F920F9225
:104460000FB60F9211242F933F934F935F936F9347
:104470007F938F939F93AF93BF93CF93DF93EF93EC
:10448000FF93D091E900DF708091EC00C82FC170DC
:1044900080FDC0E81092E9008091F000877F809352
:1044A000F00078940E94651E1092E9008091F0005F
:1044B00088608093F000CD2BCF70C093E900FF910E
:1044C000EF91DF91CF91BF91AF919F918F917F91AC
:1044D0006F915F914F913F912F910F900FBE0F9071
:1044E0001F9018951F920F920FB60F9211242F93C1
:1044F0003F934F935F936F937F938F939F93AF936C
:10450000BF93EF93FF938091E10082FF09C08091F8
:10451000E20082FF05C08091E1008B7F8093E10083
:104520008091DA0080FF24C08091D80080FF20C0F5
:104530008091DA008E7F8093DA008091D90080FF2D
:104540009DC080E189BD82E189BD09B400FEFDCF37
:1045500081E08093AE0580918905811109C00E9498
:10456000AA050E9475068091E20084608093E200B3
:104570008091E10080FF17C08091E20080FF13C0AE
:104580008091E2008E7F8093E2008091E200806162
:104590008093E2008091D80080628093D80019BC9B
:1045A00085E08093AE058091E10084FF2BC080916F
:1045B000E20084FF27C080E189BD82E189BD89B521
:1045C000982F917080FFFBCF8091D8008F7D8093D2
:1045D000D8008091E1008F7E8093E1008091E2001D
:1045E0008F7E8093E2008091E20081608093E20000
:1045F0008091AF05882309F447C084E08093AE051D
:104600008091AE058091E10083FF27C08091E20098
:1046100083FF23C08091E100877F8093E10082E0E7
:104620008093AE051092AF058091E1008E7F80935C
:10463000E1008091E2008E7F8093E2008091E200B1
:1046400080618093E20042E060E080E00E944306E7
:104650008091F00088608093F000FF91EF91BF910E
:10466000AF919F918F917F916F915F914F913F910A
:104670002F910F900FBE0F901F90189519BC10929C
:10468000AE051092890574CF8091E30087FD93E019
:104690009093AE05B5CF78941F921FB61F92112448
:1046A0008F939F93AF93BF938091800590918105E5
:1046B000A0918205B09183050196A11DB11D809343
:1046C000800590938105A0938205B0938305BF91E7
:1046D000AF919F918F911F901FBE1F9018959C01C5
:1046E0004FB7F8948091800590918105A091820543
:1046F000B09183054FBF821B930B08952FB7F89499
:104700008091800590918105A0918205B0918305EB
:104710002FBF0895B0E0A0E0E0E9F3E20C9483310C
:104720008091160190911701892BA1F08091EB02E5
:104730008F5F8093EB0281110DC00E942C2190E0CD
:104740009093170180931601892B21F40E94AE11DA
:104750000E94691A03EF12E07801C0E0D0E087E020
:10476000C82ECD0E8D2F0E94A3218C2D0E94A32137
:104770008D2F0E94F7218F73F70191917F01D12C2A
:10478000891721F031978083DD24D3948C2D0E94EA
:10479000F7218F73F7019681891709F444C0868346
:1047A00081E08D29C82B0E941D11DF5FD730B9F63B
:1047B0001092F002D091EF02DD23F1F10E947E23EE
:1047C0002091ED023091EE02AC01421B530B9A0195
:1047D0009093EE028093ED024F3F510509F028F5CA
:1047E000452BE9F01092EF021092EC02E091F102F9
:1047F000F091F202AF01425F5F4F90E030E08191B3
:10480000882331F0DF011197281790F01C929D2F1B
:10481000E417F507A1F73093EF029093EC02C11172
:1048200019C0CD2F0BC080E0BCCF2FEF30E0DACF26
:10483000821B8C933D2FECCFC11106C08091EC02FE
:104840008823A1F1C11106C00E947E239093EE023D
:104850008093ED02A091F102B091F2022091EF025B
:10486000E3E0F3E090E04EE13191E80189918E01BF
:10487000381799F03C91311110C04C93EF012197FA
:104880008883E801219728818227292F30E0282B6F
:1048900091E0232B09F490E021E01196D3E0E1317F
:1048A000FD0711F79093F0022093EF028091F00240
:1048B000CDB7DEB7E8E00C949F31A8E0B0E0E3E6C6
:1048C000F4E20C947D317C01FC0183819481892B7D
:1048D00031F08081918189238F3F09F066C7289646
:1048E000EEE00C9499310E94610F182F682F898196
:1048F0009A810E94D10F69817A81812F0E94460D91
:104900008C01823BFDE59F0709F43EC0833B2DE50A
:10491000920709F47DC0833C3CE5930709F0A1C0F0
:10492000F70182818823F1F08091C2058F3F09F061
:104930008FC080E00E9472078091F2038F7E809387
:10494000F20340E060E080E00E9431094091F20310
:104950005091F3036091F4037091F5038FE090E0C0
:104960000E9458368091C802877009F4B8CFF701C9
:104970008281882309F4B3CF8091850582FFAFCF70
:1049800082E00E94201BABCFF7018281882399F13E
:104990008091F20391E0980F9770887F953008F42A
:1049A000892B8093F2038091F2038770FFEF8F9F32
:1049B000C001112495958795959587959927909392
:1049C00089008093880090938B0080938A00909355
:1049D0008D0080938C004091F2035091F30360911D
:1049E000F4037091F5038FE090E00E9458368091B7
:1049F000F1030E94F11080916D02823009F470C0C1
:104A000008F0E7C6813009F404C110926D0274C049
:104A1000F7018281882379F39091F203892F877FB0
:104A200093FF88608093F20383FF05C040E060E05D
:104A300080E00E9431094091F2035091F3036091AC
:104A4000F4037091F5038FE090E00E945836D3CFC5
:104A50008FEF0E9472078091F20380618093F203CE
:104A600075CF8B7F813E910509F452C0083BFDE56F
:104A70001F0709F6F7018281882309F4BCCF109142
:104A800053058091E902812B8272A9F482EE0E9483
:104A9000F81B80916D02811104C08BE893E00E94A5
:104AA0001F1D81EE0E94F81B8FE40E94F81B82E01C
:104AB00080936D0257CF80916D0281110CC01092CE
:104AC00053050E94E10E8CE793E00E941F1D109396
:104AD000530583E0EDCF81E50E94F81B84E0E8CF29
:104AE0008FE40E948F1B81EE0E948F1B82EE0E943A
:104AF0008F1B81E080936D02053BFDE51F0709F4E4
:104B0000A3C008F090C0043B3DE5130709F4AEC014
:104B10000E947E234C01F7018281882309F446C15B
:104B200080911E0182FF07C040E253E0B40190E093
:104B300080E00E94941D0931FCE51F0709F4CCC0F8
:104B400008F09BC007313CE5130709F4B5C00831F4
:104B50008CE5180709F4BAC0C80190568115F0E237
:104B60009F0728F0905E8115904108F02DC11092AA
:104B7000780510927705F7018281882309F431C600
:104B80000430FDE51F0708F0A9C10B3F2CE5120713
:104B900030F4C80182509C45449708F0AAC10E9495
:104BA000E41990938505809384050231ECE51E0796
:104BB00009F4A8C208F0F4C109302CE5120709F481
:104BC0007FC208F0BEC105308CE5180709F468C241
:104BD00008F0AAC10330ECE51E0709F459C208F039
:104BE0005BC280918405816002302CE5120709F4D4
:104BF000D4C1609184051091850584E090E00E9405
:104C00004636612F82E290E00E9446360E944F1E97
:104C1000A9CE0932110509F0F8CE8FE40E94A41C38
:104C200010926D029FCE063B8DE51807B9F0073B49
:104C30009DE5190709F06CCFF7018281882309F4FB
:104C400067CF82E993E007C0F7018281882309F4E6
:104C50005FCF82EB93E00E941F1D5ACFF701828144
:104C6000882309F455CF82EA93E0F5CFF7018281DA
:104C7000882309F477CE81E008C30B319CE519073E
:104C8000A9F068F080911E018E7F0C31FCE51F07B2
:104C900009F062CF80931E010E94DC1A5DCF9091D3
:104CA0001E01892F8E7F90FF8160F4CF80911E01BD
:104CB000816080931E0150CF80911C0190911D0155
:104CC000059690931D0180931C0146CF80911C0195
:104CD00090911D010597F5CF80911D018F938091D3
:104CE0001C018F9387E291E09F938F931F9288E03E
:104CF0008F93BF92AF920E9473330FB6F894DEBFCA
:104D00000FBECDBF65016AE0762EF6018081882353
:104D100009F422CF813009F046C09181828191301F
:104D200049F4F2E0CF0ED11C0E94A41CEFEFCE1A82
:104D3000DE0AEBCF923031F422E0C20ED11C0E9489
:104D4000F81BF4CF933031F432E0C30ED11C0E9433
:104D50008F1BECCF943021F08FEFC81AD80AE6CF22
:104D600092E0C90ED11C30E020E0A6014F5F5F4FFA
:104D70008053990B8A30910550F021503109B0F2DF
:104D80008FE99FE00197F1F700C00000F6CF729E17
:104D9000B001739E700D11249C01260F371FF60180
:104DA00081816A01E2CF0E94C21CC0CF80911E01A6
:104DB0008F7E013E110531F0053E1105C1F4809151
:104DC0001E018F7D80931E0180911E0180FFD3CE36
:104DD000F70182810B321105F9F0A8F498012450F3
:104DE000310924323105C0F08111C1CEC4CEC801D1
:104DF0009056811530E2930708F4BDCE905E811580
:104E0000904110F7B8CE0D32110570F3093311053A
:104E100018F00436110541F7882309F459C0809130
:104E2000E90290915305982B292F2D7F61F1109263
:104E3000780510927705F80144E0F695E7954A95D4
:104E4000E1F7EE0FFF1FEB5AFA4F98012F7033274F
:104E500081E090E002C0880F991F2A95E2F78095C3
:104E60009095208131818223932391838083C8018F
:104E70000E947C1D8091E9028D7F0E94E70E82E0F6
:104E80000E94201B6FCD26E0F701A0E2B3E0019065
:104E90000D922A95E1F710922203109224031092AA
:104EA000230320911E0191FB21F920931E018D7F88
:104EB0000E94E70E1093780500937705909276058F
:104EC0008092750580911E01846080931E01D7CF6A
:104ED000A701B401C8010E94941D44CD063A3DE5E6
:104EE000130709F45CCED0F402369DE5190709F4E6
:104EF00056CE06318CE5180709F017C2809153058C
:104F00008A7A91E009F490E090936E02811124C1B5
:104F100089E20E94230F0E94871A24CDC8018E5A6D
:104F20009D45039730F73BCE809184058062073022
:104F30003CE5130791F108F4BFC0809184058064BB
:104F40002CC00D309CE5190709F4C4C090F4809181
:104F500084058E7F0B30FCE51F07F9F080918405F6
:104F60008C600C302CE51207C0F0809184058D7F99
:104F700014C00F303CE5130709F4BCC008F4AEC000
:104F800000319CE5190709F4B9C0809184058F7B35
:104F90000131ECE51E0709F02CCE8093840529CE63
:104FA0000115FDE51F0709F4B7C0A8F50B3F3CE567
:104FB000130709F479C0C0F404319CE5190709F41A
:104FC000B9C008F4A5C00531FCE51F0709F011CEF2
:104FD0008091840582FB992790F921E0922790FB2C
:104FE00082F990FB83F9D9CF0D3F2CE5120709F424
:104FF00079C008F45DC00E3F8CE5180709F476C04F
:105000008091850583600F3F9CE5190709F0F1CD7C
:1050100080938505EECD0236EDE51E0709F495C0B7
:1050200090F402302DE5120709F48DC008F478C021
:1050300060E003308DE5180709F0DBCD8EE090E0ED
:105040000E944636D6CD0E3A9DE51907E9F060F488
:1050500090918405892F8E7F90FF8160063AFDE54F
:105060001F0709F49ACFC5CD0F3A2DE5120771F14C
:10507000003B3DE5130709F0BCCD90918505892FD4
:10508000877F93FF8860C4CF809185058860C0CFFB
:1050900080918405826081CF8091840584607DCF7A
:1050A00080918405886079CF809185058160B0CF3B
:1050B000809185058260ACCF8091840580616DCF41
:1050C0000E944F1E80918405806867CF809185057E
:1050D000877F9ECF809184058B7F5FCF80918405F1
:1050E000877F5BCF809185058E7F92CF80918505EC
:1050F0008D7F8ECF809184058F7E4FCF80918405E8
:105100008F7D4BCF0E944F1E809184058F7745CFB6
:1051100080918405837F41CF809185058C7F78CFF6
:1051200080918505982F909591708E7F892B90FBAB
:1051300081F96ECF0E944F1E90918405892F97FBB5
:1051400087F980582ACF61E079CF90918405892F23
:105150008F7E94FF806121CF85E3DBCE85E34BC357
:105160008091530582720B3C9CE5190709F4CCC071
:1051700008F073C0063CFCE51F0709F4B1C008F055
:1051800054C0043C3CE5130709F4A0C008F0A3C0D8
:10519000033CECE51E0709F48BC0F7018281008116
:1051A0001181882309F42AC1C8010E94610FD82EF9
:1051B000682FC8010E94D10FB8018D2D0E94460DA5
:1051C0000E94610D8C01682EF701D2809580929427
:1051D0003FE093228091C8028770C1F08D2CDD20C2
:1051E000B1F0812F807F803421F080E2800F883001
:1051F00068F08091850582FF09C082E00E94201B33
:105200008091C8028770882483948111812C712E2B
:1052100072942FE07222FBE0F71508F454C1E72DD9
:10522000F0E0E556F74C0C94D031083CFCE51F0744
:1052300009F460C008F459C0093C3CE5130709F4BF
:105240005EC046E957E063EA77E00A3C9CE519074F
:1052500009F0A3CF0E946C0785CB003DECE51E074B
:1052600009F461C0A8F40D3C2CE5120709F456C0FE
:1052700008F44FC00E3C8CE5180709F4FCCC85E01F
:105280000F3C9CE5190709F088CF0E9481056ACB85
:10529000073DECE51E0730F482E1023DFCE51F0707
:1052A000A0F360CB0E352DE5120709F45BCB75CF6B
:1052B0008091BD0591E089278093BD05109223015F
:1052C0008091BC0581608093BC054CCB4EED57E0CE
:1052D00068EE77E0BFCF48EE57E06EED77E0BACFEB
:1052E0004AEC57E064ED77E0B5CF44ED57E06AEC67
:1052F00077E0B0CF40EB57E06DEB77E0ABCF4DEB15
:1053000057E060EB77E0A6CF43EA57E066E977E045
:10531000A1CF4AE757E068E877E09CCF48E857E03C
:105320006AE777E097CF8DE0B0CF0B353DE5130707
:1053300009F460C058F401159CE51907A1F00F3D70
:105340001C4509F02ACF0E94F2190BC00D35FDE56E
:105350001F0709F445C008F44FC0083A1D4509F07D
:105360001CCF0E9416210E944F1E8FEF94E3ECE0A9
:1053700081509040E040E1F700C00000F89481E0E7
:105380008093E00080E28093D8001092C9008FE102
:105390009EE40197F1F700C000001DBA109268006A
:1053A0001CBC10BE1FBA10927A0010926E001092B0
:1053B0006F0010927100109272001092C90010924A
:1053C000BC0014B817B81AB81DB810BA1092BC00B7
:1053D00015B818B81BB81EB811BA0C94003FC2CA51
:1053E0008091850582FB882780F991E089270E94BA
:1053F0003C1BD3CE81E0FBCF80E0F9CFC8010E94F7
:105400009D0FD82ED9CE212F2F70C22E107F19F0CC
:10541000C29490EFC922DD20B9F0CC2069F080E27F
:10542000800F883010F0611009C080915305C82AA0
:10543000C09253050E94871A802F43C08091540563
:10544000C82AC0925405F6CF802F0E948F1BCC2013
:10545000D1F1005E083010F0611004C08C2D0E9464
:10546000F10E06C0C09480915405C822C092540524
:105470000E94871A28C0312F3F70C32E107F103230
:1054800019F0C29480EFC822662059F081E06816B6
:1054900009F46AC0DD2009F472C0992009F46AC0D9
:1054A000CBCF8091850582FD42C0DD20D1F1CC209B
:1054B00039F080915305C82AC09253050E94871A7B
:1054C00080E00E94F81BE72DE850FF0B349710F4A2
:1054D0000E945F078820A9F08091C80280FD11C05A
:1054E000F70112828595859585950E94581BC70105
:1054F0000E945D248091C8028595859585950E94BE
:10550000131B85E0F701D50101900D928A95E1F713
:1055100009811A81C8010E949D0FB8010E94460DA1
:10552000DEC980E00E948F1BCC2069F297CFDD207E
:1055300071F08091E9028C29911003C00E94851BB3
:10554000C2CF91E09912FACF0E94E70EBCCF911022
:1055500006C00E94E10E8C2D0E947E1BB4CFE1E0BC
:105560009E1609F4B0CFF5CFDD2031F0F1E0F9154A
:1055700008F4A9CF8C2DE2CF9110A5CFECCF9920C4
:1055800051F329E362120AC13FEF87EE93E03150F5
:1055900080409040E1F700C0000000C1812F869557
:1055A0008695837061F0813009F08DCFC8019370CA
:1055B000D11002C090E080E00E94330784CFC80180
:1055C0009370D11002C090E080E00E9449077BCF29
:1055D000812F837089F5D11076CF402F4295469563
:1055E0004770440F440F802F8F70042E01C0880F26
:1055F0000A94EAF7202F207104FF07C02FE030E063
:1056000001C0220F4A95EAF720951695169513705A
:10561000123069F050F43091EA02113029F0822BF7
:1056200083230E94641B4FCF832B822BFACF282B1E
:105630008091EA028227F5CF8695DD2011F0812F37
:105640008170882309F43FCF402F429546954770DB
:10565000440F440F802F8F70042E01C0880F0A94CE
:10566000EAF7202F207104FF07C02FE030E001C0CF
:10567000220F4A95EAF72095169516951370123069
:1056800069F050F43091F103113029F0822B83231B
:105690000E940C1B18CF832B822BFACF282B8091D2
:1056A000F1038227F5CF1F70DD2029F0812F0E94A2
:1056B000581B802F43CF802F0E947E1B812F0E947A
:1056C000131B01CF802FE2EF6E1699F1E61570F0F3
:1056D000F0EF6F16D1F021EF621691F0DD2009F4A2
:1056E00058C09110A9CE812F8F7127C033EF631658
:1056F00039F194EF6912F2CF8091850582FD2BC0BC
:10570000812F8F71DD20D9F218C0DD2069F0911052
:10571000DACE1F7181E090E001C0880F1A95EAF798
:105720009091F1038927B4CFE1E0E91508F4CBCEDD
:10573000F0CF812F8F71D110C2CF0E94581BC3CEE2
:1057400080E0DD2009F4A4CF1F7181E001C0880F43
:105750001A95EAF79DCFDD2089F01F71812F0E94F5
:10576000581B8091850582FF07C0F8E01F9FC0018C
:10577000112483608093C802812FDFCF81E00E94D3
:10578000201B21E0291508F09ECE82E00E94201BFC
:105790009ACE992039F0893309F4F6CE802F0E94F1
:1057A0008F1B91CE812F8F718ACF85E09E012F5F55
:1057B0003F4F5901D90101900D928A95E1F7F70108
:1057C000228189819A8121118EC80E949D0F182FF4
:1057D00092C8833009F48DC9843009F016C981E577
:1057E00086C90631FCE51F0709F0BACC80916E022C
:1057F0008111B4CC89E20E94F80E8DCB1F93CF9318
:10580000DF9380919502807F09F049C080919202D8
:10581000882309F444C08091C702D0919602609118
:10582000900270919102A0919302B0919402C62FC0
:10583000C72316E0D81799F190E0109711F0CF3FE9
:1058400019F401968770F6CF189F9001199F300DBB
:105850001124F901E956FD4F41814713F2CF4081F0
:105860004613EFCF42814111ECCF438154814A1B53
:105870005B0B483C510528F7809195028F70806141
:1058800080939502F901E456FD4F80818F7080610D
:10589000808380E992E00E945D240E94570FDF918F
:1058A000CF911F910895A1E1B0E0E9E5FCE20C94ED
:1058B00081318C0185E0F801DE011D9601900D9289
:1058C0008A95E1F7F801E28080E9A82E82E0B82EFF
:1058D00060919302709194026115710509F426C1DB
:1058E0009091900240919102892F84238F3F09F477
:1058F0001DC120813181C380D480F0909202F601D5
:10590000E61BF70BFF2009F4DCC080919502582FAD
:10591000507FE83CF10508F09FC051116BC0FE2C90
:10592000431314C0921312C0E11010C08F70806135
:1059300080939502C5010E945D2480919502F80133
:1059400085838F2D6196EAE00C949D31C114D104BA
:1059500029F0822F83238F3F09F003C180E0F82FC5
:10596000F170DF2E80FF3CC08091C702409196020B
:1059700056E0841315C02D873E878D859E850E9435
:10598000900F292F22952F702230F0F0243018F537
:105990009F70F1F0F8019581907FD1F4D12C1EC059
:1059A00090E0589FF001599FF00D1124E956FD4FEA
:1059B0006181361306C06081261303C06281E6123E
:1059C0000FC001968770D5CF9F7011F0882331F3F7
:1059D000805E883018F3C8010E945D24FD2CB1CF91
:1059E000EE2009F4AECF80919502816080939502FC
:1059F000F12CA7CF431306C0921304C0F801EE2088
:105A000009F479C0C8010E940810882309F1EE202A
:105A1000F9F080919502803270F0209190023091DF
:105A2000910238872F831986DB86CA868C87CE0140
:105A300007960E945D2486E0F801A0E9B2E001909B
:105A40000D928A95E1F70E94FE2BFF24F39479CF03
:105A5000C8010E945D24F9CF51110AC080E992E08B
:105A60000E945D2486E0F50111928A95E9F7C0CF86
:105A700043130FC092130DC0E1100BC0F8018583D2
:105A8000C8010E945D2486E0F50111928A95E9F72C
:105A900058CFC8010E9408108823D1F2EE20C1F22D
:105AA00080919502803238F22091900230919102DB
:105AB0003A8329831B82DD82CC828E83CE010196BC
:105AC000B8CFE83CF105F8F6FE2CEE2009F24313BE
:105AD0001FC092131DC08091950280FD10C0982FA9
