:100000000C94EB060C9408070C9408070C94080752
:100010000C9408070C9408070C9408070C94080724
:100020000C9408070C9408070C94B41E0C944523F8
:100030000C942C2E0C9408070C9408070C940807B9
:100040000C9408070C9408070C9408070C940807F4
:100050000C9408070C948D1F0C9408070C94080747
:100060000C9408070C9408070C9408070C940807D4
:100070000C9408070C9408070C9408070C940807C4
:100080000C9408070C9408070C9408070C940807B4
:100090000C9408070C9408070C9408070C940807A4
:1000A0000C9408070C9408070C94080705010980B4
:1000B000A101850319012AB700150126B700950192
:1000C00075108100C0050C0901A101850419012AE0
:1000D000A002150126A002950175108100C005013E
:1000E0000906A1018506050719E029E71500250184
:1000F0009508750181020507190029EF15002501F2
:1001000095F075018102050819012905950575010C
:100110009102950175039101C005010902A1010930
:1001200001A1000509190129081500250195087587
:100130000181020501093009311581257F9502757C
:1001400008810609381581257F9501750881060506
:100150000C0A38021581257F950175088106C0C0FB
:1001600005010906A101050719E029E71500250188
:10017000950875018102950175088101050719002F
:1001800029FF150026FF009506750881000508194E
:10019000012905950575019102950175039101C02D
:1001A00000000000000000000000000000000097B8
:1001B000CEFF97CEFF97CEFF97CEFF97CEFF97CE7D
:1001C000FF97CEFF97CEFF97CEFF97CEFF97CEFF3C
:1001D00097CEFF97CEFF97CEFF97CEFF97CEFF002B
:1001E000000000000000000000000000000000000F
:1001F0000000000000000097CEFF97CEFF97CEFFD3
:1002000097CEFF97CEFF97CEFF97CEFF97CEFF9763
:10021000CEFF97CEFF97CEFF97CEFF97CEFF97CE1C
:10022000FF97CEFF97CEFF00000000000000000007
:100230000000000000000000000000000000009727
:10024000CEFF97CEFF97CEFF97CEFF97CEFF97CEEC
:10025000FF97CEFF97CEFF97CEFF97CEFF0000000F
:1002600097CEFF97CEFF97CEFF97CEFF97CEFF009A
:10027000000000000000000000000000000000007E
:10028000000000000000000000000000000000006E
:1002900000000000000000000097CEFF97CEFF97FF
:1002A000CEFF97CEFF00000000000000000000001D
:1002B000000000000000000000000000000000003E
:1002C0000000000000000000000000000000009797
:1002D000CEFF97CEFF97CEFF97CEFF97CEFF0000C1
:1002E0000097CEFF97CEFF97CEFF97CEFF0000007E
:1002F00097CEFF97CEFF97CEFF97CEFF97CEFF000A
:1003000000000000000000000000000000000000ED
:1003100000000000000000000000000000000000DD
:1003200000000000000000000097CEFF97CEFF976E
:10033000CEFF97CEFF00000000000000000000008C
:1003400000000000000000000000000000000000AD
:100350000000000000000000000000000000009706
:10036000CEFF97CEFF97CEFF97CEFF97CEFF000030
:100370000097CEFF97CEFF97CEFF97CEFF000000ED
:1003800000000000000000000000000097CEFF0009
:10039000000000000000000000000000000000005D
:1003A000000000000000000000000000000000004D
:1003B00000000000000000000097CEFF97CEFF97DE
:1003C000CEFF97CEFF0000000000000000000000FC
:1003D0000000000097CEFF000000000000000000B9
:1003E000000000000000000000000000000000000D
:1003F00000000000000000000000000000000000FD
:100400000097CEFF97CEFF97CEFF97CEFF0000005C
:1004100000000000000000000000000000000000DC
:1004200000000000000000000000000000000000CC
:100430000000000000000097CEFF97CEFF97CEFF90
:1004400097CEFF97CEFF97CEFF97CEFF97CEFF9721
:10045000CEFF97CEFF97CEFF97CEFF97CEFF97CEDA
:10046000FF97CEFF97CEFF000000000000000000C5
:10047000000000000000000000000000000000007C
:10048000000000000000000000000000000000006C
:100490000097CEFF97CEFF97CEFF97CEFF000000CC
:1004A000000000000000000000000000000000004C
:1004B000000000000000000000000000000000003C
:1004C0000000000000000097CEFF97CEFF97CEFF00
:1004D00097CEFF97CEFF97CEFF97CEFF97CEFF9791
:1004E000CEFF97CEFF97CEFF97CEFF97CEFF97CE4A
:1004F000FF97CEFF97CEFF00000000000000000035
:1005000000000000000000000000000000000000EB
:1005100000000000000000000000000000000000DB
:100520000097CEFF97CEFF97CEFF97CEFF0000003B
:1005300000000000000000000000000097CEFF0057
:1005400000000000000000000000000000000000AB
:100550000000000000000097CEFF97CEFF97CEFF6F
:1005600097CEFF97CEFF97CEFF97CEFF97CEFF9700
:10057000CEFF97CEFF97CEFF97CEFF97CEFF97CEB9
:10058000FF97CEFF00000000000000000000000008
:10059000000000000000000000000000000000005B
:1005A000000000000000000000000000000000004B
:1005B000000000000000000000000000000000003B
:1005C000000000000000000000000000000000002B
:1005D000000000000000000000000097CEFF97CE52
:1005E000FF00000000000097CEFF000000000000A8
:1005F00097CEFF97CEFF97CEFF00000097CEFF97D4
:10060000CEFF97CEFF97CEFF00000000000097CEF0
:10061000FF00000097CEFF00000000000000000077
:1006200001000100010001000100000001001400B0
:1006300004611D000100075101001A0016641B002F
:1006400001002B42010008000768060001002A4152
:10065000010015000962190029430100010017007B
:100660000A00050000000100010001000000010077
:1006700000000100010001000000010000002C0941
:1006800001001C000B001100000001000100180017
:100690000D6210004C46010001000C000E6836008F
:1006A00001002C44010012000F643774010028453A
:1006B0000100130034613800010001000100010055
:1006C0000100010001000000010001000100010023
:1006D0000100000001000000E00000000100010036
:1006E00001000000E2000000010000000100000025
:1006F000E30000000100010001000000E100000033
:1007000000000100010000000000000000000100E6
:1007100001000100000001000000010001000100D3
:10072000000001000000010001001D0A500000004F
:10073000000001000100190851004A0001000100F9
:100740000100060852004E0001002A0001001B08AB
:100750004F004B000100280001001D08AD5D4D0059
:100760000100010001000100010001000100000082
:100770000100010001000100010000000100000073
:10078000E00000000100010001000000E2000000A4
:100790000100010001000000E30000000100000072
:1007A00001000000E1000000000001000100000065
:1007B0000000000000000100010001000000010035
:1007C0000000010001000100000001000000010024
:1007D00001001D0A000000000000010001001908CE
:1007E000EF00FB00F300010001000608EE00FA0034
:1007F0000100F10001001B08ED00F9000100F2000A
:1008000001001D08F000FC000100010001000100D2
:1008100001000100010000000100010001000100D1
:100820000100000001000000E300000001000100E1
:1008300001000000E20000000100000001000000D3
:10084000E00000000100000001000000E1000000E5
:100850000100010001000000000000000000010094
:100860000100010000000100000001000100010082
:1008700000000100000001000100C35C0000000056
:10088000000001000100C45CAC000000A8000100F1
:100890000100C65CAA0000000100AE000100C85CB7
:1008A000A90000000100AD000100CA5CAB0000001F
:1008B0000100010001000100010001000100000031
:1008C00001000100010001000100000001002F00F3
:1008D00033003500010001000100240021001E004A
:1008E00001002D000100250022001F00010027004B
:1008F0000100260023002000370001000100300025
:100900002E00310000000100010001000000010084
:1009100000000100010001000000010000000100D2
:1009200001000000000000000000010001000000C4
:10093000E10000000000010001000000E0000000F4
:100940000100010001000000E200000001000000C1
:1009500001000000E30000000100010001000100AF
:100960000100010001000000010001000100010080
:100970000100000001002F023302350201000100D6
:100980000100240221021E0201002D0201002502A5
:1009900022021F0201002702010026022302200278
:1009A00026020100010030022E0231020000010087
:1009B0000100010000000100000001000100010031
:1009C0000000010000000100010000000000000024
:1009D0000000010001000000E10000000000010033
:1009E00001000000E0000000010000000100000024
:1009F000E20000000100010001000000E30000002F
:100A000001000100010001000100010001000000DF
:100A1000010001000100010001000000010045008B
:100A20004400430001000100010040003D003A0085
:100A300001002B00010041003E003B0001002C00A2
:100A4000010042003F003C000000010001004600A0
:100A50004700480000000100010001000000010003
:100A60000000010001000100000001000000010081
:100A70000100000000000000000001000100000073
:100A8000E10000000100010001000000E0000000A2
:100A90000100000001000000E20000000100000071
:100AA00001000000E300000001000100010001005E
:100AB000010001000100000001000100010001002F
:100AC0000100000001002C0550050000010001009C
:100AD000010052052805510501000000200A000010
:100AE0004F05000001000000210A00000000000086
:100AF0000100010001002C042C08190A000001006B
:100B000001000100000001000000010001000100DF
:100B100000000100000001000100000000000000D2
:100B200000000100010000000000000000000100C2
:100B300001000000000000000100000001000000B2
:100B400000000000010000000100000000000000A3
:100B5000010001000100010001000100010000008E
:100B60000001010101010101010102020202020270
:100B70000202020303030303030303040404040443
:100B8000040405050505050606060606070707070A
:100B90000708080808090909090A0A0A0B0B0B0CBF
:100BA0000C0C0D0D0D0E0E0E0F0F0F10101111115C
:100BB00012121313141415151616171718181919DD
:100BC0001A1A1B1B1C1D1D1E1E1F20202122222342
:100BD0002424252626272829292A2B2C2D2D2E2F83
:100BE00030313232333435363738393A3B3C3D3E9A
:100BF0003F404142434445464748494A4C4D4E4F89
:100C000050515354555658595A5B5D5E5F6162644A
:100C1000656668696B6C6D6F7072737577787A7BD7
:100C20007D7E8082838587888A8C8E8F919395962E
:100C3000989A9C9EA0A2A3A5A7A9ABADAFB1B3B54E
:100C4000B7BABCBEC0C2C4C6C9CBCDCFD1D4D6D82A
:100C5000DBDDDFE2E4E7E9EBEEF0F3F5F8FAFDFFC8
:100C600000443454007464840055456500857595CE
:100C70000036264600665676009686A60037274739
:100C80000077678700382848008878980039294914
:100C900000695979009989A9003A2A4A006A5A7A62
:100CA000003B2B4B006B5B7B004C3C5C007C6C8CFA
:100CB000005D4D6D008D7D9D003E2E4E006E5E7E72
:100CC000014434540174648401554565018575956A
:100CD0000136264601665676019686A601372747D5
:100CE00001776787013828480188789801392949B0
:100CF00001695979019989A9013A2A4A016A5A7AFE
:100D0000013B2B4B016B5B7B014C3C5C017C6C8C95
:100D1000015D4D6D018D7D9D013E2E4E016E5E7E0D
:100D200009025400030100A0FA09040000010301B4
:100D3000010009211101000122400007058103087B
:100D40000001090401000103010200092111010051
:100D5000012247000705820308000109040200017F
:100D600003000000092111010001226D0007058325
:100D700003200001120100020000000897327649AA
:100D800001000102000120034500720067006F00AE
:100D900044006F007800200045005A002000470002
:100DA0006C006F007700000028035A0053004100D8
:100DB000200054006500630068006E006F006C0046
:100DC0006F006700790020004C0061006200730032
:100DD00000000403090411241FBECFEFDAE0DEBFD8
:100DE000CDBF25E0A0E5B2E001C01D92AE3BB20749
:100DF000E1F712E0A0E0B1E0E2ECFDE602C0059010
:100E00000D92A035B107D9F70E94532E0C949B3652
:100E10000C9400009091B405937061F081110BC0A7
:100E200094609093B405109220018091B305816085
:100E30008093B30508958F3110F09867F2CF880F33
:100E4000880F982BEECF9091B405937059F0809352
:100E5000B5056093B6054093B7058091B3058160F1
:100E60008093B3050895E8EDF0E080818E7F808364
:100E70001092E2001092DA001092E100A0EEB0E0D1
:100E80008C9181608C9380818F77808319BCA7EDD2
:100E9000B0E08C918E7F8C9380818F7E80831092C6
:100EA000800508952091E4003091E50095E6A901C0
:100EB0002091EC00822F817020FF06C08091E80015
:100EC00080FF06C080E008952091E80022FD1AC04E
:100ED0008091A505882389F0853089F08091EB0009
:100EE00085FD0FC02091E4003091E50042175307C3
:100EF000F9F29150E1F684E0089582E0089583E0EC
:100F0000089581E00895EF92FF920F931F93CF937E
:100F10007C018B010E945207C82F811117C080915C
:100F2000E80085FD0BC08091E8008E778093E80093
:100F30000E945207882399F3C82F08C0F7018191B6
:100F40007F018093F1000150110949F78C2FCF9157
:100F50001F910F91FF90EF9008958091A70587FF53
:100F600013C08091E80082FF06C08091E8008B7773
:100F70008093E80004C08091A5058111F2CF089507
:100F80008091A5058823D9F38091E80080FFF8CFF0
:100F90008091E8008E77ECCF982F9093E900242F72
:100FA000762F50E0891731F07091EC002091ED0020
:100FB0005091F00021FD07C09F5F973071F780933B
:100FC000E90081E008953091EB003E7F3093EB0023
:100FD0003091ED003D7F3093ED003091EB003160BA
:100FE0003093EB007093EC002093ED005093F000F1
:100FF0002091EE0027FDE0CF80E00895B0E0A0E072
:10100000E4E0F8E00C945432C8EDD0E088818F7EA3
:101010008883E7EDF0E080818160808384E082BF97
:1010200081E08093800588818E7F888302EE10E0C6
:10103000F80110821092DA0081EEC82ED12CF60150
:10104000108288818F7788838881806888838881EF
:101050008F7D888319BC1092A5051092A605109269
:10106000A4051092A30590EEE92EF12CF7018081E2
:101070008B7F808388818160888342E060E080E0AC
:101080000E94CC07F60180818E7F8083F8018081E9
:1010900081608083808188608083F70180818E7F7A
:1010A0008083888180618883CDB7DEB7E8E00C94C7
:1010B0007032FC018091AD059091AE0586179707BF
:1010C000A0F06115710529F49091E8009E77909346
:1010D000E80090E06115710551F4911108C080910C
:1010E000E80082FF34C080E00895BC01F2CF809117
:1010F000A5058823C1F18530C1F18091E80083FD09
:1011000030C08091E80082FDEACF8091E80080FF46
:10111000E1CF8091F3002091F200382F6115710525
:1011200019F02830310558F091E02830310509F0E8
:1011300090E02091E8002E772093E800CBCF8191BA
:101140008093F100615071092F5F3F4FE7CF80918D
:10115000A505882341F0853041F08091E80083FFA8
:10116000BECF81E0089582E0089583E00895089558
:101170008091820508952091740530917505281796
:10118000390771F09093750580937405E0917205AD
:10119000F0917305309721F00084F185E02D0995D9
:1011A000089520917005309171052817390771F065
:1011B0009093710580937005E0917205F09173052D
:1011C000309721F00680F781E02D09950895E09190
:1011D0007205F0917305309729F00190F081E02DB0
:1011E0000995089580E00895FA01811101C0FB017D
:1011F000099508958093B9058091B3058160809326
:10120000B3050895E4EBF5E0248130E1231B08F4F5
:1012100020E024838091B30581608093B305089515
:10122000E4EBF5E0248130E1230F08F42FEF248371
:101230008091B30581608093B3050895E4EBF5E0F8
:10124000438120E1421B08F440E08181628190E00B
:101250000E9423070895E4EBF5E0438120E1420F6B
:1012600008F44FEF8181628190E00E942307089586
:10127000E4EBF5E0628120E1621B08F460E081812B
:10128000438190E00E9423070895E4EBF5E062813A
:1012900020E1620F08F46FEF8181438190E00E94AA
:1012A00023070895E4EBF5E0818143816281885052
:1012B000990B0E9423070895E4EBF5E0818190E00B
:1012C0004381628108960E94230708958091B405A6
:1012D00086958695815009F48EE10E940A0708954B
:1012E0008091B405869586958F5F8F3108F081E0F7
:1012F0000E940A0708958091B405837011F410923A
:1013000020018091B4058C7F81608093B40508959D
:10131000E42FF0E0EE0FFF1FE054FE4F9081921B90
:1013200097FD9195292F38E1239F212D1124620FDC
:1013300008950F931F9310E0F801EE0FFF1FE05484
:10134000FE4F9081905797FD9195000F111FF80166
:10135000EF53FE4F00810052110B2003F001219F3B
:10136000F00D112408E310E0091B110997FD1395F6
:1013700040039001419F300D1124E20FF31F9F01A4
:10138000220F331F2E0F3F1F37FF02C021583F4F40
:10139000220F232F221F330B620F1F910F910895ED
:1013A0000F931F93522F10E0F801EE0FFF1FEF5322
:1013B000FE4FA081A052BB0B9D015203F001539F31
:1013C000F00D1124000F111FD801A054BE4F0C9135
:1013D0000057110B40039001419F300D11242E0F37
:1013E0003F1F37FF02C0215C3F4F96E035952795A0
:1013F0009A95E1F7620F1F910F9108950F931F9334
:10140000522F10E0F801EE0FFF1FEF53FE4FA081A7
:10141000A052BB0B9D015203F001539FF00D11240C
:10142000000F111FD801A054BE4F0C910057110B93
:1014300040039001419F300D11242E0F3F1F37FFB5
:1014400002C021583F4F220F232F221F330B620F60
:101450001F910F910895EF920F93972F23E0029F12
:10146000B0011124759567956E0D792F0F91EF904E
:101470000895322F50E0FA01EE0FFF1FEF53FE4F99
:101480009081905297FD9195440F551FFA01E054B9
:10149000FE4F2081231B330B290F311D97FD3A95F9
:1014A000620F0895E42FF0E0EE0FFF1FEF53FE4FA1
:1014B0006081621B0895E42FF0E0EE0FFF1FE054FF
:1014C000FE4F6081621B0895622F0895E42FF0E0C3
:1014D000EE0FFF1FE054FE4F408134EE439F412D3D
:1014E0001124E82FF0E050E0445E5F4FDA01A21BC8
:1014F000B1099D01B7FF03C031952195310993E0F2
:10150000220F331F9A95E1F7AF01421B530B9A014B
:1015100057FD20E0582F259F212D1124822F08955B
:10152000E42FF0E0EE0FFF1FE054FE4F408134EE59
:10153000439F412D1124E72FF0E050E0445E5F4FC0
:10154000DA01A21BB1099D01B7FF03C031952195B6
:10155000310993E0220F331F9A95E1F7AF01421B47
:10156000530B9A0157FD20E0279F212D1124722F44
:1015700008950E94EB1408950E94AD140895FC0193
:101580009B01009729F480E077FF2BC080E8089545
:10159000AC0197FF04C044275527481B590BB901DC
:1015A000640F751F37FD10C0241B350BC901A5E062
:1015B000880F991FAA95E1F70E948D3280E2861B61
:1015C000F7FF0FC081950895CB0165E0880F991F43
:1015D0006A95E1F7BA01621B730B0E948D3280E6B7
:1015E000EECF0895EF920F93CF93DF93D72FC82FAD
:1015F000C9010E19BA010E94BF0A602F681B7D2F16
:101600008C2FDF91CF910F91EF9008950F93CF938F
:10161000DF93D72FC82FC901BA010E94BF0A682FD4
:10162000600F7D2F8C2FDF91CF910F910895EF9256
:101630000F931F93CF93DF93D62FC72F182FC90176
:101640000E19010FBA010E94BF0A081B202F219F0B
:10165000212D1124822F6D2F7C2FDF91CF911F918F
:101660000F91EF900895EF920F931F93CF93DF9315
:10167000D62F172FC82FC9010E19070FBA010E94C4
:10168000BF0A702F781B719F712D11246D2F8C2F25
:10169000DF91CF911F910F91EF9008950F931F93BA
:1016A000CF93DF93D62FC72F182FC901212F201BCF
:1016B000022FBA010E94BF0A982F990F990F891B18
:1016C000800F282F219F212D1124822F6D2F7C2FF9
:1016D000DF91CF911F910F9108950F931F93CF9397
:1016E000DF93D62F172FC82FC901272F201B022FBA
:1016F000BA010E94BF0A982F990F990F782F791B72
:10170000700F719F712D11246D2F8C2FDF91CF9150
:101710001F910F910895E82F86FDE0952E2F2F70D1
:1017200086FD2F5FE695E695E695E670F0E0EB5ACC
:10173000FE4F9181929F902D212D112492959F70A3
:101740002295207F922B2081920F87FD919580E832
:10175000890F08950F931F93CF93DF938B01D82F99
:10176000C42F822F0E948B0BEC2FF0E0EE0FFF1F97
:10177000E054FE4F90819058890F87FD8195880F26
:10178000682F2CE0629F612D1124600F712F8D2F27
:10179000DF91CF911F910F910895409118015091C1
:1017A000190125E038E0429FC001439F900D529FF0
:1017B000900D1124875E994C909319018093180124
:1017C000890F0895AC018230910508F408959FEFC8
:1017D000413E8EE1580740F49A0195E036952795F1
:1017E0009A95E1F798E0920F61E0E62FE90FFF2765
:1017F000FF1F9F0135952795822F229FF001239F80
:10180000F00DF00D11244E175F0738F49FEF920F83
:10181000961758F78FEF860F08952F3FE9F361E091
:10182000620FF6CF0F93CF93DF93D72FC82F47FDCB
:10183000419588E390E0841B910947FD9395889F2B
:10184000B001899F700D700D1124229FC001239F4C
:10185000900D900D1124860F971F0E94E20B982F78
:10186000990F890F682F600F7D2F8C2FDF91CF91FB
:101870000F91089530E020E0869F212D969F200D46
:10188000311D1124C90108952091B80530E1230FBD
:1018900008F42FEF60E1822F90E00E943A0CBC0127
:1018A00088EB9BE00E94363290E080E00895AF9292
:1018B000BF92CF92DF92FF920F931F93CF93DF934C
:1018C000362F472FE82FF0E0E05AF44F71110FC088
:1018D000E4918E2F2E2F6E2F722FDF91CF911F91BB
:1018E0000F91FF90DF90CF90BF90AF900895C72FDA
:1018F000D0E02491F22E022F10E056E0659FC00147
:101900001124EFEFF0E0BF010E943632832F90E008
:10191000880F991F35E5369FD001379FB00D1124F0
:101920008A1B9B0B982F990F980F6F01CC1ADD0A19
:10193000C09ED001C19EB00DD09EB00D11248B2F42
:10194000499FA0011124452F55276F01C41AD50ABC
:10195000C09EA001C19E500DD09E500D11245F016C
:10196000A91AB108AC9E6001AD9ED00CBC9ED00CF3
:101970001124CD2CDD24EC19FD09E09FE001E19F4D
:10198000D00DF09FD00D1124ED2F62307105A1F024
:1019900050F46115710509F49ECF6130710581F035
:1019A000EB2F852F98CF6430710569F080F0663099
:1019B000710509F490CFF4CFE22F2B2F8D2F8BCF11
:1019C000E22F252F88CFEB2F822F2D2F84CF2B2F87
:1019D0008F2DE52F80CFB0E0A0E0E1EFFCE00C948C
:1019E00055328C01FC01E05EFD4F8081682349F196
:1019F000D090B605D091B705C091B505EC2EF12C6D
:101A00000E94CD0B282FC7018C549F4F68E671E0D0
:101A10000E948D328E199F0997FD039695958795A3
:101A20009595879523706C2F289F600D11247D2D2F
:101A30008D2F0E94570C462F282F672FC8010E9418
:101A4000BC0ACDB7DEB7E7E00C947132B0E0A0E09D
:101A5000ECE2FDE00C9455327C0180911D01C82F11
:101A6000CC0FCC0FC80F15E01C0F012F113308F05D
:101A700000E36091B8056695669521E0620F08F471
:101A80006FEF8091AF059091B0050E943A0CD82E6F
:101A9000D0E0C01748F081E0103308F080E0CDB707
:101AA000DEB7E7E00C947132FE01E05EFD4F80810D
:101AB00090911E01892391F06091B5057091B60552
:101AC0008091B7052D2D4C2FF70109950E94570CD9
:101AD000462F282F672FCE010E94BC0A2196D9CF0E
:101AE000B0E0A0E0E6E7FDE00C9451326C0180919B
:101AF0001D01C82FCC0FCC0FC80F15E01C0FB12E45
:101B0000113310F030E3B32E6091B80566956695F9
:101B10008091AF059091B0050E943A0CF82E80E4B8
:101B20008F0D0E948B0B90E8A92EA80E8F2D0E947E
:101B30008B0B20E8922E980ED0E0CB1548F081E078
:101B4000103308F080E0CDB7DEB7EBE00C946D32D7
:101B5000FE01E05EFD4F808190911E018923A1F07E
:101B60006091B5057091B6058091B705EF2C0C2FEB
:101B7000292D4A2DF60109950E94570C462F282F32
:101B8000672FCE010E94BC0A2196D7CFB0E0A0E01B
:101B9000ECECFDE00C944F325C0180911D01C82FEC
:101BA000CC0FCC0FC80F15E01C0FF12E113310F025
:101BB00030E3F32E6091B80566958091AF05909162
:101BC000B0050E943A0C782ED0E0CF1548F081E0A5
:101BD000103308F080E0CDB7DEB7EDE00C946B3247
:101BE000FE01E05EFD4F808190911E018923C9F1C5
:101BF000CE01880F991F84599E4FFC01EC5AFF4F6C
:101C00002081422F4057550B6A018B5A9F4FFC0190
:101C10008081282F2052330B4901449F9001459F1A
:101C2000300D300D1124889CC001899C900D900DC1
:101C30001124820F931F0E94E20B082F6091B505BB
:101C40007091B6058091B705E72C9401A601F501C6
:101C500009950E94570C462F282F672FCE010E940E
:101C6000BC0A2196B2CFB0E0A0E0E9E3FEE00C941C
:101C700054327C0180911D01C82FCC0FCC0FC80FAE
:101C800015E01C0FD12E113310F030E3D32E6091EC
:101C9000B80566958091AF059091B0050E943A0C09
:101CA000C82ED0E0CD1548F081E0103308F080E078
:101CB000CDB7DEB7E8E00C947032FE01E05EFD4F78
:101CC000808190911E01892311F1CE01880F991F07
:101CD00084599E4FFC01EB5AFF4F20812052330B59
:101CE0008C5A9F4FFC0140814057550B6091B505C0
:101CF0007091B6058091B7050C2DF70109950E94EA
:101D0000570C462F282F672FCE010E94BC0A219620
:101D1000C9CF40913D038D3E59F480913E0387FF2A
:101D20000DC010923E0341110BC01092360308C043
:101D30008E3E81F480913E0318169CF3442381F07B
:101D400080913F0390914003892B09F05AC0109273
:101D5000350308958F3E49F447FFF0CF10923D03BD
:101D600080913E038111ECCFE0CF803F19F414162F
:101D7000ACF3E4CF90913F03893F29F41916F4F6B0
:101D800010923F03DBCF8A3F19F497FFD7CFF8CFEC
:101D9000909140038B3F29F497FFD0CF10924003DE
:101DA000CDCF8C3F19F41916CCF3C8CF9FE0980F14
:101DB000983090F4815F990B21E030E0B90102C0C6
:101DC000660F771F8A95E2F7CB01809590913C03CF
:101DD000892380933C03B2CF8D3F31F48091370348
:101DE0008E7F80933703AACF8E3F21F480913703F3
:101DF0008D7FF7CF8F3F09F0A1CF809137038B7F85
:101E0000F0CF08958091370380FD1AC081FD14C082
:101E100082FD14C080913503882391F08C3370F4D7
:101E200027E0829FC00111246CE370E00E948D3294
:101E3000862F672B29F0089583E0089587E00895A1
:101E400081E008958091370380FD16C081FD16C0A2
:101E500082FD18C080913603882391F08C3390F472
:101E600028E3829FC00111246CE370E00E948D3250
:101E7000862F672B49F008958EE008958CE1089530
:101E800088E0089588E3089581E008958D3E31F457
:101E90000E94220F819580933E0308958E3E19F48F
:101EA0000E94220FF8CF8F3E31F40E94220F8195BD
:101EB00080933D030895803F19F40E94220FF8CFCC
:101EC000893F29F40E94020F80933F0308958A3FBF
:101ED00021F40E94020F8195F7CF8B3F31F40E94CD
:101EE000020F81958093400308958C3F19F40E945E
:101EF000020FF8CF9FE0980F983070F4815F990B34
:101F000021E030E001C0220F8A95EAF780913C037E
:101F1000822B80933C0308958D3F31F480913703E9
:101F200081608093370308958E3F21F480913703B9
:101F30008260F7CF8F3FB9F7809137038460F1CF8C
:101F400080E0089590917B0592FF06C0282F2871AC
:101F50002830F9F4877F846093FF06C0282F28710A
:101F60002831F1F4877E846120917C0520FF06C032
:101F7000382F38713830D9F4877F816021FF06C04F
:101F8000282F28712831D1F4877E816194FD877EC6
:101F90000895282F24712430F9F68B7F8860DCCFD8
:101FA000282F2471243101F78B7E8861DDCF382FF3
:101FB0003171313019F78E7F8860E0CF282F217181
:101FC000213121F78E7E8861E1CF972F7E30A8F4F2
:101FD000663098F470E026E0929F600D711D112428
:101FE000FB0194E5899FE00DF11D1124EE0FFF1F09
:101FF000E05EF94F85919491089580E090E0089516
:10200000CF93DF93EC0182389105B1F108F040C025
:102010008133910509F49DC048F58932910509F491
:102020008DC08A9709F49CC0C11521E5D20708F03C
:10203000C3C0C11530E5D30708F01EC1C83ED105A5
:1020400008F0A3C0C03ED10588F5C83AD10508F014
:102050008EC0C53AD10508F007C1C130D10531F1B4
:10206000209721F1C430D10508F545C0853391058D
:1020700009F45FC0C997C1F680917B05837009F0B0
:1020800043C180917C0583FF11C0C9E2D0E00EC03E
:10209000833E910599F170F4803E910501F1823EF5
:1020A000910511F680917B0582FD21C0CE01DF9163
:1020B000CF910895863E910561F1873E910571F1BA
:1020C000843E910509F0B0CF80917C0581FFEECF71
:1020D00080917B05C7EED0E084FD0DC0E7CF8091F5
:1020E0007B0580FD33C090917C0590FFDFCFC3EE70
:1020F000D0E084FFDBCFD0E0C0E0D8CF80917B057B
:1021000082FDFFC090917C0590FDFEC084FFCECF84
:10211000F2CF80917B0583FDDDCFC8CF80917B0519
:1021200083FDF5C090917C0591FFF0CFC4EED0E027
:10213000BDCF80917B0585FFB9CFA7CF80917B056F
:1021400085FDE8C080917C0583FFB0CFC9E3D0E076
:10215000ADCF80917B0586FFA9CFCAE2D0E0A6CFA4
:1021600080917B0586FFA2CFC1E3D0E09FCFCF3B1C
:10217000D10508F6C85AD0E0CC0FDD1FC95DDE4F8F
:102180000990D881C02DD46491CFC11540E2D40705
:1021900058F4C11581E0D80708F088CFCD3ED105AD
:1021A00008F4A9CFD06582CFC11520E4D20708F486
:1021B000A2CFDF70D06A7ACFC11535E5D30718F505
:1021C000C11544E5D40708F084C0C11583E5D807DC
:1021D00008F06BC0C11522E5D20708F461C0CE013A
:1021E0008370992721E030E002C0220F331F8A95C7
:1021F000E2F7C695C69580E2C89FE0011124C22B84
:10220000D32BDC6853CFC11539E5D307A8F4C1152A
:1022100048E5D40708F062C0C11586E5D80708F084
:102220006ACF8C2F0E94A20FC82FD0E0DC2FCC27C2
:10223000CC27DF71D0623ACFC1152AE5D20708F466
:1022400052C0CE0190568115904208F054CF8D2F88
:102250008F710E94A20F90E0982F882788279F7186
:102260009C012C2BE901E6CFC55AD0E0CC5DDE4FB6
:10227000C881D0E0D0641ACFCE018370992721E0C5
:1022800030E002C0220F331F8A95E2F7C695C6954B
:1022900040E2C49FE0011124C22BD32BDD6806CF9E
:1022A000DC2FCC27C16FD06A01CFCE018370992774
:1022B00021E030E002C0220F331F8A95E2F7C69575
:1022C000C69540E2C49FE0011124C22BD32BDA68EB
:1022D000EDCEDC2FCC27C46FD06AE8CEDC2FCC2724
:1022E000C06FD06AE3CE8C2F8F700E94A20F34E0B3
:1022F000D695C7953A95E1F7CF709C2FEC01D06940
:10230000D5CEC2EED0E0D2CEC0EED0E0CFCEC6EE7B
:10231000D0E0CCCEC5E3D0E0C9CE8091FA028111E5
:102320001092FA02089580959091F9029823909363
:10233000F902089590911C019923D1F090917B05A9
:1023400097FF16C0E82FE695E695E695EE31E0F4A6
:10235000F0E0EE5AFD4F282F277081E090E001C099
:10236000880F2A95EAF780959281892382830895C0
:10237000E4E5F2E09191891303C0DF0111971C920B
:1023800092E0EA35F907B1F7089590911C0199237D
:10239000C1F090917B0597FF14C0E82FE695E69574
:1023A000E695EE31F8F4F0E0EE5AFD4F877021E04B
:1023B00030E001C0220F8A95EAF78281822B828366
:1023C0000895A4E5B2E0EFEF90E02D91821751F06F
:1023D000EF3F19F4211101C0E92F9F5F9630A9F753
:1023E000EF3F09F408950E2E000CFF0BEE5AFD4F3F
:1023F000E6CF8091D7029091A602981301C008956C
:102400008F5F8770FACFB0E0A0E0E9E0F2E10C94D2
:1024100053327C0100910B0410910C048091FB025B
:102420009091FC02082B192BCFE0D0E0CC24C39470
:10243000D12CBC2EC6010C2E02C0880F991F0A9405
:10244000E2F780239123892B49F4219790F7B12C4F
:102450008B2DCDB7DEB7E9E00C946F32B7018C2F2E
:102460000E94E50F0E940010019779F3F1CFCF93FE
:10247000DF93EC010E940312BE010E94E50F0E944F
:102480000010DF91CF9108959E3078F5863068F581
:10249000E82FF0E086E0989FE00DF11D11249E2FBB
:1024A000977083E0F695E7958A95E1F7EE0FFF1FA9
:1024B000EE0FFF1FEC58FD4F50E040E080E021910F
:1024C00030E0092E02C0369527950A94E2F7217074
:1024D0003327042E01C0220F0A94EAF7822B4F5FA4
:1024E0005F4F4430510559F7089580E008959E30BC
:1024F00098F5863088F5E82FF0E086E0989FE00DAB
:10250000F11D11248E2F877041E001C0440F8A9580
:10251000EAF783E0F695E7958A95E1F7EE0FFF1F5E
:10252000EE0FFF1FEC58FD4F30E020E070E05191BE
:10253000DF011197CB01022E02C0969587950A9470
:10254000E2F7817081958527842385278C932F5FFF
:102550003F4F2430310559F70895FC018381948160
:10256000892B29F08081918189238F3F51F480E06C
:102570000895843FE1F717C0883EA8F0813FB9F77E
:1025800012C0808191810E94371292959F7096307F
:1025900099F358F4925F9F70923048F7803F19F09A
:1025A00040F7883E20F781E008959A5FF4CFB0E0CD
:1025B000A0E0EDEDF2E10C94513220E9289FE0011A
:1025C000299FD00D1124C056DE4F10E000E0FE011F
:1025D00064913196749131968491962F972B982B14
:1025E00089F420E040E060E0C8010E94BC0A0F5F6F
:1025F0001F4F23960033110551F7CDB7DEB7EBE03F
:102600000C946D320E94570C962EB72EA82E609116
:10261000B70570E090E080E00E94A03520E030E057
:102620004FE753E40E94FF346B017C016A2D70E098
:1026300090E080E00E94A235A70196010E942E360C
:102640000E947135A62E692D70E090E080E00E9416
:10265000A235A70196010E942E360E947135962E52
:102660006B2D70E090E080E00E94A235A7019601FA
:102670000E942E360E9471352A2D492DB5CF2798FC
:102680002F98089526982E98089525982D980895A6
:1026900056985E980895279A2F9A0895269A2E9A0A
:1026A0000895259A2D9A08951F93CF93DF93182F9D
:1026B000D92F892F90E0C8E0009719F4812F9D2F22
:1026C000C0E09C0154E0369527955A95E1F7211515
:1026D000310511F0CC5FC9019C01369527953695DF
:1026E00027952115310511F0CE5FC9019695879583
:1026F000892B09F0CF5F0E9448130E9445130E9466
:1027000042130E943F13C150C73040F4EC2FF0E059
:10271000E356F94C0C94A1320E945113812F9D2F46
:10272000DF91CF911F9108950E9451130E944E1383
:10273000F5CF0E9451130E944B13F0CF0E9451130A
:102740000E944E13F8CF2098289821982998229813
:102750002A9823982B9852985A9853985B983E98A9
:10276000469808958098889A8198899A84988C9A36
:1027700085988D9A86988E9A87988F9A08958093D7
:102780007D0570937F0560937E058091A50584305B
:1027900001F583E08093E9008FEF9091E80081508C
:1027A00095FD06C095ED9A95F1F700008111F5CFE2
:1027B0008091E80085FF0DC050E040E063E070E0EC
:1027C0008DE795E00E9483078091E8008E778093E3
:1027D000E8000895BC0184E00E94BF130895BC0185
:1027E00083E00E94BF1308959C0182E08093E9007A
:1027F0009FEF8091E800915085FD06C085ED8A9598
:10280000F1F700009111F5CF8091E80085FF0CC031
:1028100050E040E065E070E0C9010E9483078091CC
:10282000E8008E778093E8000895CF93DF93EC0162
:1028300080911C018823B1F180917B0587FF32C014
:1028400060E283E08093E9008FEF9091E80081508F
:1028500095FD06C095ED9A95F1F700008111F5CF31
:102860008091E80085FF1BC080911C0170E050E062
:1028700040E0811104C050E040E068E070E0CE012B
:102880000E9483078091E8008E778093E80080E2C1
:10289000FE01A3E8B5E001900D928A95E1F7DF9182
:1028A000CF91089568E081E0CDCF0E9448130E9447
:1028B00045130E9442130E943F138FEF90E09093C4
:1028C00089008093880090938B0080938A00909376
:1028D0008D0080938C000E9451132FEF80E792E0CF
:1028E000215080409040E1F700C000000E944E134C
:1028F0002FEF80E792E0215080409040E1F700C048
:1029000000000E944B132FEF80E792E0215080409F
:102910009040E1F700C000000E9445132FEF80E7D0
:1029200092E0215080409040E1F700C000000E94FA
:1029300042132FEF80E792E0215080409040E1F772
:1029400000C000000E943F130E9448130E944513DC
:102950000E9442130E943F130895A4E0B0E0E3EB0D
:10296000F4E10C945732F62E042F122F8033910588
:1029700070F5880F991F880F991FBC01605A734F1B
:1029800044E050E0CE0101960E94033389818370B8
:10299000EA81282F30E040E9849FC0011124885D3E
:1029A0009B4FE80FF92FF11DB497F082EB81E80FF0
:1029B000F92FF11DB4970083EC81E80FF92FF11D79
:1029C000B49710832A5D3B4F81E0F9018083249600
:1029D000E5E00C947332FF920F931F93CF93DF9334
:1029E000182F062FF42ED0E0C0E02F2D402F612F9E
:1029F000CE010E94AD142196C033D105B1F7CDB7F9
:102A0000DEB7E5E00C9473320F931F93CF93DF93FF
:102A1000082F000FEB0114E210931204E3E1F4E03D
:102A2000DE018D91819384E0E332F807D1F724E64B
:102A300030E041E150E062E174E0802F0E94113209
:102A4000105F6096143B41F7DF91CF911F910F917A
:102A5000089580912604882329F068E274E084E7D1
:102A60000E9404151092260480912704882329F0DF
:102A700068EB74E087E70E9404151092270408951C
:102A8000E2E1F4E06083418324E630E042E050E09C
:102A9000BF01880F0E9411320895EF92FF920F93A9
:102AA0001F93CF93DF93E82E062F10E004591A4F9F
:102AB000F8018081882381F0F2E16F9FE001112409
:102AC000C85BDA4FF12C49916F2D8E2D0E94401575
:102AD000F39482E1F812F7CFF8011082CDB7DEB798
:102AE000E6E00C947232CF93DF93C82F4BE06DEF8A
:102AF0000E94401540E06AE08C2F0E9440158FE351
:102B00009CE90197F1F700C0000040E060E08C2FE5
:102B10000E94401540E061E08C2F0E94401540E08B
:102B200066E08C2F0E94401540E06DEF8C2F0E94D4
:102B30004015D0E040E06D2F8C2F0E944015DF5FE4
:102B4000D231C1F740E06D2F8C2F0E944015DF5F1E
:102B5000D432C1F740E06D2F8C2F0E944015DF5F0B
:102B6000D43BC1F74BE06DEF8C2F0E94401541E044
:102B70006AE08C2F0E94401540E06DEF8C2F0E9480
:102B80004015DF91CF910895A4E0B0E0EAECF5E1C3
:102B90000C944E320E944E3184E70E94731587E7F1
:102BA0000E94731500E61CE052E1752E68E0C62E07
:102BB000D12CEE24E394F12C6624639444E050E09D
:102BC000B801CE0101960E9403334A8150E0CA0148
:102BD00084972B81622F6452770B4B012C81E22F5B
:102BE000E452FF0B5F012981237030E0FC0197FD67
:102BF000379643E0F595E7954A95E1F7729EA00177
:102C0000739E500D1124485B5A4FE40FF52FF11DB0
:102C1000B6010E948D32A70101C0440F8A95EAF7E0
:102C20008081842B8083F40197FC379693E0F5959F
:102C3000E7959A95E1F7729EC001739E900D11245D
:102C4000885B9A4FE80FF92FF11DC401B6010E946D
:102C50008D32A70101C0440F8A95EAF78081842B49
:102C60008083F501B7FC379683E0F595E7958A9563
:102C7000E1F7729EC001739E900D1124885B9A4FFC
:102C8000E80FF92FF11DC501B6010E948D32A70191
:102C900001C0440F8A95EAF78081842B80832459F0
:102CA0003A4FF90160820C5F1F4FFDE000321F07B1
:102CB00009F084CF60E084E70E944D1561E087E76A
:102CC0000E944D152496EEE00C946A321F93CF9328
:102CD000DF93EC01FC01E05EFD4F80816823B1F0E1
:102CE0000E94F332182F0E94F3328F77782F20E85A
:102CF000720F08F47FEF612F8091B7050E94570C87
:102D0000462F282F672FCE010E94BC0ADF91CF915A
:102D10001F910895A3E0B0E0E0E9F6E10C944D3294
:102D2000182F80911B01811323C09091B4059370DB
:102D300020911A0130E081E09217130609F480E037
:102D4000817080931F018091B90590911E019817A1
:102D500039F080931E0140E060E080E00E94B90AF3
:102D60001F3160F4E12FF0E0EC55F94C0C94A132E6
:102D700081E0E6CF80911F01811102C019822BC032
:102D800040E060E080E00E94B90AF8CF80911D0128
:102D9000282F220F220F280F2983022F0B5FF02EDE
:102DA000013310F030E3F32E6091B5057091B60554
:102DB0008091B7050E94570CE62ED72EC82E998118
:102DC000892F90E09B838A83FA81FF15E0F021E050
:102DD0002983003398F680911D018F5F80931D0138
:102DE000398131110CC082E08093200180911F0154
:102DF000811105C0111103C083E080932001239647
:102E0000EFE00C946932EA81FB81E05EFD4F808146
:102E100090911E01892339F02C2D4E2D6D2D8A8124
:102E20009B810E94BC0AEA81FB813196FB83EA8385
:102E3000CBCF80911D01382F330F330F380F3983DB
:102E4000032F0B5FF02E013310F020E3F22ED09011
:102E5000B605E090B7058091B5058A83682F7D2D72
:102E60008E2D0E94570CC62EB72EA82E6091B80545
:102E70009A81690F7D2D8E2D0E94570CE62ED72E3C
:102E8000982EF981EF2FF0E0FB83EA833A813F151A
:102E900018F081E089839DCFEA81FB81E05EFD4FE0
:102EA000908180911E01892361F0292D4E2D6D2D79
:102EB00090FD03C02A2D4C2D6B2D8A819B810E9491
:102EC000BC0A2A813B812F5F3F4F3B832A83DECFA1
:102ED00080911D01982F990F990F980F9983092FB1
:102EE0000B5FE02E013310F090E3E92ED090B60591
:102EF000C090B7052091B80580E4F82E3F2D329F91
:102F0000312D1124F32E9981892F90E09B838A83A0
:102F1000FA81FE1508F05BCFEA81FB81E05EFD4F90
:102F2000808190911E018923C9F0EA81FB81EE0F17
:102F3000FF1FEF53FE4F808182958F706091B50522
:102F40008F9D600D11247D2D8C2D0E94570C462FD6
:102F5000282F672F8A819B810E94BC0AEA81FB810E
:102F60003196FB83EA83D4CF80911D01382F330F34
:102F7000330F380F3983032F0B5FE02E013310F02E
:102F8000A0E3EA2ED090B605C090B7052091B80511
:102F9000F0E4FF2E3F2D329F312D1124F32E998125
:102FA000892F90E09B838A83FA81FE1508F00FCF6A
:102FB000EA81FB81E05EFD4F808190911E018923B3
:102FC000E9F0EA81FB81EE0FFF1FE054FE4F6081C4
:102FD000F69EB0011124E5E075956795EA95E1F755
:102FE0008091B505680F7D2D8C2D0E94570C462FC2
:102FF000282F672F8A819B810E94BC0AEA81FB816E
:103000003196FB83EA83D0CF80911D01382F330F97
:10301000330F380F3983032F0B5FF02E013310F07D
:1030200060E3F62EE090B5058091B6058A83D090D6
:10303000B7056091B8056695669566958091AF0570
:103040009091B0050E943A0C0E948B0B805887FD2E
:103050008195880F282F3D2D239F212D1124822F0C
:103060006E2D7A810E94570CE62ED72EC82E99819C
:10307000892F90E09B838A83FA81FF1508F0A7CE01
:10308000EA81FB81E05EFD4F808190911E018923E2
:1030900039F02C2D4E2D6D2D8A819B810E94BC0A0A
:1030A000EA81FB813196FB83EA83E6CF80E99AE0EF
:1030B0000E94260D07C086E69AE0FACF8DE69BE0D7
:1030C0000E94330E898387CE8EE49BE0F9CF83E3A1
:1030D0009BE00E94C60DF6CF87E19BE0FACF84E625
:1030E0009AE0E6CF8BE59AE0E3CF82E59AE0E0CF85
:1030F00089E39AE0DDCF8BE29AE0EBCF82E19CE0BE
:10310000DFCF86E09BE0DCCF82EF9AE0E2CF8EEF6C
:1031100099E00E94700DD6CF80ED99E0FACF89E951
:1031200099E0F7CF80911D01382F330F330F380FFF
:103130003983032F0B5F80911F01811120C06091A3
:10314000B80520E1620F08F46FEF8091AF05909110
:10315000B0050E943A0C6AE070E00E943632892B7A
:1031600059F40E94CD0B60E30E94813260911E01F0
:10317000892F90E00E94EB0C91E099832ACE802F5A
:10318000013308F080E3F981EF2FF0E0FB83EA835D
:10319000E82EF12C8A819B818E159F056CF760913A
:1031A0001E018A819B810E94EB0C2A813B812F5F4B
:1031B0003F4F3B832A83EECFE0911F01E983E1116A
:1031C0001EC06091B80520E1620F08F46FEF809196
:1031D000AF059091B0050E943A0C65E070E00E9446
:1031E0003632892B09F0CACD0E94F33260E370E0D9
:1031F0000E948D3260911E010E946616ECCD809176
:103200001D01F82FFF0FFF0FF80FF9830F2F0B5F32
:10321000802F013308F080E33981232F30E03B8396
:103220002A83E82EF12CEA81FB81EE15FF051CF0C4
:10323000F1E0F983CECD60911E018A819B810E94CD
:1032400066168A819B8101969B838A83ECCF80914D
:103250001D01282F220F220F280F2983022F0B5F19
:10326000F02E013310F050E3F52ED090B605E0902B
:10327000B7053091B5053A836091B80566956695B6
:1032800066958091AF059091B0050E943A0C0E941E
:103290008B0B805887FD8195880F682F2CE0629FEB
:1032A000612D11248A81680F7D2D8E2D0E94570C6F
:1032B000E62ED72EC82EF981EF2FF0E0FB83EA83AC
:1032C0003A813F1508F0E5CDEA81FB81E05EFD4FD4
:1032D000808190911E01892339F02C2D4E2D6D2D6A
:1032E0008A819B810E94BC0A2A813B812F5F3F4FCC
:1032F0003B832A83E5CF8AEA9BE0DACE88E899E02F
:10330000D7CE80911D018F5F082F000F000F080F8F
:103310004091AF055091B0056091B1057091B20533
:103320008091410390914203A0914303B0914403E3
:1033300084179507A607B70708F07ACF0E94CD0B30
:10334000F82E0E94CD0B90E3891BF0F7890FE82F30
:10335000F0E0FB83EA83E05EFD4F80911E019081E7
:10336000892309F465CF20E040E060E0F1FC13C060
:103370000E94CD0BF82E0E94CD0B782F76952FE76B
:10338000720F08F47FEF6F2D8091B7050E94570CE4
:10339000462F282F672F8A819B810E94BC0A20918B
:1033A000B80530E1230F08F42FEF60E1822F90E0A1
:1033B0000E943A0CBC0184EF91E00E943632809169
:1033C000AF059091B005A091B105B091B205860FFF
:1033D000971FA11DB11D8093410390934203A093B9
:1033E0004303B093440324CF4091D5035091D603B7
:1033F0006091D7037091D8038091AF059091B0058B
:10340000A091B105B091B20584179507A607B7073B
:1034100008F4B4CC80911F01811126C080911D0158
:10342000282F220F220F280F2983022F0B5FD02E67
:10343000013310F040E3D42E3981E32EF12CE3E088
:103440003E9FC00111248B5B9C4F9B838A83ED14AC
:1034500008F44CC0E5E4F3E082ED93E0003308F0BB
:1034600065C021E02983B7CC40E060E080E00E94A5
:10347000B90A35E4E32E33E0F32E1B821A820FE7FC
:103480000E94CD0B81FF12C0F701108211821282BF
:103490002A813B812F5F3F4F3B832A8333E0E30E3A
:1034A000F11C8A819B81C09759F7B8CF0E94CD0B40
:1034B000B82E0E94CD0B8695782F700F08F47FEF01
:1034C0008A819B81880F991F2A813B81820F931FDC
:1034D000FC01EB5BFC4F6F016B2D8091B7050E94E7
:1034E000570CF601608371838283D2CFF701E05ECF
:1034F000FD4F808190911E01892341F0EA81FB817B
:10350000228140816181C7010E94BC0A2A813B81DE
:103510002D5F3F4F3B832A833FEFE31AF30A97CF98
:103520002381348145812193319341938E179F07E5
:10353000B9F70E94CD0B81FF1FC01092D2031092E9
:10354000D3031092D4030E94440CC090AF05D090D6
:10355000B005E090B105F090B205DC01CB018C0D17
:103560009D1DAE1DBF1D8093D5039093D603A093E0
:10357000D703B093D80302CC0E94CD0B89830E945D
:10358000CD0B8695782F2FE7720F08F47FEF6981B6
:103590008091B7050E94570C6093D2037093D303B8
:1035A0008093D403D0CF80911F01882329F040E07D
:1035B00060E080E00E94B90A50901D015394852D6F
:1035C000880F880F580E4091AF055091B00560915B
:1035D000B1057091B2058091030490910404A0910B
:1035E0000504B091060484179507A607B70708F0ED
:1035F00080C06091B5057091B6058091B7050E94B5
:10360000570C062F772E682E89EDE82E83E0F82ED2
:103610008CE691E09B838A83AA80BB804501670189
:1036200092E001C091E09983F60121916F01F401CC
:1036300081914F0190E0222309F462C0262D402F92
:10364000672D0E94BC0AF5018581262D402F672D2C
:1036500090E00E94BC0AF601808131978083F1E0FE
:10366000AF1AB10829812130E9F6EA81FB81828114
:1036700090E0F7012281222309F44DC0262D402F2E
:10368000672D0E94BC0AEA81FB818381262D402F91
:10369000672D90E00E94BC0A0E94CD0B837091E0E0
:1036A00009F090E0F7019283F3E0EF0EF11C2A811C
:1036B0003B812A5F3F4F3B832A83205C314009F0E6
:1036C000ABCF0E94440CC090AF05D090B005E09005
:1036D000B105F090B205DC01CB018C0D9D1DAE1D36
:1036E000BF1D8093030490930404A0930504B0933A
:1036F0000604E1E0E983FFE2F51508F06CCB3ECB70
:1037000020E040E060E00E94BC0AF501858120E0F5
:1037100040E060E09DCF20E040E060E00E94BC0A15
:10372000EA81FB81838120E040E060E0B2CFCF936B
:103730008FB7F8944091770550917805609179059D
:1037400070917A058FBF40930704509308046093EB
:10375000090470930A0480911104C0E0811108C02B
:103760008091B405C82FC37019F0C82FC695C695AF
:10377000809120018130C1F0882341F0823009F42A
:1037800085C0833009F48DC0CF91089510921D013A
:103790004093AF055093B0056093B1057093B205A7
:1037A00081E080932001F0CF8C2F0E948A16CC23D9
:1037B00059F380910D04E82FE87083FDE5CF8091E7
:1037C0000B0490910C04B0E0A0E0492F5A2F6B2F0E
:1037D0007727411551056105710519F0DB01CA0113
:1037E000E8E0AC01BD01F4E0769567955795479503
:1037F000FA95D1F7411551056105710519F0EC5F96
:10380000DB01CA01AC01BD0132E0769567955795A1
:1038100047953A95D1F7411551056105710519F0A4
:10382000EE5FDB01CA01B695A79597958795892B21
:103830008A2B8B2B09F0EF5FE830F8F4F0E0ED53C2
:10384000F94C0C94A13290E080E00E94D7129CCFFA
:1038500081E090E0FACF82E090E0F7CF83E090E063
:10386000F4CF84E090E0F1CF85E090E0EECF86E009
:1038700090E0EBCF87E090E0E8CF8091B90581112F
:1038800083CF40E060E00E94B90A7ECFC0931B0165
:103890008091B405837080931A010E94291583E0FA
:1038A00080CF8091B305882351F046E050E06CE171
:1038B00070E084EB95E00E9468341092B30540916B
:1038C000AF055091B0056091B1057091B2052FB769
:1038D000F8948091770590917805A0917905B09141
:1038E0007A052FBF841B950BA60BB70B4A97A10532
:1038F000B10508F449CF1092200146CFE4EBF5E082
:1039000085E380838091210190912201A091230180
:1039100081839283A3838CE384838FEF858346E046
:1039200050E06CE170E0CF010E9468341092B30562
:1039300008958091F90290916E05892B809352022F
:103940009091FA029923A1F0892B809352028091E1
:103950001C018823E1F180917B0587FF38C08EE14F
:10396000E4E5F2E090E08150A0F591110E948D1104
:1039700040E250E069ED72E082E592E00E94373467
:10398000892B21F180E2E2E5F2E0A9EDB2E00190BD
:103990000D928A95E1F7E0917205F09173053097E9
:1039A000A9F080911C01882359F080917B0587FF45
:1039B00007C0809152028093530286E080935202A6
:1039C0000280F381E02D82E592E00995089586E07A
:1039D000C7CF2191222339F29F5FC5CF80916F0518
:1039E000882349F080916E058D7D80936E050E943D
:1039F000991C10926F050895882321F00E9493115D
:103A00000E94991C0895882339F09091F902982B0F
:103A10009093F9020E94991C0895CF9384E090E05E
:103A20000E945434C82F82E290E00E945434982FB0
:103A30008C2FCF91089568EE7EEF90E080E00E9499
:103A4000963460E082E090E00E94783460E083E0A9
:103A500090E00E9478341092FC021092FB0260E029
:103A600084E090E00E94783464E082E290E00E947A
:103A7000783460E085E090E00E94783460E086E091
:103A800090E00E9478346FEF87E090E00E947834F5
:103A900040E050E0BA0188E090E00E948A3460E0A3
:103AA0008DE090E00E94783440E050E0BA0188E177
:103AB00090E00E948A3460E087E190E00E947834D0
:103AC00040E050E0BA018CE190E00E948A3470E05E
:103AD00060E080E290E00E94963440E050E0BA015D
:103AE00088E190E00E948A3410920D0410920E0436
:103AF00010920F041092100484E0806180930D04F2
:103B000040910D0450910E0460910F0470911004C7
:103B10008FE090E00E948A3440E050E0BA0183E1F7
:103B200090E00E948A3408950E94C41590E080E0DD
:103B30000E946234883E9E4F21F00E941B1D0E940D
:103B40007E1C46E050E06CE170E084EB95E00E9462
:103B500044341092B3058091B4058C7F11F40E9417
:103B60007E1C089580E290E09093170180931601E7
:103B70008091720281110EC00E944E3181E08093CB
:103B800072022FEF83ED90E3215080409040E1F7E7
:103B900000C0000064E670E080E40E94543190931D
:103BA000170180931601892B09F04EC064E670E07E
:103BB00080E00E94C0319093170180931601892BF9
:103BC00009F042C064E670E080E00E94C03190934A
:103BD000170180931601892BB9F564E670E08FE335
:103BE0000E94C0319093170180931601892B61F5D3
:103BF0000E94323264E670E080E40E945431909377
:103C0000170180931601892BF9F464E670E08CE0CB
:103C10000E94C0319093170180931601892BA1F463
:103C200064E670E080E00E94C031909317018093B9
:103C30001601892B49F464E670E08FE30E94C031DD
:103C400090931701809316010E94323280911601E1
:103C50000895CF93C82F873078F580911601909101
:103C60001701892B39F564E670E080E40E94543135
:103C70009093170180931601892BD1F464E670E0CC
:103C800082E10E94C0319093170180931601892B25
:103C900079F481E090E001C0880FCA95EAF764E604
:103CA00070E080950E94C0319093170180931601B7
:103CB0000E943232CF9108958A30B1F038F48830C2
:103CC00069F0893071F0209A2898F4CF8C3091F007
:103CD00070F08D30C1F73E9A4698ECCF219A299822
:103CE000E9CF229A2A98E6CF239A2B98E3CF529ACB
:103CF0005A98E0CF539A5B98DDCFCF93873050F539
:103D00008091160190911701C0E0892B71F464E64F
:103D100070E081E40E945431909317018093160162
:103D2000892B31F0C0E00E9432328C2FCF91089560
:103D300084E690E00E94EE3197FF05C09093170152
:103D400080931601EFCFC82FC095109217011092E3
:103D50001601E9CFCFB18FB1869586958C73C3706C
:103D60008C2BC82FC095E1CF1F920F920FB60F92E8
:103D700011242F933F934F935F936F937F938F9370
:103D80009F93AF93BF93EF93FF938091E10082FFE6
:103D900009C08091E20082FF05C08091E1008B7F25
:103DA0008093E1008091DA0080FF24C08091D800E8
:103DB00080FF20C08091DA008E7F8093DA008091AE
:103DC000D90080FF9DC080E189BD82E189BD09B431
:103DD00000FEFDCF81E08093A505809180058111D3
:103DE00009C00E9433070E94FE078091E2008460B0
:103DF0008093E2008091E10080FF17C08091E20093
:103E000080FF13C08091E2008E7F8093E20080915A
:103E1000E20080618093E2008091D800806280930C
:103E2000D80019BC85E08093A5058091E10084FF4E
:103E30002BC08091E20084FF27C080E189BD82E130
:103E400089BD89B5982F917080FFFBCF8091D800F4
:103E50008F7D8093D8008091E1008F7E8093E10078
:103E60008091E2008F7E8093E2008091E200816089
:103E70008093E2008091A605882309F447C084E07E
:103E80008093A5058091A5058091E10083FF27C05F
:103E90008091E20083FF23C08091E100877F8093BF
:103EA000E10082E08093A5051092A6058091E100D3
:103EB0008E7F8093E1008091E2008E7F8093E2000C
:103EC0008091E20080618093E20042E060E080E067
:103ED0000E94CC078091F00088608093F000FF91F1
:103EE000EF91BF91AF919F918F917F916F915F9172
:103EF0004F913F912F910F900FBE0F901F901895EB
:103F000019BC1092A5051092800574CF8091E30032
:103F100087FD93E09093A505B5CF78941F921FB6C7
:103F20001F9211248F939F93AF93BF938091770536
:103F300090917805A0917905B0917A050196A11D1F
:103F4000B11D8093770590937805A0937905B09380
:103F50007A05BF91AF919F918F911F901FBE1F90C7
:103F600018959C014FB7F89480917705909178054A
:103F7000A0917905B0917A054FBF821B930B0895EC
:103F80002FB7F8948091770590917805A0917905E5
:103F9000B0917A052FBF08950E94C01F9C01909197
:103FA0003D0380913E03982B21F030933B032093F7
:103FB0003A0390913F0380914003982B21F0309376
:103FC000390320933803E0917205F091730530971F
:103FD00031F00480F581E02D8CE393E0099508959C
:103FE00090E080E00E94D10890E080E00E94BB0851
:103FF00010926E050E94991C85E0ECE3F3E0DF016E
:104000001D928A95E9F710923603109235031092AB
:1040100037030E94CC1F08950E94541390930C0400
:1040200080930B040E94F01F089521E030E002C04D
:10403000220F331F8A95E2F72095309580910B046B
:1040400090910C04822393230E940C200895909158
:10405000D802809589238093D802282F277091F465
:10406000282F082E000C330B9217130659F090914D
:104070007C0592FF07C08595859585950E94152042
:104080001092D8020895CF93C0917C05C2FB992766
:1040900090F9981791F080FBC2F9C0937C0560916C
:1040A0007B0584E090E00E9478346C2F82E290E0FF
:1040B0000E94783482E00E942720CF91089521E069
:1040C00030E002C0220F331F8A95E2F780910B0483
:1040D00090910C04822B932B0E940C2008959093B6
:1040E000FC028093FB020E94F01F08951092F902D7
:1040F00080911C01E4E5F2E0882361F080917B056A
:1041000087FF08C08EE1DF011D928A95E9F70E94C2
:10411000F01F089586E0F7CFAAE2B0E0E2E9F0E20E
:104120000C94593287EA95E02091F100DC012D933F
:10413000CD01B5E08F3A9B07B9F78091A805833090
:1041400009F472C0B8F4813009F449C0823009F42E
:10415000B3C08091E80083FF86C28091A70590914B
:10416000A8059A3008F07FC2E92FF0E0E553F94C3A
:104170000C94A1328A3009F48EC08B3009F471C0DE
:10418000893039F78091A705813219F78091AB0505
:104190009091AC05009711F00297D9F68091E80054
:1041A000877F8093E8008091E80082FF38C090917B
:1041B000F3008091F200029731F48091F100813098
:1041C00011F0863021F48091F10080938205809176
:1041D000E8008B778093E8000E94AD07BACF80910A
:1041E000A705813A09F0B5CF8091E800877F8093D9
:1041F000E8008091AB059091AC05892B61F460E2F9
:1042000083E895E070E00E9459088091E8008B7780
:104210008093E8009ECF60E090E080E0F3CF809153
:10422000A5058111C0CF95CF8091A705813A09F0EE
:1042300090CF8091AB059091AC05892B09F089CF87
:104240008091E800877F8093E8008091E80080FFFC
:10425000FCCF80911C018093F1008091E8008E7763
:10426000B9CF8091A705813209F073CF8091AB055A
:104270009091AC05892B09F06CCF8091E800877F85
:104280008093E8000E94AD078091A90580931C01EE
:104290000E9476205ECF8091A705813209F059CF28
:1042A0008091E800877F8093E8000E94AD078091AD
:1042B000AA05809381054DCF8091A705813A09F029
:1042C00048CF8091E800877F8093E8008091E800E4
:1042D00080FFFCCF80918105BECF803899F0823875
:1042E00009F0C1C18091AB058F70873008F0BBC168
:1042F0008093E9008091EB0085FB882780F910927C
:10430000E90006C08091A3059091A40591118260F7
:104310009091E800977F9093E8008093F1001092CD
:10432000F1008091E8008E779AC1882309F488C152
:10433000823009F098C18091A90581118BC18091CB
:10434000AB058F702FEF280F263008F08CC18093BB
:10435000E9002091EB0020FF7DC1933031F4809182
:10436000EB0080628093EB0075C19091EB0090614F
:104370009093EB0021E030E001C0220F8A95EAF72C
:104380002093EA001092EA008091EB008860EACF67
:10439000811169C11091A9051F778091E300807890
:1043A000812B8093E3008091E800877F8093E80071
:1043B0000E94AD078091E80080FFFCCF8091E30070
:1043C00080688093E30082E0111183E08093A5056B
:1043D0004AC18058823008F046C12091A905309129
:1043E000AA052C3DE3E03E07A1F583E08A838AE23B
:1043F00089834FB7F894DE01139620E03EE051E246
:10440000E32FF0E050935700E49120FF03C0E295C2
:10441000EF703F5FEF708E2F90E0EA30C0F0C796EC
:104420008D939D932F5F243159F74FBF8091E80002
:10443000877F8093E8006AE270E0CE0101960E94D7
:1044400059088091E8008B778093E8000CC1C096F2
:10445000E7CF8091AB059091AC05432F55274330B2
:10446000510509F44AC078F54130510509F47AC084
:1044700084E590E0E0E2FDE04230510509F0F3C050
:104480002091E800277F2093E8002091AD0530912E
:10449000AE058217930708F49C0140E02115310511
:1044A00009F065C0411163C08091E80082FDC9CF69
:1044B0008091A505882329F2853019F28091E800C2
:1044C00083FFF2CFBECF4132510509F43CC04232E6
:1044D000510509F0C8C08330910508F0C4C0FC0143
:1044E000EE0FFF1FE05AFE4F0190F081E02D835A3E
:1044F0009E4FDC018C9190E01AC0332721303105AA
:10450000D1F02115310561F02230310509F0ABC041
:10451000E6E8FDE0E4918E2F90E0E6E8FDE007C0DC
:10452000E2EDFDE0E4918E2F90E0E2EDFDE00097FA
:1045300009F499C0A5CFE8EAFDE0E4918E2F90E060
:10454000E8EAFDE0F4CF8330910508F08CC0880FD5
:10455000991FFC01EA59FE4F0190F081E02D89E09E
:1045600090E08ECF82E190E0E4E7FDE089CF80919A
:10457000A505882309F465CF853009F462CF8091C1
:10458000E80083FD5ECF8091E80082FD8DCF8091B1
:10459000E80080FF83CF9091F3008091F200211515
:1045A000310519F08830910550F041E0089709F085
:1045B00040E08091E8008E778093E8006FCF4491CF
:1045C0004093F1003196215031090196E8CF8038AF
:1045D00009F049C08091E800877F8093E8008091CE
:1045E000A6058093F1009DCE81113DC01091A905D3
:1045F0001230C8F58091E800877F8093E80010931F
:10460000A6050E94AD07112311F084E005C080913A
:10461000E30087FDFACF81E08093A50542E061ECDD
:1046200081E00E94CC0742E061EC82E00E94CC076E
:1046300042E261EC83E00E94CC078091A50513C0A3
:104640008091A905813079F481E0933009F080E010
:104650008093A4051092E9008091E800877F809301
:10466000E8000E94AD078091E80083FF0AC08091B6
:10467000E800877F8093E8008091EB008062809360
:10468000EB00AA96E3E00C9475321F920F920FB6DE
:104690000F9211242F933F934F935F936F937F93C8
:1046A0008F939F93AF93BF93CF93DF93EF93FF933A
:1046B000D091E900DF708091EC00C82FC17080FDBF
:1046C000C0E81092E9008091F000877F8093F000AD
:1046D00078940E948C201092E9008091F00088600C
:1046E0008093F000CD2BCF70C093E900FF91EF9144
:1046F000DF91CF91BF91AF919F918F917F916F91FA
:104700005F914F913F912F910F900FBE0F901F908F
:1047100018950E9476202FEF84E39CE02150804082
:104720009040E1F700C0000088E19AE00FB6F894ED
:10473000A895809360000FBE90936000FFCF882300
:1047400009F455C0823879F40E94E70881FF4FC010
:1047500089E30E94C5110E94991C89E30E949A1165
:104760000E94991C0895833859F40E94E70880FF3D
:104770003EC083E50E94C5110E94991C83E5EECFDF
:10478000843859F40E94E70882FF31C087E40E9410
:10479000C5110E94991C87E4E1CF9CEF980F913AD4
:1047A000E8F290E2980F983050F4877091E001C0E1
:1047B000990F8A95EAF7892F0E949311D1CF9BE533
:1047C000980F933028F490E080E00E94D10808957B
:1047D00098E5980F973128F490E080E00E94BB089C
:1047E00008958D3E20F00E94890E0E94CC1F0895EE
:1047F000CF93C82F8823C9F08238C9F40E94E708F4
:1048000081FD13C089E30E94C5110E94991C2FEFFE
:1048100087EE93E0215080409040E1F700C0000017
:1048200089E30E949A110E94991CCF9108958338C0
:10483000A1F40E94E70880FDF8CF83E50E94C5112E
:104840000E94991C2FEF81EE94E02150804090400F
:10485000E1F700C0000083E5E4CF8438A1F40E94B2
:10486000E70882FDE2CF87E40E94C5110E94991CEF
:104870002FEF81EE94E0215080409040E1F700C09E
:10488000000087E4CECF8CEF8C0F813A88F58091C1
:104890001C01882301F180917B0587FF1CC0EC2F50
:1048A000E695E695E695F0E0EE5AFD4F828190E0C0
:1048B0004C2F477021E030E002C0220F331F4A9591
:1048C000E2F782239323892B79F08C2F0E949A118F
:1048D0000E94991C09C0E4E5F2E08191C817A9F390
:1048E00022E0EA35F207C9F78C2F0E94C5119BCF51
:1048F00080E28C0F883068F4C77021E030E001C09E
:10490000220FCA95EAF78091F902822B8093F9026F
:104910008ACFEBE5EC0FE33040F4F0E0EC5DFE4FC6
:10492000808190E00E94D10880CFE8E5EC0FE7316C
:1049300050F4F0E0EE0FFF1FE95DFE4F80819181A2
:104940000E94BB0872CFCD3E08F46FCF8C2F0E941F
:10495000460F0E94CC1F69CFB0E0A0E0E2EBF4E28A
:104960000C9454328091160190911701892BA1F07B
:104970008091FD028F5F8093FD0281110DC00E9426
:10498000B21D90E09093170180931601892B21F4BA
:104990000E9455140E94941D05E013E07801C0E0C8
:1049A000D0E087E0C82ECD0E8D2F0E94291E8C2DC1
:1049B0000E94291E8D2F0E947D1E8F73F7019191F9
:1049C0007F01D12C891721F031978083DD24D39486
:1049D0008C2D0E947D1E8F73F7019681891709F433
:1049E00044C0868381E08D29C82B0E94A313DF5F1A
:1049F000D730B9F610920203D0910103DD23F1F113
:104A00000E94C01F2091FF0230910003AC01421BA5
:104A1000530B9A01909300038093FF024F3F51057F
:104A200009F028F5452BE9F0109201031092FE02DF
:104A3000E0910303F0910403AF01425F5F4F90E008
:104A400030E08191882331F0DF011197281790F031
:104A50001C929D2FE417F507A1F730930103909363
:104A6000FE02C11119C0CD2F0BC080E0BCCF2FEFCB
:104A700030E0DACF821B8C933D2FECCFC11106C002
:104A80008091FE028823A1F1C11106C00E94C01FBF
:104A9000909300038093FF02A0910303B09104035D
:104AA00020910103E5E1F3E090E04EE13191E8016E
:104AB00089918E01381799F03C91311110C04C93B7
:104AC000EF0121978883E801219728818227292FE8
:104AD00030E0282B91E0232B09F490E021E011969F
:104AE000D3E0E332FD0711F7909302032093010313
:104AF00080910203CDB7DEB7E8E00C947032A5E0F8
:104B0000B0E0E5E8F5E20C9450327C01FC018381D1
:104B10009481892B31F08081918189238F3F09F025
:104B200052C62596ECE00C946C320E940312182FAA
:104B3000682F89819A810E94771269817A81812FF9
:104B40000E94E50F8C01823BFDE59F0709F43EC002
:104B5000833B2DE5920709F4A7C0833C3CE593070E
:104B600009F0CBC0F70182818823F1F08091B9056B
:104B70008F3F09F0B9C080E00E94FA0880910D04CF
:104B80008F7E80930D0440E060E080E00E94B90ACF
:104B900040910D0450910E0460910F047091100427
:104BA0008FE090E00E948A348091D802877009F4E7
:104BB000B8CFF7018281882309F4B3CF80917C05B7
:104BC00082FFAFCF82E00E942720ABCFF701828126
:104BD0008823A9F180910D0491E0980F9770887F48
:104BE000953008F4892B80930D0480910D04877013
:104BF000FFEF8F9FC0011124959587959595879517
:104C00009927909389008093880090938B008093DC
:104C10008A0090938D0080938C0040910D045091F8
:104C20000E0460910F04709110048FE090E00E94D8
:104C30008A3480910B0490910C040E94541380914B
:104C40006F05882309F489C0C090F902D090FA0258
:104C50000E94C01F88579C4E909333038093320369
:104C6000F7018281882309F478C08D2D8C298D79F4
:104C700009F0E1C00115F5E51F0708F0BCC00115FA
:104C800023E5120708F069C0011530E5130708F0A5
:104C90005FC0011580E4180708F0D8C0063E110572
:104CA00009F45BC0C801D9C0F7018281882339F2B9
:104CB00090910D04892F877F93FF886080930D0466
:104CC00083FF05C040E060E080E00E94B90A4091A7
:104CD0000D0450910E0460910F04709110048FE048
:104CE00090E00E948A34ABCF8FEF0E94FA08809147
:104CF0000D04806180930D044BCF843BFDE59F073D
:104D000039F4F7018281882309F44ECF81E09AC2F9
:104D10008D3A9D4509F093CFF7018281882309F4EC
:104D200043CF80916F05882319F00E94EE1C3CCF81
:104D30001092F9020E948D110E94C01F88579C4E4C
:104D4000909333038093320381E080936F052CCFDF
:104D5000011592E5190708F0A5CFF7018281882394
:104D600009F442C50430FDE51F0708F094C00B3F6D
:104D70002CE5120730F4C80182509C45449708F096
:104D800095C00E940D1D90937C0580937B05023198
:104D9000ECE51E0709F493C108F0DFC009302CE5EB
:104DA000120709F46AC108F0A9C005308CE518079C
:104DB00009F453C108F095C00330ECE51E0709F46F
:104DC00044C108F046C180917B05816002302CE52A
:104DD000120709F4BFC060917B0510917C0584E047
:104DE00090E00E947834612F82E290E00E94783453
:104DF0000E947620D9CE0115E9E51E0758F4011569
:104E0000F8E51F0708F0A9CF043125E5120709F0DE
:104E100049CFA3CFC80190568115904208F042CFE8
:104E2000F7018581807FB9F4812F8F71823159F02C
:104E300028F4823041F00E94EE1C8FCF843109F4B7
:104E40008CCF8631C1F710926E05F5CFF7018581C1
:104E5000807F09F482CFC801992710926E058832AD
:104E6000910548F48E31910560F4049720F382E0B7
:104E700080936E0506C08D329105C9F328F48A9798
:104E8000D1F60E94991C69CF8C349105D1F38D32F3
:104E90009240B9F3D0CF063A3DE5130709F471CF3C
:104EA000D0F402369DE5190709F46BCF06318CE585
:104EB000180709F017C28091F9028A7A91E009F483
:104EC00090E090937302811124C189E20E94C51180
:104ED0000E94991C69CEC8018E5A9D45039730F7F0
:104EE00050CF80917B05806207303CE5130791F13C
:104EF00008F4BFC080917B0580642CC00D309CE518
:104F0000190709F4C4C090F480917B058E7F0B30A3
:104F1000FCE51F07F9F080917B058C600C302CE5D7
:104F20001207C0F080917B058D7F14C00F303CE5E7
:104F3000130709F4BCC008F4AEC000319CE51907A2
:104F400009F4B9C080917B058F7B0131ECE51E0728
:104F500009F041CF80937B053ECF0115FDE51F078A
:104F600009F4B7C0A8F50B3F3CE5130709F479C075
:104F7000C0F404319CE5190709F4B9C008F4A5C0D0
:104F80000531FCE51F0709F026CF80917B0582FBE8
:104F9000992790F921E0922790FB82F990FB83F901
:104FA000D9CF0D3F2CE5120709F479C008F45DC094
:104FB0000E3F8CE5180709F476C080917C0583606C
:104FC0000F3F9CE5190709F006CF80937C0503CFBE
:104FD0000236EDE51E0709F495C090F402302DE588
:104FE000120709F48DC008F478C060E003308DE545
:104FF000180709F0F0CE8EE090E00E947834EBCEF6
:105000000E3A9DE51907E9F060F490917B05892F30
:105010008E7F90FF8160063AFDE51F0709F49ACF65
:10502000DACE0F3A2DE5120771F1003B3DE513078B
:1050300009F0D1CE90917C05892F877F93FF8860FE
:10504000C4CF80917C058860C0CF80917B05826051
:1050500081CF80917B0584607DCF80917B058860C6
:1050600079CF80917C058160B0CF80917C05826092
:10507000ACCF80917B0580616DCF0E9476208091BE
:105080007B05806867CF80917C05877F9ECF80916C
:105090007B058B7F5FCF80917B05877F5BCF809186
:1050A0007C058E7F92CF80917C058D7F8ECF809105
:1050B0007B058F7E4FCF80917B058F7D4BCF0E94EC
:1050C000762080917B058F7745CF80917B05837F0C
:1050D00041CF80917C058C7F78CF80917C05982F83
:1050E000909591708E7F892B90FB81F96ECF0E94F5
:1050F000762090917B05892F97FB87F980582ACFDE
:1051000061E079CF90917B05892F8F7E94FF80613C
:1051100021CF85E3DBCE85E371C38091F9028272F2
:105120000B3C9CE5190709F4CCC008F073C0063CA1
:10513000FCE51F0709F4B1C008F054C0043C3CE58D
:10514000130709F4A0C008F0A3C0033CECE51E0758
:1051500009F48BC0F701828100811181882309F451
:105160002AC1C8010E940312D82E682FC8010E94CC
:105170007712B8018D2D0E94E50F0E9400108C015E
:10518000882EF701D280B580B2943FE0B32280919F
:10519000D8028770C1F0AD2CDD20B1F0812F807F67
:1051A000803421F080E2800F883068F080917C05A7
:1051B00082FF09C082E00E9427208091D802877078
:1051C000AA24A3948111A12C912E92942FE09222D3
:1051D000FBE0F91508F454C1E92DF0E0EB52F94C6D
:1051E0000C94A132083CFCE51F0709F460C008F4E8
:1051F00059C0093C3CE5130709F45EC04EE159E093
:105200006BE279E00A3C9CE5190709F0A3CF0E9404
:10521000F408CACC003DECE51E0709F461C0A8F40F
:105220000D3C2CE5120709F456C008F44FC00E3CA3
:105230008CE5180709F46ACD85E00F3C9CE5190759
:1052400009F088CF0E940A07AFCC073DECE51E07A6
:1052500030F482E1023DFCE51F07A0F3A5CC0E353A
:105260002DE5120709F4A0CC75CF8091B40591E02B
:1052700089278093B405109220018091B305816045
:105280008093B30591CC46E659E060E779E0BFCF63
:1052900040E759E066E679E0BACF42E559E06CE5CF
:1052A00079E0B5CF4CE559E062E579E0B0CF48E36D
:1052B00059E065E479E0ABCF45E459E068E379E093
:1052C000A6CF4BE259E06EE179E0A1CF42E059E090
:1052D00060E179E09CCF40E159E062E079E097CF6E
:1052E0008DE0B0CF0B353DE5130709F460C058F4ED
:1052F00001159CE51907A1F00F3D1C4509F02ACFC7
:105300000E941B1D0BC00D35FDE51F0709F445C0AC
:1053100008F44FC0083A1D4509F01CCF0E948923AC
:105320000E9476208FEF94E3ECE081509040E040C3
:10533000E1F700C00000F89481E08093E00080E293
:105340008093D8001092C9008FE19EE40197F1F795
:1053500000C000001DBA109268001CBC10BE1FBA2D
:1053600010927A0010926E0010926F0010927100ED
:10537000109272001092C9001092BC0014B817B8B5
:105380001AB81DB810BA1092BC0015B818B81BB8DE
:105390001EB811BA0C94003F07CC80917C0582FBAB
:1053A000882780F991E089270E944320D3CE81E0AD
:1053B000FBCF80E0F9CFC8010E944412D82ED9CE8D
:1053C000212F2F70C22E107F19F0C29490EFC922A6
:1053D000DD20B9F0CC2069F080E2800F883010F039
:1053E000811009C08091F902C82AC092F9020E9476
:1053F000991C802F43C080916E05C82AC0926E050B
:10540000F6CF802F0E949F23CC20D1F1005E083080
:1054100010F0811004C08C2D0E94931106C0C0941E
:1054200080916E05C822C0926E050E94991C28C00A
:10543000312F3F70C32E107F103219F0C29480EFCD
:10544000C822882059F081E0881609F472C0DD2056
:1054500009F47AC0BB2009F472C0CBCF20917C053F
:1054600022FD44C0DD20E1F1CC2039F08091F90229
:10547000C82AC092F9020E94991C80E00E94F82379
:10548000292D2850330B2430310510F40E94E708F1
:10549000AA20A9F08091D80280FD11C0F7011282E4
:1054A0008595859585950E945F20C7010E947F257F
:1054B0008091D8028595859585950E94152085E077
:1054C000F701DE01119601900D928A95E1F70981AD
:1054D0001A81C8010E944412B8010E94E50F21CB35
:1054E00080E00E949F23CC2059F295CFDD20A1F0CF
:1054F0009091FA028C2D892BB11003C00E94031DDC
:10550000BFCFE1E0BE12FACF22FFBACF891709F46C
:10551000B7CF8093FA02B4CFB11006C00E948D11AC
:105520008C2D0E94FC1CACCFF1E0BF1609F4A8CF73
:10553000F5CFDD2031F021E02B1508F4A1CF8C2D23
:10554000DDCFB1109DCFECCFBB2051F339E38312F7
:1055500033C18FEF97EEE3E081509040E040E1F7F8
:1055600000C0000029C1812F86958695837061F067
:10557000813009F085CFC8019370D11002C090E04E
:1055800080E00E94BB087CCFC8019370D11002C09C
:1055900090E080E00E94D10873CF802FDD2029F0B9
:1055A0000E94460F0E94CC1F6BCF0E94890EFACF3B
:1055B000812F837009F03FC0D11062CF402F4295F8
:1055C00046954770440F440F802F8F7090E0042E53
:1055D00002C0880F991F0A94E2F730E020E004FF30
:1055E00009C02FE030E002C0220F331F4A95E2F7D6
:1055F00020953095169516951370123099F078F421
:105600004091FB025091FC02113039F0822B932B18
:10561000842395230E946F2033CF842B952B822BDC
:10562000932BF8CF822B932B2091FB023091FC021D
:1056300082279327EFCF8695DD2011F0812F81708F
:10564000882309F41DCF402F429546954770440F9B
:10565000440F802F8F7090E0042E02C0880F991F96
:105660000A94E2F730E020E004FF09C02FE030E0C8
:1056700002C0220F331F4A95E2F720953095169508
:1056800016951370123099F078F440910B045091F4
:105690000C04113039F0822B932B842395230E9424
:1056A0000C20EECE842B952B822B932BF8CF822BC4
:1056B000932B20910B0430910C0482279327EFCF7A
:1056C0001F70DD2029F0812F0E945F20802F16CFD0
:1056D000802F0E94FC1C812F0E941520D1CE802F8C
:1056E000F2EF8F1689F1F81570F020EF8216D1F0E5
:1056F00031EF831691F0DD2009F459C0B11079CE55
:10570000812F8F7125C093EF891629F1E4EF8E1256
:10571000F2CF80917C0582FD2CC0812F8F71DD201E
:10572000D9F216C0DD2059F0B110AACE1F7181E068
:1057300090E002C0880F991F1A95E2F7BACFF1E006
:10574000FB1508F49DCEF2CF812F8F71D110C4CFFD
:105750000E945F2095CE90E080E0DD2009F49FCF8D
:105760001F7181E090E002C0880F991F1A95E2F73F
:1057700096CFDD2089F01F71812F0E945F208091DC
:105780007C0582FF07C028E0129FC00111248360BE
:105790008093D802812FDCCF81E00E94272031E066
:1057A0003B1508F06DCE82E00E94272069CEBB2019
:1057B00039F0893309F4CDCE802F0E949F2360CE2B
:1057C000812F8F7189CF85E0DE01119601900D92B6
:1057D0008A95E1F7F701228189819A812111A5C972
:1057E0000E944412182FA9C90631FCE51F0709F0D1
:1057F00094CC8091730281118ECC89E20E949A111F
:1058000067CB1F93CF93DF938091A502807F09F030
:1058100049C08091A202882309F444C08091D70234
:10582000D091A6026091A0027091A102A091A30262
:10583000B091A402C62FC72316E0D81799F190E0C3
:10584000109711F0CF3F19F401968770F6CF189F8B
:105850009001199F300D1124F901E955FD4F418147
:105860004713F2CF40814613EFCF42814111ECCF75
:10587000438154814A1B5B0B483C510528F78091BA
:10588000A5028F7080618093A502F901E455FD4F58
:1058900080818F708061808380EA92E00E947F2502
:1058A0000E94F911DF91CF911F910895A1E1B0E01D
:1058B000ECE5FCE20C9452328C0185E0F801DE014B
:1058C0001D9601900D928A95E1F7F801E28080EA39
:1058D000A82E82E0B82E6091A3027091A4026115F7
:1058E000710509F416C19091A0024091A102892F7F
:1058F00084238F3F09F40DC120813181C380D4807E
:10590000F090A202F601E61BF70BFF2009F4E8C0B5
:105910008091A502582F507FE83CF10508F0ABC0FC
:1059200051116BC0FE2C431314C0921312C0E1102E
:1059300010C08F7080618093A502C5010E947F25F1
:105940008091A502F80185838F2D6196EAE00C9481
:105950006E32C114D10429F0822F83238F3F09F0C6
:10596000F3C080E0F82FF170DF2E80FF3CC0809103
:10597000D7024091A60256E0841315C02D873E87BA
:105980008D859E850E943712292F22952F702230F7
:10599000F0F0243018F59F70F1F0F8019581907FB8
:1059A000D1F4D12C1EC090E0589FF001599FF00D0A
:1059B0001124E955FD4F6181361306C0608126131D
:1059C00003C06281E6120FC001968770D5CF9F7029
:1059D00011F0882331F3805E883018F3C8010E94EB
:1059E0007F25FD2CB1CFEE2009F4AECF8091A5022A
:1059F00081608093A502F12CA7CF431312C09213AC
:105A000010C0E1100EC0F8018583C8010E947F25F7
:105A100086E0F801A0EAB2E001900D928A95E1F7E4
:105A200093CFC8010E94AD12882309F1EE20F9F04E
:105A30008091A502803270F02091A0023091A102E5
:105A400038872F831986DB86CA868C87CE01079616
:105A50000E947F2586E0F801A0EAB2E001900D9255
:105A60008A95E1F70E94012CFF24F3946DCFC801C1
:105A70000E947F25F9CF51110AC080EA92E00E946E
:105A80007F2586E0F50111928A95E9F7B4CF43139B
:105A90000FC092130DC0E1100BC0F8018583C8013F
:105AA0000E947F2586E0F50111928A95E9F74CCF97
:105AB000C8010E94AD128823D1F2EE20C1F280917C
:105AC000A502803238F22091A0023091A1023A83DF
:105AD00029831B82DD82CC828E83CE010196B8CFD2
