:100000000C945C070C9479070C9479070C9479078D
:100010000C9479070C9479070C9479070C94790760
:100020000C9479070C9479070C949B1F0C942C2446
:100030000C942E330C9479070C9479070C9479075F
:100040000C9479070C9479070C9479070C94790730
:100050000C9479070C9474200C9479070C9479070C
:100060000C9479070C9479070C9479070C94790710
:100070000C9479070C9479070C9479070C94790700
:100080000C9479070C9479070C9479070C947907F0
:100090000C9479070C9479070C9479070C947907E0
:1000A0000C9479070C9479070C94790705001100DA
:1000B00000000A000B00000017001C0000000501F2
:1000C0000980A101850319012AB700150126B7008F
:1000D000950175108100C0050C0901A10185041965
:1000E000012AA002150126A002950175108100C009
:1000F00005010906A1018506050719E029E7150094
:1001000025019508750181020507190029EF1500E1
:10011000250195F07501810205081901290595054C
:1001200075019102950175039101C005010902A1B4
:10013000010901A1000509190129081500250195EA
:1001400008750181020501093009311581257F9566
:10015000027508810609381581257F95017508818A
:1001600006050C0A38021581257F95017508810660
:10017000C0C005010906A101050719E029E715001E
:100180002501950875018102950175088101050712
:10019000190029FF150026FF009506750881000546
:1001A00008190129059505750191029501750391BD
:1001B00001C000000000000000000000000000007E
:1001C0000097CEFF97CEFF97CEFF97CEFF97CEFF3B
:1001D00097CEFF97CEFF97CEFF97CEFF97CEFF9794
:1001E000CEFF97CEFF97CEFF97CEFF97CEFF97CE4D
:1001F000FF00000000000000000000000000000000
:1002000000000000000000000097CEFF97CEFF978F
:10021000CEFF97CEFF97CEFF97CEFF97CEFF97CE1C
:10022000FF97CEFF97CEFF97CEFF97CEFF97CEFFDB
:1002300097CEFF97CEFF97CEFF0000000000000092
:1002400000000000000000000000000000000000AE
:100250000097CEFF97CEFF97CEFF97CEFF97CEFFAA
:1002600097CEFF97CEFF97CEFF97CEFF97CEFF9703
:10027000CEFF97CEFF97CEFF97CEFF97CEFF97CEBC
:10028000FF0000000000000000000000000000006F
:10029000000000000000000000000000000000005E
:1002A000000000000000000000000097CEFF97CE85
:1002B000FF97CEFF97CEFF00000000000000000077
:1002C000000000000000000000000000000000002E
:1002D000000000000000000000000000000000001E
:1002E0000097CEFF97CEFF97CEFF97CEFF97CEFF1A
:1002F00097CEFF97CEFF97CEFF97CEFF000000006E
:10030000000097CEFF97CEFF97CEFF97CEFF97CEF8
:10031000FF000000000000000000000000000000DE
:1003200000000000000000000000000000000000CD
:10033000000000000000000000000097CEFF97CEF4
:10034000FF97CEFF97CEFF000000000000000000E6
:10035000000000000000000000000000000000009D
:10036000000000000000000000000000000000008D
:100370000097CEFF97CEFF97CEFF97CEFF97CEFF89
:1003800000000097CEFF97CEFF97CEFF97CEFF00DD
:10039000000000000000000000000000000097CEF8
:1003A000FF0000000000000000000000000000004E
:1003B000000000000000000000000000000000003D
:1003C000000000000000000000000097CEFF97CE64
:1003D000FF97CEFF97CEFF00000000000000000056
:1003E00000000000000097CEFF00000000000000A9
:1003F00000000000000000000000000000000000FD
:1004000000000000000000000000000000000000EC
:1004100000000097CEFF97CEFF97CEFF97CEFF004C
:1004200000000000000000000000000000000000CC
:1004300000000000000000000000000000000000BC
:1004400000000000000000000097CEFF97CEFF974D
:10045000CEFF97CEFF97CEFF97CEFF97CEFF97CEDA
:10046000FF97CEFF97CEFF97CEFF97CEFF97CEFF99
:1004700097CEFF97CEFF97CEFF0000000000000050
:10048000000000000000000000000000000000006C
:10049000000000000000000000000000000000005C
:1004A00000000097CEFF97CEFF97CEFF97CEFF00BC
:1004B000000000000000000000000000000000003C
:1004C000000000000000000000000000000000002C
:1004D00000000000000000000097CEFF97CEFF97BD
:1004E000CEFF97CEFF97CEFF97CEFF97CEFF97CE4A
:1004F000FF97CEFF97CEFF97CEFF97CEFF97CEFF09
:1005000097CEFF97CEFF97CEFF00000000000000BF
:1005100000000000000000000000000000000000DB
:1005200000000000000000000000000000000000CB
:1005300000000097CEFF97CEFF97CEFF97CEFF002B
:10054000000000000000000000000000000097CE46
:10055000FF0000000000000000000000000000009C
:1005600000000000000000000097CEFF97CEFF972C
:10057000CEFF97CEFF97CEFF97CEFF97CEFF97CEB9
:10058000FF97CEFF97CEFF97CEFF97CEFF97CEFF78
:1005900097CEFF97CEFF0000000000000000000093
:1005A000000000000000000000000000000000004B
:1005B000000000000000000000000000000000003B
:1005C000000000000000000000000000000000002B
:1005D000000000000000000000000000000000001B
:1005E0000000000000000000000000000097CEFFA7
:1005F00097CEFF00000000000097CEFF0000000033
:10060000000097CEFF97CEFF97CEFF00000097CE59
:10061000FF97CEFF97CEFF97CEFF000000000000AF
:1006200097CEFF00000097CEFF0000000000000002
:1006300000000102E0610102E1650103E10103E064
:100640000001014F01015000010001000100010003
:10065000010000000100140004681D0001000751A2
:1006600001001A0016641B0001002B420100080063
:100670000761060001002A41010015000962190006
:1006800029430100010017000A00050000000100D5
:100690000100010000000100000001000100010054
:1006A0000000010000002C0901001C000B001100DB
:1006B00000000100010018000D6210004C4601000E
:1006C00001000C000E61360001002C4401001200F4
:1006D0000F643774010028450100130034683800A6
:1006E0000100010001000100010001000100000003
:1006F00001000100010001000100000001000000F4
:10070000E30000000100010001000000E200000021
:100710000100000001000000E000000001000100F5
:1007200001000000E10000000000010001000000E5
:1007300000000000000001000100010000000100B5
:1007400000000100010001000000010000000100A4
:1007500001001D0A50004A000000010001001908B4
:1007600051004E00010001000100060852004B003C
:1007700001002A0001001B084F004D000100280065
:1007800001001D08AD5DB55D010001000100010023
:100790000100010001000000010001000100010052
:1007A0000100000001000000E30000000100010062
:1007B00001000000E2000000010001000100000053
:1007C000E00000000100000001000000E100000066
:1007D0000000010001000000000000000000010016
:1007E0000100010000000100000001000100010003
:1007F000000001000000010001001D0AEF000000E0
:100800000000010001001908EE00FB00F3000100E8
:1008100001000608ED00FA000100F10001001B08CC
:10082000F000F9000100F20001001D080000FC00CA
:1008300001000100010001000100010001000000B1
:1008400001000100010001000100000001000000A2
:10085000E30000000100010001000000E2000000D0
:100860000100000001000000E000000001000000A5
:1008700001000000E1000000010001000100000093
:100880000000000000000100010001000000010064
:100890000000010001000100000001000000010053
:1008A0000100C35C00000000000001000100C45C06
:1008B000AC000000A80001000100C65CAA00000016
:1008C0000100AE000100C85CA90000000100AD00FD
:1008D0000100CA5CAB000000010001000100010042
:1008E0000100010001000000010001000100010001
:1008F0000100000001002F0033023500010001005B
:100900000100240021001E00010027000100250035
:1009100022001F0001002D000100260023002000FE
:1009200037000100010030002E00310000000100FE
:1009300001000100000001000000010001000100B1
:1009400000000100000001000100000000000000A4
:100950000000010001000000E100000000000100B3
:1009600001000000E00000000100010001000000A3
:10097000E20000000100000001000000E3000000B0
:100980000100010001000100010001000100000060
:1009900001000100010001000100000001002F0220
:1009A00033003502010001000100240221021E0271
:1009B000010027020100250222021F0201002D0270
:1009C000010026022302200226020100010030025B
:1009D0002E023102000001000100010000000100B0
:1009E0000000010001000100000001000000010002
:1009F00001000000000000000000010001000000F4
:100A0000E10000000000010001000000E000000023
:100A10000100000001000000E200000001000100F0
:100A200001000000E30000000100010001000100DE
:100A300001000100010000000100010001000100AF
:100A400001000000010045004400430001000100D6
:100A5000010040003D003A0001002B000100410070
:100A60003E003B0001002C00010042003F003C0022
:100A7000000001000100460047004800000001009E
:100A80000100010000000100000001000100010060
:100A90000000010000000100010000000000000053
:100AA0000000010001000000E10000000100010061
:100AB00001000000E0000000010000000100000053
:100AC000E20000000100000001000000E30000005F
:100AD000010001000100010001000100010000000F
:100AE00001000100010001000100000001002C05CF
:100AF00050050000010001000100520528055105C4
:100B000001000000200A00004F0500000100000065
:100B1000210A0000000000003108010001002C043F
:100B20002C08190A0000010001000100000001006A
:100B300000000100010001000000010000000100B0
:100B400001000000000000000000010001000000A2
:100B50000000000000000100010000000000000093
:100B60000100000001000000000000000100000082
:100B70000100000000000000010001000100010070
:100B8000010001000100000000010101010101015B
:100B90000101020202020202020202030303030332
:100BA0000303030404040404040405050505050601
:100BB00006060606070707070708080808090909BF
:100BC000090A0A0A0B0B0B0C0C0C0D0D0D0E0E0E68
:100BD0000F0F0F10101111111212131314141515F9
:100BE00016161717181819191A1A1B1B1C1D1D1E6B
:100BF0001E1F2020212222232424252626272829BF
:100C0000292A2B2C2D2D2E2F3031323233343536EC
:100C10003738393A3B3C3D3E3F40414243444546EC
:100C20004748494A4C4D4E4F5051535455565859C8
:100C30005A5B5D5E5F616264656668696B6C6D6F6F
:100C40007072737577787A7B7D7E808283858788E2
:100C50008A8C8E8F91939596989A9C9EA0A2A3A51C
:100C6000A7A9ABADAFB1B3B5B7BABCBEC0C2C4C61D
:100C7000C9CBCDCFD1D4D6D8DBDDDFE2E4E7E9EBD9
:100C8000EEF0F3F5F8FAFDFF004434540074648488
:100C900000554565008575950036264600665676F2
:100CA000009686A6003727470077678700382848D0
:100CB000008878980039294900695979009989A9EB
:100CC000003A2A4A006A5A7A003B2B4B006B5B7B46
:100CD000004C3C5C007C6C8C005D4D6D008D7D9DFE
:100CE000003E2E4E006E5E7E0144345401746484D6
:100CF000015545650185759501362646016656768E
:100D0000019686A60137274701776787013828486B
:100D1000018878980139294901695979019989A986
:100D2000013A2A4A016A5A7A013B2B4B016B5B7BE1
:100D3000014C3C5C017C6C8C015D4D6D018D7D9D99
:100D4000013E2E4E016E5E7E5B5D002829007B7D9C
:100D50000009025400030100A0FA09040000010385
:100D60000101000921110100012240000705810352
:100D70000800010904010001030102000921110119
:100D80000001224700070582030800010904020050
:100D90000103000000092111010001226D00070577
:100DA0008303200001120100020000000897327640
:100DB0004901000102000120034500720067006F35
:100DC0000044006F007800200045005A00200047D2
:100DD000006C006F007700000028035A00530041A8
:100DE00000200054006500630068006E006F006C16
:100DF000006F006700790020004C00610062007302
:100E000000000004030904000000000000000000CE
:100E100000000000000000000000000000000000D2
:100E200000000000000000000000007E0F00D4FF62
:100E3000FFFFC70000007800000000000000002A4B
:100E40002B2800000000000000000000000000004F
:100E5000000029000000002C1E342021222434260A
:100E600027252E362D3738271E1F20212223242503
:100E7000263333362E37381F0405060708090A0BB8
:100E80000C0D0E0F101112131415161718191A1B2A
:100E90001C1D2F3130232D350405060708090A0BC8
:100EA0000C0D0E0F101112131415161718191A1B0A
:100EB0001C1D2F3130354C0011241FBECFEFDAE05E
:100EC000DEBFCDBF26E0A6E6B2E001C01D92A73589
:100ED000B207E1F712E0A0E0B1E0E0E2F8E702C01B
:100EE00005900D92A636B107D9F70E9455330C94A0
:100EF000CA3B0C94000090914D06937061F08111F3
:100F00000BC0946090934D061092360180914C0670
:100F1000816080934C0608958F3110F09867F2CF6E
:100F2000880F880F982BEECF90914D06937059F053
:100F300080934E0660934F064093500680914C0676
:100F4000816080934C060895E8EDF0E080818E7F0B
:100F500080831092E2001092DA001092E100A0EE7D
:100F6000B0E08C9181608C9380818F77808319BCF5
:100F7000A7EDB0E08C918E7F8C9380818F7E8083F3
:100F80001092190608952091E4003091E50095E64D
:100F9000A9012091EC00822F817020FF06C0809172
:100FA000E80080FF06C080E008952091E80022FD5F
:100FB0001AC080913E06882389F0853089F080919F
:100FC000EB0085FD0FC02091E4003091E500421751
:100FD0005307F9F29150E1F684E0089582E0089514
:100FE00083E0089581E00895EF92FF920F931F939D
:100FF000CF937C018B010E94C307C82F811117C0BA
:101000008091E80085FD0BC08091E8008E77809389
:10101000E8000E94C307882399F3C82F08C0F7018E
:1010200081917F018093F1000150110949F78C2FC4
:10103000CF911F910F91FF90EF90089580914006FE
:1010400087FF13C08091E80082FF06C08091E8000E
:101050008B778093E80004C080913E068111F2CF27
:10106000089580913E068823D9F38091E80080FF9F
:10107000F8CF8091E8008E77ECCF982F9093E9001D
:10108000242F762F50E0891731F07091EC002091D9
:10109000ED005091F00021FD07C09F5F973071F780
:1010A0008093E90081E008953091EB003E7F30931A
:1010B000EB003091ED003D7F3093ED003091EB007F
:1010C00031603093EB007093EC002093ED0050936F
:1010D000F0002091EE0027FDE0CF80E00895B0E021
:1010E000A0E0E5E7F8E00C948337C8EDD0E0888114
:1010F0008F7E8883E7EDF0E080818160808384E0EB
:1011000082BF81E08093190688818E7F888302EEFA
:1011100010E0F80110821092DA0081EEC82ED12C76
:10112000F601108288818F77888388818068888320
:1011300088818F7D888319BC10923E0610923F06ED
:1011400010923D0610923C0690EEE92EF12CF7012C
:1011500080818B7F808388818160888342E060E02A
:1011600080E00E943D08F60180818E7F8083F80137
:10117000808181608083808188608083F7018081A5
:101180008E7F8083888180618883CDB7DEB7E8E079
:101190000C949F37FC018091460690914706861774
:1011A0009707A0F06115710529F49091E8009E77EA
:1011B0009093E80090E06115710551F4911108C019
:1011C0008091E80082FF34C080E00895BC01F2CF36
:1011D00080913E068823C1F18530C1F18091E800FD
:1011E00083FD30C08091E80082FDEACF8091E80065
:1011F00080FFE1CF8091F3002091F200382F61153C
:10120000710519F02830310558F091E0283031058A
:1012100009F090E02091E8002E772093E800CBCFF2
:1012200081918093F100615071092F5F3F4FE7CFAB
:1012300080913E06882341F0853041F08091E8009E
:1012400083FFBECF81E0089582E0089583E0089592
:10125000089580911B06089520910D0630910E0689
:101260002817390771F090930E0680930D06E091D0
:101270000B06F0910C06309721F00084F185E02DEB
:10128000099508952091090630910A062817390713
:1012900071F090930A0680930906E0910B06F09195
:1012A0000C06309721F00680F781E02D099508950E
:1012B000E0910B06F0910C06309729F00190F08137
:1012C000E02D0995089580E00895DC016091050600
:1012D00080910606962F891301C00895292F30E0CA
:1012E000F901EE0FFF1FE350FA4F408151814A1779
:1012F0005B07A1F487E08A9FA0018B9F500D11240A
:10130000445E5E4F81E0FA0184839613E6CF2F5F3F
:101310003F4F237033272093050608952F5F3F4FDB
:10132000922F9370D8CF1092990510929805ECE106
:10133000F1E08581811102C014821682379681E026
:10134000E133F807B1F70895FA01811101C0FB01FB
:10135000099508958093520680914C068160809390
:101360004C060895EDE4F6E0248130E1231B08F4F7
:1013700020E0248380914C06816080934C06089580
:10138000EDE4F6E0248130E1230F08F42FEF24830D
:1013900080914C06816080934C060895EDE4F6E060
:1013A000438120E1421B08F440E08181628190E0AA
:1013B0000E9494070895EDE4F6E0438120E1420F96
:1013C00008F44FEF8181628190E00E9494070895B4
:1013D000EDE4F6E0628120E1621B08F460E08181C7
:1013E000438190E00E9494070895EDE4F6E0628165
:1013F00020E1620F08F46FEF8181438190E00E9449
:1014000094070895EDE4F6E081814381628188507C
:10141000990B0E9494070895EDE4F6E0818190E035
:101420004381628108960E949407089580914D0639
:1014300086958695815009F48EE10E947B07089578
:1014400080914D06869586958F5F8F3108F081E0FB
:101450000E947B07089580914D06837011F41092CD
:10146000360180914D068C7F816080934D060895F2
:10147000E42FF0E0EE0FFF1FEA52FE4F9081921B27
:1014800097FD9195292F38E1239F212D1124620F7B
:1014900008950F931F9310E0F801EE0FFF1FEA521B
:1014A000FE4F9081905797FD9195000F111FF80105
:1014B000E952FE4F00810052110B2003F001219FE1
:1014C000F00D112408E310E0091B110997FD139595
:1014D00040039001419F300D1124E20FF31F9F0143
:1014E000220F331F2E0F3F1F37FF02C021583F4FDF
:1014F000220F232F221F330B620F1F910F9108958C
:101500000F931F93522F10E0F801EE0FFF1FE952C7
:10151000FE4FA081A052BB0B9D015203F001539FCF
:10152000F00D1124000F111FD801AA52BE4F0C91CB
:101530000057110B40039001419F300D11242E0FD5
:101540003F1F37FF02C0215C3F4F96E0359527953E
:101550009A95E1F7620F1F910F9108950F931F93D2
:10156000522F10E0F801EE0FFF1FE952FE4FA0814D
:10157000A052BB0B9D015203F001539FF00D1124AB
:10158000000F111FD801AA52BE4F0C910057110B2A
:1015900040039001419F300D11242E0F3F1F37FF54
:1015A00002C021583F4F220F232F221F330B620FFF
:1015B0001F910F910895EF920F93972F23E0029FB1
:1015C000B0011124759567956E0D792F0F91EF90ED
:1015D0000895322F50E0FA01EE0FFF1FE952FE4F3F
:1015E0009081905297FD9195440F551FFA01EA5250
:1015F000FE4F2081231B330B290F311D97FD3A9598
:10160000620F0895E42FF0E0EE0FFF1FE952FE4F46
:101610006081621B0895E42FF0E0EE0FFF1FEA5295
:10162000FE4F6081621B0895622F0895E42FF0E061
:10163000EE0FFF1FEA52FE4F408134EE439F412DD3
:101640001124E82FF0E050E0445E5F4FDA01A21B66
:10165000B1099D01B7FF03C031952195310993E090
:10166000220F331F9A95E1F7AF01421B530B9A01EA
:1016700057FD20E0582F259F212D1124822F0895FA
:10168000E42FF0E0EE0FFF1FEA52FE4F408134EEF0
:10169000439F412D1124E72FF0E050E0445E5F4F5F
:1016A000DA01A21BB1099D01B7FF03C03195219555
:1016B000310993E0220F331F9A95E1F7AF01421BE6
:1016C000530B9A0157FD20E0279F212D1124722FE3
:1016D00008950E94D21508950E9494150895FC0162
:1016E0009B01009729F480E077FF2BC080E80895E4
:1016F000AC0197FF04C044275527481B590BB9017B
:10170000640F751F37FD10C0241B350BC901A5E000
:10171000880F991FAA95E1F70E94BC3780E2861BCB
:10172000F7FF0FC081950895CB0165E0880F991FE1
:101730006A95E1F7BA01621B730B0E94BC3780E621
:10174000EECF0895EF920F93CF93DF93D72FC82F4B
:10175000C9010E19BA010E946F0B602F681B7D2F03
:101760008C2FDF91CF910F91EF9008950F93CF932E
:10177000DF93D72FC82FC901BA010E946F0B682FC2
:10178000600F7D2F8C2FDF91CF910F910895EF92F5
:101790000F931F93CF93DF93D62FC72F182FC90115
:1017A0000E19010FBA010E946F0B081B202F219FF9
:1017B000212D1124822F6D2F7C2FDF91CF911F912E
:1017C0000F91EF900895EF920F931F93CF93DF93B4
:1017D000D62F172FC82FC9010E19070FBA010E9463
:1017E0006F0B702F781B719F712D11246D2F8C2F13
:1017F000DF91CF911F910F91EF9008950F931F9359
:10180000CF93DF93D62FC72F182FC901212F201B6D
:10181000022FBA010E946F0B982F990F990F891B05
:10182000800F282F219F212D1124822F6D2F7C2F97
:10183000DF91CF911F910F9108950F931F93CF9335
:10184000DF93D62F172FC82FC901272F201B022F58
:10185000BA010E946F0B982F990F990F782F791B5F
:10186000700F719F712D11246D2F8C2FDF91CF91EF
:101870001F910F910895E82F86FDE0952E2F2F7070
:1018800086FD2F5FE695E695E695E670F0E0E55972
:10189000FE4F9181929F902D212D112492959F7042
:1018A0002295207F922B2081920F87FD919580E8D1
:1018B000890F08950F931F93CF93DF938B01D82F38
:1018C000C42F822F0E943B0CEC2FF0E0EE0FFF1F85
:1018D000EA52FE4F90819058890F87FD8195880FBD
:1018E000682F2CE0629F612D1124600F712F8D2FC6
:1018F000DF91CF911F910F91089540911801509160
:10190000190125E038E0429FC001439F900D529F8E
:10191000900D1124875E994C9093190180931801C2
:10192000890F0895AC018230910508F408959FEF66
:10193000413E8EE1580740F49A0195E0369527958F
:101940009A95E1F798E0920F61E0E62FE90FFF2703
:10195000FF1F9F0135952795822F229FF001239F1E
:10196000F00DF00D11244E175F0738F49FEF920F22
:10197000961758F78FEF860F08952F3FE9F361E030
:10198000620FF6CF0F93CF93DF93D72FC82F47FD6A
:10199000419588E390E0841B910947FD9395889FCA
:1019A000B001899F700D700D1124229FC001239FEB
:1019B000900D900D1124860F971F0E94920C982F66
:1019C000990F890F682F600F7D2F8C2FDF91CF919A
:1019D0000F91089530E020E0869F212D969F200DE5
:1019E000311D1124C90108952091510630E1230FC2
:1019F00008F42FEF60E1822F90E00E94EA0CBC0116
:101A000088EB9BE00E94653790E080E00895AF92FC
:101A1000BF92CF92DF92FF920F931F93CF93DF93EA
:101A2000362F472FE82FF0E0E857F44F71110FC021
:101A3000E4918E2F2E2F6E2F722FDF91CF911F9159
:101A40000F91FF90DF90CF90BF90AF900895C72F78
:101A5000D0E02491F22E022F10E056E0659FC001E5
:101A60001124EFEFF0E0BF010E946537832F90E073
:101A7000880F991F35E5369FD001379FB00D11248F
:101A80008A1B9B0B982F990F980F6F01CC1ADD0AB8
:101A9000C09ED001C19EB00DD09EB00D11248B2FE1
:101AA000499FA0011124452F55276F01C41AD50A5B
:101AB000C09EA001C19E500DD09E500D11245F010B
:101AC000A91AB108AC9E6001AD9ED00CBC9ED00C92
:101AD0001124CD2CDD24EC19FD09E09FE001E19FEC
:101AE000D00DF09FD00D1124ED2F62307105A1F0C3
:101AF00050F46115710509F49ECF6130710581F0D4
:101B0000EB2F852F98CF6430710569F080F0663037
:101B1000710509F490CFF4CFE22F2B2F8D2F8BCFAF
:101B2000E22F252F88CFEB2F822F2D2F84CF2B2F25
:101B30008F2DE52F80CFB0E0A0E0E1EAFDE00C942E
:101B400084378C01FC01EA5CFD4F8081682349F1F8
:101B5000D0904F06D0915006C0914E06EC2EF12C3D
:101B60000E947D0C282FC7018C549F4F68E671E0BE
:101B70000E94BC378E199F0997FD0396959587950E
:101B80009595879523706C2F289F600D11247D2DCE
:101B90008D2F0E94070D462F282F672FC8010E9406
:101BA0006C0BCDB7DEB7E7E00C94A037B0E0A0E057
:101BB000ECEDFDE00C9484377C0180913301C82F5B
:101BC000CC0FCC0FC80F15E01C0F012F113308F0FC
:101BD00000E3609151066695669521E0620F08F476
:101BE0006FEF80914806909149060E94EA0CD82E2A
:101BF000D0E0C01748F081E0103308F080E0CDB7A6
:101C0000DEB7E7E00C94A037FE01EA5CFD4F80816F
:101C100090913401892391F060914E0670914F06A6
:101C2000809150062D2D4C2FF70109950E94070D2C
:101C3000462F282F672FCE010E946C0B2196D9CFFB
:101C4000B0E0A0E0E6E2FEE00C9480376C01809109
:101C50003301C82FCC0FCC0FC80F15E01C0FB12ECD
:101C6000113310F030E3B32E6091510666956695FE
:101C700080914806909149060E94EA0CF82E80E473
:101C80008F0D0E943B0C90E8A92EA80E8F2D0E946C
:101C90003B0C20E8922E980ED0E0CB1548F081E066
:101CA000103308F080E0CDB7DEB7EBE00C949C3742
:101CB000FE01EA5CFD4F8081909134018923A1F0FF
:101CC00060914E0670914F0680915006EF2C0C2FBC
:101CD000292D4A2DF60109950E94070D462F282F20
:101CE000672FCE010E946C0B2196D7CFB0E0A0E009
:101CF000ECE7FEE00C947E375C0180913301C82F45
:101D0000CC0FCC0FC80F15E01C0FF12E113310F0C3
:101D100030E3F32E609151066695809148069091CC
:101D200049060E94EA0C782ED0E0CF1548F081E0F9
:101D3000103308F080E0CDB7DEB7EDE00C949A37B1
:101D4000FE01EA5CFD4F8081909134018923C9F145
:101D5000CE01880F991F8E579E4FFC01EC5AFF4F02
:101D60002081422F4057550B6A018B5A9F4FFC012F
:101D70008081282F2052330B4901449F9001459FB9
:101D8000300D300D1124889CC001899C900D900D60
:101D90001124820F931F0E94920C082F60914E060F
:101DA00070914F0680915006E72C9401A601F50131
:101DB00009950E94070D462F282F672FCE010E94FC
:101DC0006C0B2196B2CFB0E0A0E0E9EEFEE00C94FF
:101DD00083377C0180913301C82FCC0FCC0FC80F03
:101DE00015E01C0FD12E113310F030E3D32E60918B
:101DF0005106669580914806909149060E94EA0C2A
:101E0000C82ED0E0CD1548F081E0103308F080E016
:101E1000CDB7DEB7E8E00C949F37FE01EA5CFD4FDA
:101E2000808190913401892311F1CE01880F991F8F
:101E30008E579E4FFC01EB5AFF4F20812052330BEF
:101E40008C5A9F4FFC0140814057550B60914E06C4
:101E500070914F06809150060C2DF70109950E9454
:101E6000070D462F282F672FCE010E946C0B21965D
:101E7000C9CF409166038D3E59F48091670387FF77
:101E80000DC01092670341110BC010925F0308C090
:101E90008E3E81F48091670318169CF3442381F0F1
:101EA0008091680390916903892B09F05AC01092C0
:101EB0005E0308958F3E49F447FFF0CF109266030A
:101EC000809167038111ECCFE0CF803F19F41416A5
:101ED000ACF3E4CF90916803893F29F41916F4F626
:101EE00010926803DBCF8A3F19F497FFD7CFF8CF62
:101EF000909169038B3F29F497FFD0CF109269032B
:101F0000CDCF8C3F19F41916CCF3C8CF9FE0980FB2
:101F1000983090F4815F990B21E030E0B90102C064
:101F2000660F771F8A95E2F7CB0180959091650344
:101F3000892380936503B2CF8D3F31F48091600394
:101F40008E7F80936003AACF8E3F21F4809160033F
:101F50008D7FF7CF8F3F09F0A1CF809160038B7FFA
:101F6000F0CF08958091600380FD1AC081FD14C0F8
:101F700082FD14C080915E03882391F08C3370F44D
:101F800027E0829FC00111246CE370E00E94BC37FF
:101F9000862F672B29F0089583E0089587E0089540
:101FA00081E008958091600380FD16C081FD16C018
:101FB00082FD18C080915F03882391F08C3390F4E8
:101FC00028E3829FC00111246CE370E00E94BC37BB
:101FD000862F672B49F008958EE008958CE10895CF
:101FE00088E0089588E3089581E008958D3E31F4F6
:101FF0000E94D20F81958093670308958E3E19F455
:102000000E94D20FF8CF8F3E31F40E94D20F8195FB
:10201000809366030895803F19F40E94D20FF8CF91
:10202000893F29F40E94B20F8093680308958A3F84
:1020300021F40E94B20F8195F7CF8B3F31F40E94BB
:10204000B20F81958093690308958C3F19F40E9423
:10205000B20FF8CF9FE0980F983070F4815F990B22
:1020600021E030E001C0220F8A95EAF780916503F4
:10207000822B8093650308958D3F31F48091600336
:1020800081608093600308958E3F21F48091600306
:102090008260F7CF8F3FB9F7809160038460F1CF02
:1020A00080E008959091140692FF06C0282F2871B1
:1020B0002830F9F4877F846093FF06C0282F2871A9
:1020C0002831F1F4877E84612091150620FF06C037
:1020D000382F38713830D9F4877F816021FF06C0EE
:1020E000282F28712831D1F4877E816194FD877E65
:1020F0000895282F24712430F9F68B7F8860DCCF77
:10210000282F2471243101F78B7E8861DDCF382F91
:102110003171313019F78E7F8860E0CF282F21711F
:10212000213121F78E7E8861E1CF972F7E30A8F490
:10213000663098F470E026E0929F600D711D1124C6
:10214000FB0194E5899FE00DF11D1124EE0FFF1FA7
:10215000E85BF94F85919491089580E090E00895AF
:10216000CF93DF93EC0182389105B1F108F040C0C4
:102170008133910509F49DC048F58932910509F430
:102180008DC08A9709F49CC0C11521E5D20708F0DB
:10219000C3C0C11530E5D30708F01EC1C83ED10544
:1021A00008F0A3C0C03ED10588F5C83AD10508F0B3
:1021B0008EC0C53AD10508F007C1C130D10531F153
:1021C000209721F1C430D10508F545C0853391052C
:1021D00009F45FC0C997C1F680911406837009F0B5
:1021E00043C18091150683FF11C0C9E2D0E00EC043
:1021F000833E910599F170F4803E910501F1823E94
:10220000910511F68091140682FD21C0CE01DF9167
:10221000CF910895863E910561F1873E910571F158
:10222000843E910509F0B0CF8091150681FFEECF75
:1022300080911406C7EED0E084FD0DC0E7CF8091F9
:10224000140680FD33C09091150690FFDFCFC3EEDA
:10225000D0E084FFDBCFD0E0C0E0D8CF809114067F
:1022600082FDFFC09091150690FDFEC084FFCECF89
:10227000F2CF8091140683FDDDCFC8CF8091140684
:1022800083FDF5C09091150691FFF0CFC4EED0E02C
:10229000BDCF8091140685FFB9CFA7CF80911406DA
:1022A00085FDE8C08091150683FFB0CFC9E3D0E07B
:1022B000ADCF8091140686FFA9CFCAE2D0E0A6CFA9
:1022C0008091140686FFA2CFC1E3D0E09FCFCF3B21
:1022D000D10508F6C85AD0E0CC0FDD1FC35CDE4F35
:1022E0000990D881C02DD46491CFC11540E2D407A4
:1022F00058F4C11581E0D80708F088CFCD3ED1054C
:1023000008F4A9CFD06582CFC11520E4D20708F424
:10231000A2CFDF70D06A7ACFC11535E5D30718F5A3
:10232000C11544E5D40708F084C0C11583E5D8077A
:1023300008F06BC0C11522E5D20708F461C0CE01D8
:102340008370992721E030E002C0220F331F8A9565
:10235000E2F7C695C69580E2C89FE0011124C22B22
:10236000D32BDC6853CFC11539E5D307A8F4C115C9
:1023700048E5D40708F062C0C11586E5D80708F023
:102380006ACF8C2F0E945210C82FD0E0DC2FCC27B0
:10239000CC27DF71D0623ACFC1152AE5D20708F405
:1023A00052C0CE0190568115904208F054CF8D2F27
:1023B0008F710E94521090E0982F882788279F7174
:1023C0009C012C2BE901E6CFC55AD0E0C65CDE4F5C
:1023D000C881D0E0D0641ACFCE018370992721E064
:1023E00030E002C0220F331F8A95E2F7C695C695EA
:1023F00040E2C49FE0011124C22BD32BDD6806CF3D
:10240000DC2FCC27C16FD06A01CFCE018370992712
:1024100021E030E002C0220F331F8A95E2F7C69513
:10242000C69540E2C49FE0011124C22BD32BDA6889
:10243000EDCEDC2FCC27C46FD06AE8CEDC2FCC27C2
:10244000C06FD06AE3CE8C2F8F700E94521034E0A0
:10245000D695C7953A95E1F7CF709C2FEC01D069DE
:10246000D5CEC2EED0E0D2CEC0EED0E0CFCEC6EE1A
:10247000D0E0CCCEC5E3D0E0C9CE8091230381115A
:1024800010922303089580959091220398239093AE
:1024900022030895909132019923D1F0909114066E
:1024A00097FF16C0E82FE695E695E695EE31E0F445
:1024B000F0E0E859FD4F282F277081E090E001C03F
:1024C000880F2A95EAF7809592818923828308955F
:1024D000EAE6F2E09191891303C0DF0111971C92A3
:1024E00092E0E037F907B1F708959091320199230E
:1024F000C1F09091140697FF14C0E82FE695E69579
:10250000E695EE31F8F4F0E0E859FD4F877021E0F0
:1025100030E001C0220F8A95EAF78281822B828304
:102520000895AAE6B2E0EFEF90E02D91821751F006
:10253000EF3F19F4211101C0E92F9F5F9630A9F7F1
:10254000EF3F09F408950E2E000CFF0BE859FD4FE4
:10255000E6CF809100039091BF02981301C00895C7
:102560008F5F8770FACFB0E0A0E0E9EBF2E10C9466
:1025700082377C010091340410913504809124034A
:1025800090912503082B192BCFE0D0E0CC24C394E5
:10259000D12CBC2EC6010C2E02C0880F991F0A94A4
:1025A000E2F780239123892B49F4219790F7B12CEE
:1025B0008B2DCDB7DEB7E9E00C949E37B7018C2F99
:1025C0000E9495100E94B010019779F3F1CFCF933C
:1025D000DF93EC010E94B312BE010E9495100E948D
:1025E000B010DF91CF9108959E3078F5863068F570
:1025F000E82FF0E086E0989FE00DF11D11249E2F5A
:10260000977083E0F695E7958A95E1F7EE0FFF1F47
:10261000EE0FFF1FE557FD4F50E040E080E02191B5
:1026200030E0092E02C0369527950A94E2F7217012
:102630003327042E01C0220F0A94EAF7822B4F5F42
:102640005F4F4430510559F7089580E008959E305A
:1026500098F5863088F5E82FF0E086E0989FE00D49
:10266000F11D11248E2F877041E001C0440F8A951F
:10267000EAF783E0F695E7958A95E1F7EE0FFF1FFD
:10268000EE0FFF1FE557FD4F30E020E070E0519165
:10269000DF011197CB01022E02C0969587950A940F
:1026A000E2F7817081958527842385278C932F5F9E
:1026B0003F4F2430310559F70895FC0183819481FF
:1026C000892B29F08081918189238F3FF1F480E06B
:1026D00008950E94B01092959F70963089F058F43A
:1026E000925F9F70923098F7803F19F030F4883EE7
:1026F00070F781E008959A5FF4CF843F41F7F9CFF6
:10270000883EB8F3813F19F7F4CF8681978100970F
:1027100001F7808191810E94E712DDCFA5E0B0E052
:10272000E4E9F3E10C9488379C01FC0186819781F0
:102730000097E1F485E0DE01119601900D928A95F3
:10274000E1F7F901228189819A81222399F0662398
:1027500089F00E94B312182F682F89819A810E94F4
:10276000271369817A81812F0E9495102596E3E0D5
:102770000C94A4370E94F412182FF3CFB0E0A0E01D
:10278000E4ECF3E10C94803720E9289FE001299FD5
:10279000D00D1124CE54DE4F10E000E0FE01649114
:1027A0003196749131968491962F972B982B89F4BA
:1027B00020E040E060E0C8010E946C0B0F5F1F4FFB
:1027C00023960033110551F7CDB7DEB7EBE00C943B
:1027D0009C370E94070D962EB72EA82E60915006AA
:1027E00070E090E080E00E94CF3A20E030E04FE7D8
:1027F00053E40E942E3A6B017C016A2D70E090E058
:1028000080E00E94D13AA70196010E945D3B0E94A0
:10281000A03AA62E692D70E090E080E00E94D13AA7
:10282000A70196010E945D3B0E94A03A962E6B2D57
:1028300070E090E080E00E94D13AA70196010E94EA
:102840005D3B0E94A03A2A2D492DB5CF27982F989D
:10285000089526982E98089525982D9808955698AD
:102860005E980895279A2F9A0895269A2E9A089589
:10287000259A2D9A08951F93CF93DF93182FD92F60
:10288000892F90E0C8E0009719F4812F9D2FC0E0B8
:102890009C0154E0369527955A95E1F721153105AD
:1028A00011F0CC5FC9019C01369527953695279587
:1028B0002115310511F0CE5FC90196958795892BB9
:1028C00009F0CF5F0E942F140E942C140E9429143B
:1028D0000E942614C150C73040F4EC2FF0E0E453BE
:1028E000F44C0C94D0370E943814812F9D2FDF9127
:1028F000CF911F9108950E9438140E943514F5CF8E
:102900000E9438140E943214F0CF0E9438140E94A2
:102910003514F8CF209828982198299822982A9839
:1029200023982B9852985A9853985B983E984698BB
:1029300008958098889A8198899A84988C9A859825
:102940008D9A86988E9A87988F9A08958093160606
:10295000709318066093170680913E06843001F547
:1029600083E08093E9008FEF9091E800815095FD1E
:1029700006C095ED9A95F1F700008111F5CF809191
:10298000E80085FF0DC050E040E063E070E086E1C4
:1029900096E00E94F4078091E8008E778093E8002B
:1029A0000895BC0184E00E94A6140895BC0183E050
:1029B0000E94A61408959C0182E08093E9009FEF95
:1029C0008091E800915085FD06C085ED8A95F1F76C
:1029D00000009111F5CF8091E80085FF0CC050E018
:1029E00040E065E070E0C9010E94F4078091E800D2
:1029F0008E778093E8000895CF93DF93EC01809168
:102A000032018823B1F18091140687FF32C060E261
:102A100083E08093E9008FEF9091E800815095FD6D
:102A200006C095ED9A95F1F700008111F5CF8091E0
:102A3000E80085FF1BC08091320170E050E040E06B
:102A4000811104C050E040E068E070E0CE010E94D7
:102A5000F4078091E8008E778093E80080E2FE0121
:102A6000ACE1B6E001900D928A95E1F7DF91CF914C
:102A7000089568E081E0CDCF0E942F140E942C14AD
:102A80000E9429140E9426148FEF90E090938900F1
:102A90008093880090938B0080938A0090938D00A0
:102AA00080938C000E9438142FEF80E792E0215031
:102AB00080409040E1F700C000000E9435142FEFE5
:102AC00080E792E0215080409040E1F700C0000094
:102AD0000E9432142FEF80E792E021508040904016
:102AE000E1F700C000000E942C142FEF80E792E075
:102AF000215080409040E1F700C000000E9429145E
:102B00002FEF80E792E0215080409040E1F700C035
:102B100000000E9426140E942F140E942C140E9470
:102B200029140E9426140895A4E0B0E0EAE9F5E132
:102B30000C948637F62E042F122F8033910570F5F2
:102B4000880F991F880F991FBC016857734F44E085
:102B500050E0CE0101960E94323889818370EA816B
:102B6000282F30E040E9849FC00111248F5A9B4FE9
:102B7000E80FF92FF11DB497F082EB81E80FF92FE0
:102B8000F11DB4970083EC81E80FF92FF11DB49784
:102B90001083215B3B4F81E0F90180832496E5E0BF
:102BA0000C94A237FF920F931F93CF93DF93182FAC
:102BB000062FF42ED0E0C0E02F2D402F612FCE0144
:102BC0000E9494152196C033D105B1F7CDB7DEB779
:102BD000E5E00C94A2370F931F93CF93DF93082F58
:102BE000000FEB0114E210933B04ECE3F4E0DE0190
:102BF0008D91819384E0EC34F807D1F724E630E03E
:102C000041E150E06BE374E0802F0E944037105F99
:102C10006096143B41F7DF91CF911F910F9108957A
:102C200080914F04882329F061E574E084E70E94D5
:102C3000EB1510924F0480915004882329F061EE27
:102C400074E087E70E94EB15109250040895EBE3BF
:102C5000F4E06083418324E630E042E050E0BF01CD
:102C6000880F0E9440370895EF92FF920F931F93B1
:102C7000CF93DF93E82E062F10E00B561A4FF80182
:102C80008081882381F0F2E16F9FE0011124CF5809
:102C9000DA4FF12C49916F2D8E2D0E942716F39457
:102CA00082E1F812F7CFF8011082CDB7DEB7E6E087
:102CB0000C94A137CF93DF93C82F4BE06DEF0E94A8
:102CC000271640E06AE08C2F0E9427168FE39CE9CC
:102CD0000197F1F700C0000040E060E08C2F0E94F7
:102CE000271640E061E08C2F0E94271640E066E046
:102CF0008C2F0E94271640E06DEF8C2F0E94271624
:102D0000D0E040E06D2F8C2F0E942716DF5FD2317C
:102D1000C1F740E06D2F8C2F0E942716DF5FD43261
:102D2000C1F740E06D2F8C2F0E942716DF5FD43B48
:102D3000C1F74BE06DEF8C2F0E94271641E06AE04F
:102D40008C2F0E94271640E06DEF8C2F0E942716D3
:102D5000DF91CF910895A4E0B0E0E1EBF6E10C94AF
:102D60007D370E947D3684E70E945A1687E70E94CD
:102D70005A1608E81CE052E1752E68E0C62ED12CE8
:102D8000EE24E394F12C6624639444E050E0B8010F
:102D9000CE0101960E9432384A8150E0CA018497E0
:102DA0002B81622F6452770B4B012C81E22FE4526E
:102DB000FF0B5F012981237030E0FC0197FD3796FE
:102DC00043E0F595E7954A95E1F7729EA001739E61
:102DD000500D11244F585A4FE40FF52FF11DB60135
:102DE0000E94BC37A70101C0440F8A95EAF7808191
:102DF000842B8083F40197FC379693E0F595E79553
:102E00009A95E1F7729EC001739E900D11248F5820
:102E10009A4FE80FF92FF11DC401B6010E94BC378B
:102E2000A70101C0440F8A95EAF78081842B808333
:102E3000F501B7FC379683E0F595E7958A95E1F7BC
:102E4000729EC001739E900D11248F589A4FE80F07
:102E5000F92FF11DC501B6010E94BC37A70101C0C1
:102E6000440F8A95EAF78081842B80832B563A4F52
:102E7000F90160820C5F1F4FFDE008341F0709F065
:102E800084CF60E084E70E94341661E087E70E9407
:102E900034162496EEE00C9499371F93CF93DF936A
:102EA000EC01FC01EA5CFD4F80816823B1F00E94D7
:102EB0002238182F0E9422388F77782F20E8720F3F
:102EC00008F47FEF612F809150060E94070D462F76
:102ED000282F672FCE010E946C0BDF91CF911F919D
:102EE0000895A3E0B0E0E7E7F7E10C947C37182FF2
:102EF00080911B01811323C090914D069370209106
:102F00001A0130E081E09217130609F480E0817025
:102F1000809335018091520690913401981739F0D1
:102F20008093340140E060E080E00E94690B1F3133
:102F300060F4E12FF0E0ED52F44C0C94D03781E0D6
:102F4000E6CF80913501811102C019822BC040E08B
:102F500060E080E00E94690BF8CF80913301282F58
:102F6000220F220F280F2983022F0B5FF02E01332F
:102F700010F030E3F32E60914E0670914F06809171
:102F800050060E94070DE62ED72EC82E9981892F54
:102F900090E09B838A83FA81FF15E0F021E029838A
:102FA000003398F6809133018F5F8093330139812C
:102FB00031110CC082E0809336018091350181117E
:102FC00005C0111103C083E0809336012396EFE022
:102FD0000C949837EA81FB81EA5CFD4F80819091E7
:102FE0003401892339F02C2D4E2D6D2D8A819B8142
:102FF0000E946C0BEA81FB813196FB83EA83CBCF85
:1030000080913301382F330F330F380F3983032F5B
:103010000B5FF02E013310F020E3F22ED0904F061C
:10302000E090500680914E068A83682F7D2D8E2D6C
:103030000E94070DC62EB72EA82E609151069A81C8
:10304000690F7D2D8E2D0E94070DE62ED72E982E0E
:10305000F981EF2FF0E0FB83EA833A813F1518F006
:1030600081E089839DCFEA81FB81EA5CFD4F9081FD
:1030700080913401892361F0292D4E2D6D2D90FD15
:1030800003C02A2D4C2D6B2D8A819B810E946C0BD5
:103090002A813B812F5F3F4F3B832A83DECF809184
:1030A0003301982F990F990F980F9983092F0B5F70
:1030B000E02E013310F090E3E92ED0904F06C0903F
:1030C00050062091510680E4F82E3F2D329F312D7D
:1030D0001124F32E9981892F90E09B838A83FA81B2
:1030E000FE1508F05BCFEA81FB81EA5CFD4F808131
:1030F000909134018923C9F0EA81FB81EE0FFF1F13
:10310000E952FE4F808182958F7060914E068F9DAF
:10311000600D11247D2D8C2D0E94070D462F282F28
:10312000672F8A819B810E946C0BEA81FB8131961B
:10313000FB83EA83D4CF80913301382F330F330FD1
:10314000380F3983032F0B5FE02E013310F0A0E31B
:10315000EA2ED0904F06C090500620915106F0E420
:10316000FF2E3F2D329F312D1124F32E9981892F6F
:1031700090E09B838A83FA81FE1508F00FCFEA81E5
:10318000FB81EA5CFD4F8081909134018923E9F055
:10319000EA81FB81EE0FFF1FEA52FE4F6081F69E2F
:1031A000B0011124E5E075956795EA95E1F7809106
:1031B0004E06680F7D2D8C2D0E94070D462F282F5F
:1031C000672F8A819B810E946C0BEA81FB8131967B
:1031D000FB83EA83D0CF80913301382F330F330F35
:1031E000380F3983032F0B5FF02E013310F060E3AB
:1031F000F62EE0904E0680914F068A83D0905006BE
:103200006091510666956695669580914806909105
:1032100049060E94EA0C0E943B0C805887FD81956C
:10322000880F282F3D2D239F212D1124822F6E2DB5
:103230007A810E94070DE62ED72EC82E9981892FFC
:1032400090E09B838A83FA81FF1508F0A7CEEA817C
:10325000FB81EA5CFD4F808190913401892339F034
:103260002C2D4E2D6D2D8A819B810E946C0BEA8145
:10327000FB813196FB83EA83E6CF80E49BE00E94EA
:10328000D60D07C086E19BE0FACF8DE19CE00E945D
:10329000E30E898387CE8EEF9BE0F9CF83EE9BE030
:1032A0000E94760EF6CF87EC9BE0FACF84E19BE09C
:1032B000E6CF8BE09BE0E3CF82E09BE0E0CF89EEBE
:1032C0009AE0DDCF8BED9AE0EBCF82EC9CE0DFCF94
:1032D00086EB9BE0DCCF82EA9BE0E2CF8EEA9AE0CD
:1032E0000E94200ED6CF80E89AE0FACF89E49AE0D7
:1032F000F7CF80913301382F330F330F380F3983D5
:10330000032F0B5F80913501811120C06091510620
:1033100020E1620F08F46FEF809148069091490612
:103320000E94EA0C6AE070E00E946537892B59F42C
:103330000E947D0C60E30E94B03760913401892FB8
:1033400090E00E949B0D91E099832ACE802F01335B
:1033500008F080E3F981EF2FF0E0FB83EA83E82EA9
:10336000F12C8A819B818E159F056CF76091340149
:103370008A819B810E949B0D2A813B812F5F3F4F59
:103380003B832A83EECFE0913501E983E1111EC032
:103390006091510620E1620F08F46FEF80914806BA
:1033A000909149060E94EA0C65E070E00E94653742
:1033B000892B09F0CACD0E94223860E370E00E9498
:1033C000BC37609134010E944D17ECCD80913301E0
:1033D000F82FFF0FFF0FF80FF9830F2F0B5F802FD0
:1033E000013308F080E33981232F30E03B832A83C7
:1033F000E82EF12CEA81FB81EE15FF051CF0F1E0CF
:10340000F983CECD609134018A819B810E944D1752
:103410008A819B8101969B838A83ECCF80913301C3
:10342000282F220F220F280F2983022F0B5FF02E47
:10343000013310F050E3F52ED0904F06E090500687
:1034400030914E063A836091510666956695669571
:1034500080914806909149060E94EA0C0E943B0C1C
:10346000805887FD8195880F682F2CE0629F612D21
:1034700011248A81680F7D2D8E2D0E94070DE62E66
:10348000D72EC82EF981EF2FF0E0FB83EA833A8133
:103490003F1508F0E5CDEA81FB81EA5CFD4F8081B4
:1034A00090913401892339F02C2D4E2D6D2D8A8178
:1034B0009B810E946C0B2A813B812F5F3F4F3B8396
:1034C0002A83E5CF8AE59CE0DACE88E39AE0D7CE7E
:1034D000809133018F5F082F000F000F080F40917C
:1034E00048065091490660914A0670914B068091BA
:1034F0006A0390916B03A0916C03B0916D038417E4
:103500009507A607B70708F07ACF0E947D0CF82E22
:103510000E947D0C90E3891BF0F7890FE82FF0E003
:10352000FB83EA83EA5CFD4F80913401908189231B
:1035300009F465CF20E040E060E0F1FC13C00E9498
:103540007D0CF82E0E947D0C782F76952FE7720F58
:1035500008F47FEF6F2D809150060E94070D462FD3
:10356000282F672F8A819B810E946C0B2091510626
:1035700030E1230F08F42FEF60E1822F90E00E94EA
:10358000EA0CBC0184EF91E00E9465378091480607
:1035900090914906A0914A06B0914B06860F971F5D
:1035A000A11DB11D80936A0390936B03A0936C03DC
:1035B000B0936D0324CF4091FE035091FF036091BF
:1035C0000004709101048091480690914906A091F1
:1035D0004A06B0914B0684179507A607B70708F46B
:1035E000B4CC80913501811126C080913301282F00
:1035F000220F220F280F2983022F0B5FD02E0133B9
:1036000010F040E3D42E3981E32EF12CE3E03E9F0D
:10361000C001112482599C4F9B838A83ED1408F4C6
:103620004CC0EEE6F3E08BEF93E0003308F065C0AA
:1036300021E02983B7CC40E060E080E00E94690B84
:103640003EE6E32E33E0F32E1B821A820FE70E9440
:103650007D0C81FF12C0F7011082118212822A8133
:103660003B812F5F3F4F3B832A8333E0E30EF11C06
:103670008A819B81C09759F7B8CF0E947D0CB82EE4
:103680000E947D0C8695782F700F08F47FEF8A8159
:103690009B81880F991F2A813B81820F931FFC0118
:1036A000E259FC4F6F016B2D809150060E94070D6F
:1036B000F601608371838283D2CFF701EA5CFD4F0C
:1036C000808190913401892341F0EA81FB8122813C
:1036D00040816181C7010E946C0B2A813B812D5F73
:1036E0003F4F3B832A833FEFE31AF30A97CF2381AF
:1036F000348145812193319341938E179F07B9F708
:103700000E947D0C81FF1FC01092FB031092FC03EE
:103710001092FD030E94F40CC0904806D090490618
:10372000E0904A06F0904B06DC01CB018C0D9D1D0C
:10373000AE1DBF1D8093FE039093FF03A093000472
:10374000B093010402CC0E947D0C89830E947D0C01
:103750008695782F2FE7720F08F47FEF69818091AB
:1037600050060E94070D6093FB037093FC03809347
:10377000FD03D0CF80913501882329F040E060E03F
:1037800080E00E94690B509033015394852D880F7F
:10379000880F580E409148065091490660914A069C
:1037A00070914B0680912C0490912D04A0912E04D1
:1037B000B0912F0484179507A607B70708F080C0BB
:1037C00060914E0670914F06809150060E94070D41
:1037D000062F772E682E82E0E82E84E0F82E82E80D
:1037E00091E09B838A83AA80BB804501670192E0B8
:1037F00001C091E09983F60121916F01F40181915B
:103800004F0190E0222309F462C0262D402F672D3E
:103810000E946C0BF5018581262D402F672D90E0CD
:103820000E946C0BF601808131978083F1E0AF1A22
:10383000B10829812130E9F6EA81FB81828190E09B
:10384000F7012281222309F44DC0262D402F672D38
:103850000E946C0BEA81FB818381262D402F672D0E
:1038600090E00E946C0B0E947D0C837091E009F047
:1038700090E0F7019283F3E0EF0EF11C2A813B8187
:103880002A5F3F4F3B832A83265D314009F0ABCF4F
:103890000E94F40CC0904806D0904906E0904A0679
:1038A000F0904B06DC01CB018C0D9D1DAE1DBF1DA4
:1038B00080932C0490932D04A0932E04B0932F0496
:1038C000E1E0E983FFE2F51508F06CCB3ECB20E0A8
:1038D00040E060E00E946C0BF501858120E040E053
:1038E00060E09DCF20E040E060E00E946C0BEA8148
:1038F000FB81838120E040E060E0B2CFCF938FB7BF
:10390000F894409110065091110660911206709142
:1039100013068FBF409330045093310460933204F8
:103920007093330480913A04C0E0811108C0809103
:103930004D06C82FC37019F0C82FC695C695809143
:1039400036018130C1F0882341F0823009F485C00E
:10395000833009F48DC0CF910895109233014093C4
:1039600048065093490660934A0670934B0681E0DF
:1039700080933601F0CF8C2F0E947117CC2359F31E
:1039800080913604E82FE87083FDE5CF8091340400
:1039900090913504B0E0A0E0492F5A2F6B2F772784
:1039A000411551056105710519F0DB01CA01E8E017
:1039B000AC01BD01F4E07695679557954795FA956A
:1039C000D1F7411551056105710519F0EC5FDB0177
:1039D000CA01AC01BD0132E07695679557954795D0
:1039E0003A95D1F7411551056105710519F0EE5F62
:1039F000DB01CA01B695A79597958795892B8A2BE8
:103A00008B2B09F0EF5FE830F8F4F0E0EE50F44C67
:103A10000C94D03790E080E00E94BE139CCF81E0F0
:103A200090E0FACF82E090E0F7CF83E090E0F4CF2F
:103A300084E090E0F1CF85E090E0EECF86E090E08A
:103A4000EBCF87E090E0E8CF80915206811183CFE1
:103A500040E060E00E94690B7ECFC0931B01809123
:103A60004D06837080931A010E94101683E080CF68
:103A700080914C06882351F046E050E06CE170E004
:103A80008DE496E00E94973910924C0640914806CA
:103A90005091490660914A0670914B062FB7F894F1
:103AA0008091100690911106A0911206B091130614
:103AB0002FBF841B950BA60BB70B4A97A105B10529
:103AC00008F449CF1092360146CFEDE4F6E085E3E5
:103AD00080838091370190913801A09139018183D1
:103AE0009283A3838CE384838FEF858346E050E049
:103AF0006CE170E0CF010E94973910924C06089556
:103B00008091220390919A05892B8093680290916D
:103B100023039923A1F0892B8093680280913201BD
:103B20008823E1F18091140687FF38C08EE1EAE630
:103B3000F2E090E08150A0F591110E943D1240E228
:103B400050E062E073E088E692E00E946639892BDB
:103B500021F180E2E8E6F2E0A2E0B3E001900D920C
:103B60008A95E1F7E0910B06F0910C063097A9F0E9
:103B700080913201882359F08091140687FF07C095
:103B8000809168028093690286E0809368020280D7
:103B9000F381E02D88E692E00995089586E0C7CF8D
:103BA0002191222339F29F5FC5CF80919705882309
:103BB00049F080919A058D7D80939A050E94801D21
:103BC000109297050895882321F00E9443120E94C5
:103BD000801D0895882339F090912203982B9093AB
:103BE00022030E94801D0895CF9384E090E00E94FC
:103BF0008339C82F82E290E00E948339982F8C2F5E
:103C0000CF91089568EE7EEF90E080E00E94C53984
:103C100060E082E090E00E94A73960E083E090E0FD
:103C20000E94A739109225031092240360E084E0DB
:103C300090E00E94A73964E082E290E00E94A739F8
:103C400060E085E090E00E94A73960E086E090E0C7
:103C50000E94A7396FEF87E090E00E94A73940E00B
:103C600050E0BA0188E090E00E94B93960E08DE050
:103C700090E00E94A73940E050E0BA0188E190E06E
:103C80000E94B93960E087E190E00E94A73940E0E6
:103C900050E0BA018CE190E00E94B93970E060E038
:103CA00080E290E00E94C53940E050E0BA0188E12E
:103CB00090E00E94B93910923604109237041092A5
:103CC00038041092390484E0806180933604409176
:103CD00036045091370460913804709139048FE0B4
:103CE00090E00E94B93940E050E0BA0183E190E0F1
:103CF0000E94B93908950E94AB1690E080E00E94BE
:103D00009139883E9E4F21F00E94021E0E94651D3F
:103D100046E050E06CE170E08DE496E00E9473397B
:103D200010924C0680914D068C7F11F40E94651D07
:103D3000089580E290E0909317018093160180919E
:103D4000880281110EC00E947D3681E08093880236
:103D50002FEF83ED90E3215080409040E1F700C0C9
:103D6000000064E670E080E40E94833690931701BF
:103D700080931601892B09F04EC064E670E080E064
:103D80000E94EF369093170180931601892B09F05A
:103D900042C064E670E080E00E94EF369093170125
:103DA00080931601892BB9F564E670E08FE30E94D9
:103DB000EF369093170180931601892B61F50E94CD
:103DC000613764E670E080E40E94833690931701C7
:103DD00080931601892BF9F464E670E08CE00E9470
:103DE000EF369093170180931601892BA1F464E6B6
:103DF00070E080E00E94EF369093170180931601E7
:103E0000892B49F464E670E08FE30E94EF369093CB
:103E10001701809316010E94613780911601089561
:103E2000CF93C82F873078F58091160190911701B4
:103E3000892B39F564E670E080E40E948336909324
:103E4000170180931601892BD1F464E670E082E1BA
:103E50000E94EF369093170180931601892B79F415
:103E600081E090E001C0880FCA95EAF764E670E04F
:103E700080950E94EF3690931701809316010E945F
:103E80006137CF9108958A30B1F038F4883069F005
:103E9000893071F0209A2898F4CF8C3091F070F02E
:103EA0008D30C1F73E9A4698ECCF219A2998E9CFF8
:103EB000229A2A98E6CF239A2B98E3CF529A5A98BF
:103EC000E0CF539A5B98DDCFCF93873050F5809148
:103ED000160190911701C0E0892B71F464E670E03F
:103EE00081E40E9483369093170180931601892BF9
:103EF00031F0C0E00E9461378C2FCF91089584E6A5
:103F000090E00E941D3797FF05C0909317018093A2
:103F10001601EFCFC82FC09510921701109216010D
:103F2000E9CFCFB18FB1869586958C73C3708C2BFA
:103F3000C82FC095E1CF1F920F920FB60F92112498
:103F40002F933F934F935F936F937F938F939F93A1
:103F5000AF93BF93EF93FF938091E10082FF09C07D
:103F60008091E20082FF05C08091E1008B7F809309
:103F7000E1008091DA0080FF24C08091D80080FFAA
:103F800020C08091DA008E7F8093DA008091D90082
:103F900080FF9DC080E189BD82E189BD09B400FE3A
:103FA000FDCF81E080933E0680911906811109C002
:103FB0000E94A4070E946F088091E20084608093B1
:103FC000E2008091E10080FF17C08091E20080FF55
:103FD00013C08091E2008E7F8093E2008091E20026
:103FE00080618093E2008091D80080628093D80045
:103FF00019BC85E080933E068091E10084FF2BC0D0
:104000008091E20084FF27C080E189BD82E189BD03
:1040100089B5982F917080FFFBCF8091D8008F7D5C
:104020008093D8008091E1008F7E8093E1008091A1
:10403000E2008F7E8093E2008091E20081608093B5
:10404000E20080913F06882309F447C084E0809312
:104050003E0680913E068091E10083FF27C080915B
:10406000E20083FF23C08091E100877F8093E1001D
:1040700082E080933E0610923F068091E1008E7FA1
:104080008093E1008091E2008E7F8093E200809136
:10409000E20080618093E20042E060E080E00E9404
:1040A0003D088091F00088608093F000FF91EF91CF
:1040B000BF91AF919F918F917F916F915F914F9140
:1040C0003F912F910F900FBE0F901F90189519BC24
:1040D00010923E061092190674CF8091E30087FD7E
:1040E00093E090933E06B5CF78941F921FB61F922F
:1040F00011248F939F93AF93BF938091100690915B
:104100001106A0911206B09113060196A11DB11DD2
:104110008093100690931106A0931206B093130695
:10412000BF91AF919F918F911F901FBE1F901895C7
:104130009C014FB7F8948091100690911106A091C0
:104140001206B09113064FBF821B930B08952FB731
:10415000F8948091100690911106A0911206B091EA
:1041600013062FBF08950E94A7209C01909166031B
:1041700080916703982B21F03093640320936303AD
:104180009091680380916903982B21F0309362032A
:1041900020936103E0910B06F0910C06309731F00B
:1041A0000480F581E02D85E693E00995089590E07F
:1041B00080E00E94420990E080E00E942C09109269
:1041C0009A050E94801D85E0E5E6F3E0DF011D927F
:1041D0008A95E9F710925F0310925E0310926003D4
:1041E0000E94B32008950E943B149093350480935D
:1041F00034040E94D720089521E030E002C0220F4D
:10420000331F8A95E2F72095309580913404909180
:104210003504822393230E94F32008959091010393
:104220008095892380930103282F277091F4282FEC
:10423000082E000C330B9217130659F090911506B7
:1042400092FF07C08595859585950E94FC20109268
:1042500001030895CF93C0911506C2FB992790F9E9
:10426000981791F080FBC2F9C0931506609114066F
:1042700084E090E00E94A7396C2F82E290E00E94D7
:10428000A73982E00E940E21CF91089521E030E00D
:1042900002C0220F331F8A95E2F780913404909177
:1042A0003504822B932B0E94F320089590932503CD
:1042B000809324030E94D7200895109222038091B6
:1042C0003201EAE6F2E0882361F08091140687FF6C
:1042D00008C08EE1DF011D928A95E9F70E94D72080
:1042E000089586E0F7CFAAE2B0E0E9E7F1E20C94A6
:1042F000883780E496E02091F100DC012D93CD0118
:10430000B6E088349B07B9F780914106833009F401
:1043100072C0B8F4813009F449C0823009F4B3C0E6
:104320008091E80083FF86C280914006909141060B
:104330009A3008F07FC2E92FF0E0E650F44C0C947C
:10434000D0378A3009F48EC08B3009F471C08930BF
:1043500039F780914006813219F780914406909197
:104360004506009711F00297D9F68091E800877F03
:104370008093E8008091E80082FF38C09091F300BC
:104380008091F200029731F48091F100813011F0B8
:10439000863021F48091F10080931B068091E80023
:1043A0008B778093E8000E941E08BACF8091400668
:1043B000813A09F0B5CF8091E800877F8093E800CB
:1043C0008091440690914506892B61F460E28CE16E
:1043D00096E070E00E94CA088091E8008B77809395
:1043E000E8009ECF60E090E080E0F3CF80913E0651
:1043F0008111C0CF95CF80914006813A09F090CFCE
:104400008091440690914506892B09F089CF8091CF
:10441000E800877F8093E8008091E80080FFFCCF70
:10442000809132018093F1008091E8008E77B9CFBE
:1044300080914006813209F073CF809144069091BB
:104440004506892B09F06CCF8091E800877F809327
:10445000E8000E941E0880914206809332010E946B
:104460005D215ECF80914006813209F059CF809165
:10447000E800877F8093E8000E941E088091430631
:1044800080931A064DCF80914006813A09F048CFBB
:104490008091E800877F8093E8008091E80080FFAA
:1044A000FCCF80911A06BECF803899F0823809F08F
:1044B000C1C1809144068F70873008F0BBC18093E2
:1044C000E9008091EB0085FB882780F91092E900D4
:1044D00006C080913C0690913D06911182609091BA
:1044E000E800977F9093E8008093F1001092F1002C
:1044F0008091E8008E779AC1882309F488C18230C0
:1045000009F098C18091420681118BC180914406C7
:104510008F702FEF280F263008F08CC18093E900B0
:104520002091EB0020FF7DC1933031F48091EB00AE
:1045300080628093EB0075C19091EB009061909345
:10454000EB0021E030E001C0220F8A95EAF72093CA
:10455000EA001092EA008091EB008860EACF8111B6
:1045600069C1109142061F778091E3008078812B0A
:104570008093E3008091E800877F8093E8000E94A9
:104580001E088091E80080FFFCCF8091E3008068E6
:104590008093E30082E0111183E080933E064AC1DC
:1045A0008058823008F046C120914206309143067F
:1045B0002C3DE3E03E07A1F583E08A838AE289830C
:1045C0004FB7F894DE01139620E03EE051E2E32F6E
:1045D000F0E050935700E49120FF03C0E295EF70A4
:1045E0003F5FEF708E2F90E0EA30C0F0C7968D935A
:1045F0009D932F5F243159F74FBF8091E800877F4B
:104600008093E8006AE270E0CE0101960E94CA0839
:104610008091E8008B778093E8000CC1C096E7CFCB
:104620008091440690914506432F5527433051050C
:1046300009F44AC078F54130510509F47AC084E59F
:1046400090E0E1E5FDE04230510509F0F3C0209132
:10465000E800277F2093E800209146063091470626
:104660008217930708F49C0140E02115310509F0F9
:1046700065C0411163C08091E80082FDC9CF80917F
:104680003E06882329F2853019F28091E80083FFE5
:10469000F2CFBECF4132510509F43CC04232510540
:1046A00009F0C8C08330910508F0C4C0FC01EE0FCA
:1046B000FF1FEA58FE4F0190F081E02D8D589E4F6C
:1046C000DC018C9190E01AC0332721303105D1F004
:1046D0002115310561F02230310509F0ABC0E7EB5F
:1046E000FDE0E4918E2F90E0E7EBFDE007C0E3E012
:1046F000FEE0E4918E2F90E0E3E0FEE0009709F405
:1047000099C0A5CFE9EDFDE0E4918E2F90E0E9EDB1
:10471000FDE0F4CF8330910508F08CC0880F991F1D
:10472000FC01E458FE4F0190F081E02D89E090E01B
:104730008ECF82E190E0E5EAFDE089CF80913E06F0
:10474000882309F465CF853009F462CF8091E800B1
:1047500083FD5ECF8091E80082FD8DCF8091E800DF
:1047600080FF83CF9091F3008091F20021153105F5
:1047700019F08830910550F041E0089709F040E0C9
:104780008091E8008E778093E8006FCF449140934A
:10479000F1003196215031090196E8CF803809F0B7
:1047A00049C08091E800877F8093E80080913F06B0
:1047B0008093F1009DCE81113DC0109142061230D0
:1047C000C8F58091E800877F8093E80010933F064A
:1047D0000E941E08112311F084E005C08091E300BF
:1047E00087FDFACF81E080933E0642E061EC81E0F4
:1047F0000E943D0842E061EC82E00E943D0842E2F6
:1048000061EC83E00E943D0880913E0613C08091D8
:104810004206813079F481E0933009F080E08093A2
:104820003D061092E9008091E800877F8093E800C0
:104830000E941E088091E80083FF0AC08091E80072
:10484000877F8093E8008091EB0080628093EB008B
:10485000AA96E3E00C94A4371F920F920FB60F9222
:1048600011242F933F934F935F936F937F938F9375
:104870009F93AF93BF93CF93DF93EF93FF93D09129
:10488000E900DF708091EC00C82FC17080FDC0E8A6
:104890001092E9008091F000877F8093F000789477
:1048A0000E9473211092E9008091F000886080934B
:1048B000F000CD2BCF70C093E900FF91EF91DF9115
:1048C000CF91BF91AF919F918F917F916F915F91A8
:1048D0004F913F912F910F900FBE0F901F90189501
:1048E0000E945D212FEF84E39CE0215080409040A6
:1048F000E1F700C0000088E19AE00FB6F894A895AF
:10490000809360000FBE90936000FFCF882309F46E
:1049100055C0823879F40E94580981FF4FC089E35D
:104920000E9475120E94801D89E30E944A120E9413
:10493000801D0895833859F40E94580980FF3EC0B5
:1049400083E50E9475120E94801D83E5EECF8438B6
:1049500059F40E94580982FF31C087E40E94751201
:104960000E94801D87E4E1CF9CEF980F913AE8F216
:1049700090E2980F983050F4877091E001C0990F41
:104980008A95EAF7892F0E944312D1CF9BE5980FB1
:10499000933028F490E080E00E944209089598E561
:1049A000980F973128F490E080E00E942C09089538
:1049B0008D3E20F00E94390F0E94B3200895CF93BE
:1049C000C82F8823C9F08238C9F40E94580981FD94
:1049D00013C089E30E9475120E94801D2FEF87EE9D
:1049E00093E0215080409040E1F700C0000089E34F
:1049F0000E944A120E94801DCF9108958338A1F42D
:104A00000E94580980FDF8CF83E50E9475120E942C
:104A1000801D2FEF81EE94E0215080409040E1F71F
:104A200000C0000083E5E4CF8438A1F40E94580957
:104A300082FDE2CF87E40E9475120E94801D2FEF55
:104A400081EE94E0215080409040E1F700C00000EA
:104A500087E4CECF8CEF8C0F813A88F580913201BC
:104A6000882301F18091140687FF1CC0EC2FE69586
:104A7000E695E695F0E0E859FD4F828190E04C2FF5
:104A8000477021E030E002C0220F331F4A95E2F761
:104A900082239323892B79F08C2F0E944A120E9443
:104AA000801D09C0EAE6F2E08191C817A9F322E06F
:104AB000E037F207C9F78C2F0E9475129BCF80E276
:104AC0008C0F883068F4C77021E030E001C0220FFD
:104AD000CA95EAF780912203822B809322038ACF22
:104AE000EBE5EC0FE33040F4F0E0E65CFE4F808154
:104AF00090E00E94420980CFE8E5EC0FE73150F4E6
:104B0000F0E0EE0FFF1FE35CFE4F808191810E9479
:104B10002C0972CFCD3E08F46FCF8C2F0E94F60F78
:104B20000E94B32069CF1F93CF93DF93182FD0E05B
:104B3000C0E0893311F4C0E5D0E0812F0E94DF246A
:104B4000209739F4812F0E948624DF91CF911F9105
:104B500008958FE99FE00197F1F700C000002197C9
:104B6000EFCFB0E0A0E0E7EBF5E20C948137EC0189
:104B70008AE0A82EFE012491222309F497C0213057
:104B800009F03EC031968491813031F42296FE01C5
:104B900084910E94932507C0823039F42296FE0149
:104BA00084910E94DF242196E5CF833031F4229650
:104BB000FE0184910E948624F6CF843009F074C0EF
:104BC0002296FE01249190E080E0FE013196205370
:104BD000330B2A30310548F0019728F3EFE9FFE065
:104BE0003197F1F700C00000F7CFA89EA001A99E61
:104BF000500D1124C901840F951F2491EF01E5CFB9
:104C0000E22FF0E0E95CF14FB490822F8695869513
:104C1000869590E0FC01E95DF14FE4902770F12C5E
:104C2000022E02C0F594E7940A94E2F731E0E32201
:104C3000FF24FC01E95EF14FC490D12C022E02C08A
:104C4000D594C7940A94E2F7E1E0CE22DD24FC017A
:104C5000E95FF14F049110E002C0159507952A9580
:104C6000E2F701701127E114F10419F081EE0E94BE
:104C7000DF24C114D10419F086EE0E94DF248B2DAD
:104C80000E949325C114D10419F086EE0E94862457
:104C9000E114F10419F081EE0E948624011511053A
:104CA00009F481CF8CE275CFEF017DCFCDB7DEB7B0
:104CB000EAE00C949D37B0E0A0E0E1E6F6E20C9467
:104CC00083378091160190911701892BA1F0809173
:104CD00026038F5F8093260381110DC00E94991EC9
:104CE00090E09093170180931601892B21F40E9484
:104CF0003C150E947B1E0EE213E07801C0E0D0E07C
:104D000087E0C82ECD0E8D2F0E94101F8C2D0E9483
:104D1000101F8D2F0E94641F8F73F70191917F01E7
:104D2000D12C891721F031978083DD24D3948C2DE9
:104D30000E94641F8F73F7019681891709F444C09C
:104D4000868381E08D29C82B0E948A14DF5FD730CB
:104D5000B9F610922B03D0912A03DD23F1F10E94C2
:104D6000A7202091280330912903AC01421B530B4B
:104D70009A0190932903809328034F3F510509F02E
:104D800028F5452BE9F010922A0310922703E091B1
:104D90002C03F0912D03AF01425F5F4F90E030E0B4
:104DA0008191882331F0DF011197281790F01C9230
:104DB0009D2FE417F507A1F730932A03909327035B
:104DC000C11119C0CD2F0BC080E0BCCF2FEF30E058
:104DD000DACF821B8C933D2FECCFC11106C080919E
:104DE00027038823A1F1C11106C00E94A720909338
:104DF000290380932803A0912C03B0912D032091C7
:104E00002A03EEE3F3E090E04EE13191E80189916D
:104E10008E01381799F03C91311110C04C93EF017D
:104E200021978883E801219728818227292F30E064
:104E3000282B91E0232B09F490E021E01196D3E098
:104E4000EC34FD0711F790932B0320932A038091F4
:104E50002B03CDB7DEB7E8E00C949F37B0E0A0E0BD
:104E6000E4E3F7E20C9482378C01FC0183819481A6
:104E7000892B31F08081918189238F3F09F042C6CF
:104E8000CDB7DEB7E9E00C949E37F8018281882324
:104E9000A9F18091360491E0980F9770887F953042
:104EA00008F4892B80933604809136048770FFEFD5
:104EB0008F9FC00111249595879595958795992782
:104EC000909389008093880090938B0080938A0050
:104ED00090938D0080938C0040913604509137045C
:104EE00060913804709139048FE090E00E94B939E4
:104EF00080913404909135040E943B148091890282
:104F0000823009F474C008F044C6813009F486C0C8
:104F10001092890278C0F8018281882379F39091F8
:104F20003604892F877F93FF88608093360483FF40
:104F300005C040E060E080E00E94690B40913604CB
:104F40005091370460913804709139048FE090E0FB
:104F50000E94B939D3CF8FEF0E94AA0980913604FD
:104F6000806180933604F7C5C13ED10509F480C045
:104F7000C53ED10509F47CC0C53BFDE5DF0709F05E
:104F8000BDCFF8018281882309F4B8CFC0912203F4
:104F9000809123038C2B8272A9F482EE0E94DF247D
:104FA00080918902811104C081E496E00E94B125BC
:104FB00081EE0E94DF248FE40E94DF2482E0809350
:104FC0008902D5C58091890281110CC010922203FB
:104FD0000E943D1282E396E00E94B125C093220315
:104FE00083E0EDCF81E50E94DF2484E0E8CF8FE409
:104FF0000E94862481EE0E94862482EE0E948624EE
:1050000081E080938902C43BFDE5DF0789F4F80164
:105010008281882309F4ABC581E0BBC2C932D105C6
:1050200009F076CF8FE40E949325109289029FC5E4
:10503000CD3AFDE5DF07E1F4F8018281882309F428
:1050400096C580919705882319F00E94D51D8FC5BC
:10505000109222030E943D120E94A72088579C4E66
:1050600090935C0380935B0381E0809397057FC5F9
:1050700080919705882381F1E0902203F09023032B
:105080000E94A72088579C4E90935C0380935B03FB
:10509000F8018281882301F18F2D8E298D7909F005
:1050A00088C0C115F5E5DF0708F063C0C11523E529
:1050B000D20790F4C11530E5D30750F4C11580E450
:1050C000D80708F081C0C63ED10531F0CE0183C0BB
:1050D000C11592E5D907D0F7F8018281882309F438
:1050E00060C5C430FDE5DF0708F093C0CB3F2CE579
:1050F000D20730F4CE0182509C45449708F094C00A
:105100000E94F41D9093150680931406C231ECE5BD
:10511000DE0709F48BC108F0DCC0C9302CE5D207EA
:1051200009F462C108F0A8C0C5308CE5D80709F4BD
:105130004BC108F094C0C330ECE5DE0709F43CC174
:1051400008F03EC1809114068160C230DC4509F44C
:10515000BDC060911406C091150684E090E00E94E5
:10516000A7396C2F82E290E00E94A7390E945D214E
:10517000FEC4C115E9E5DE0758F4C115F8E5DF07FF
:1051800008F0AACFC43125E5D20709F09FCFA4CFFC
:10519000CE0190568115904208F098CFF801858194
:1051A000807FB9F48D2F8F71823159F028F48230CD
:1051B00041F00E94D51D90CF843109F48DCF863106
:1051C000C1F710929A05F5CFF8018581807F09F427
:1051D00083CFCE01992710929A058832910548F421
:1051E0008E31910560F4049720F382E080939A0554
:1051F00006C08D329105C9F328F48A97D1F60E9432
:10520000801D6ACF8C349105D1F38D329240B9F371
:10521000D0CFC63A3DE5D30709F472CFD0F4C236F9
:105220009DE5D90709F46CCFC6318CE5D80709F0A4
:10523000FEC1809122038A7A91E009F490E0909374
:105240008A0281111DC189E20E9475120E94801D8F
:105250008EC4CE018E5A9D45039730F751CF809171
:1052600014068062C7303CE5D30781F108F4B8C06A
:105270008091140680642AC0CD309CE5D90709F4DA
:10528000BDC088F4809114068E7FCB30FCE5DF072B
:10529000E9F0809114068C60CC30DC45B8F0809148
:1052A00014068D7F13C0CF303CE5D30709F4B6C098
:1052B00008F4A8C0C0319CE5D90709F4B3C08091B7
:1052C00014068F7BC131DC4509F043CF809314066F
:1052D00040CFC115FDE5DF0709F4B2C098F5CB3F1B
:1052E0003CE5D30709F474C0B8F4C4319CE5D90790
:1052F00009F4B4C008F4A0C0C531DC4509F029CFD9
:105300008091140682FB992790F921E0922790FB67
:1053100082F990FB83F9DACFCD3F2CE5D20709F46F
:1053200075C008F459C0CE3F8CE5D80709F472C0A7
:10533000809115068360CF3FDC4509F00ACF80934A
:10534000150607CFC236EDE5DE0709F492C088F4F2
:10535000C2302DE5D20709F48AC008F475C060E0B8
:10536000C330DD4509F0F5CE8EE090E00E94A7390C
:10537000F0CECE3A9DE5D907D9F058F490911406B5
:10538000892F8E7F90FF8160C63ADD4509F49ECF5C
:10539000E0CECF3A2DE5D20769F1C03BDD4509F0FB
:1053A000D8CE90911506892F877F93FF8860C7CF4D
:1053B000809115068860C3CF80911406826086CFE5
:1053C00080911406846082CF8091140688607ECF1D
:1053D000809115068160B3CF809115068260AFCFB2
:1053E00080911406806172CF0E945D218091140625
:1053F00080686CCF80911506877FA1CF80911406BD
:105400008B7F64CF80911406877F60CF80911506D3
:105410008E7F95CF809115068D7F91CF8091140658
:105420008F7E54CF809114068F7D50CF0E945D21D6
:10543000809114068F774ACF80911406837F46CFE0
:10544000809115068C7F7BCF80911506982F9095C3
:1054500091708E7F892B90FB81F971CF0E945D2125
:1054600090911406892F97FB87F980582FCF61E020
:105470007BCF90911406892F8F7E94FF806126CF79
:1054800085E3E2CE85E397C3809122038272CB3C11
:105490009CE5D90709F4BAC008F064C0C63CFCE535
:1054A000DF0709F49FC008F046C0C43C3CE5D307C1
:1054B00009F48EC008F091C0C33CDC4509F47AC001
:1054C000F80186819781009709F41AC10E94B010F3
:1054D000D82FC92FF801F280D580D2943FE0D32293
:1054E000809101038770C1F0CF2CFF20B1F0892F8C
:1054F000807F803421F080E28D0F883068F08091C9
:10550000150682FF09C082E00E940E2180910103EE
:105510008770CC24C3948111C12CBC2EB2942FE08F
:10552000B222FBE0FB1508F462C1EB2DF0E0EC5F6A
:10553000F34C0C94D037C83CFCE5DF0709F45CC0A1
:1055400008F455C0C93C3CE5D30709F45AC04EECF9
:1055500059E06BED79E0CA3CDC4509F0B1CF0E941F
:10556000A40905C3C03DECE5DE0709F45EC0A0F464
:10557000CD3C2CE5D20709F453C008F44CC0CE3C16
:105580008CE5D80709F448CD85E0CF3CDC4509F02F
:1055900097CF0E947B07EBC2C73DECE5DE0728F4FE
:1055A00082E1C23DDC45A8F3E2C2CE35DD4509F417
:1055B000DEC286CF80914D0691E0892780934D060B
:1055C0001092360180914C06816080934C06CFC2C8
:1055D00046E15AE060E27AE0C2CF40E25AE066E19A
:1055E0007AE0BDCF42E05AE06CE07AE0B8CF4CE020
:1055F0005AE062E07AE0B3CF48EE59E065EF79E037
:10560000AECF45EF59E068EE79E0A9CF4BED59E018
:105610006EEC79E0A4CF42EB59E060EC79E09FCFEB
:1056200040EC59E062EB79E09ACF8DE0B2CFCB3518
:105630003DE5D30709F460C058F4C1159CE5D907CE
:10564000A1F0CF3DDC4509F03BCF0E94021E0BC00C
:10565000CD35FDE5DF0709F445C008F44FC0C83A71
:10566000DD4509F02DCF0E9470240E945D218FEF4F
:1056700094E3ECE081509040E040E1F700C000008E
:10568000F89481E08093E00080E28093D80010924B
:10569000C9008FE19EE40197F1F700C000001DBA38
:1056A000109268001CBC10BE1FBA10927A001092B3
:1056B0006E0010926F0010927100109272001092A2
:1056C000C9001092BC0014B817B81AB81DB810BAA7
:1056D0001092BC0015B818B81BB81EB811BA0C94BB
:1056E000003F45C28091150682FB882780F991E032
:1056F00089270E942A21E4CE81E0FBCF80E0F9CF08
:105700008281C081D181882369F0CE010E94B312C9
:10571000F82E682FCE010E942713BE018F2D0E9404
:105720009510D4CECE010E94F412F82EF6CF2C2F75
:105730002F70E22EC07F19F0E29490EFE922FF2053
:10574000B9F0EE2069F080E28D0F883010F0D111B1
:1057500009C080912203E82AE09222030E94801D62
:105760008D2F43C080919A05E82AE0929A05F6CFE2
:105770008D2F0E948624EE20D1F180E28D0F88309B
:1057800010F0D11104C08E2D0E94431206C0E09487
:1057900080919A05E822E0929A050E94801D27C018
:1057A0003C2F3F70E32EC07FC03219F0E29480EFAF
:1057B000E822DD2351F0D13009F464C0FF2009F460
:1057C0006CC0DD2009F464C0CBCF2091150622FD0A
:1057D00037C0FF2079F1EE2039F080912203E82ACA
:1057E000E09222030E94801D80E00E94DF24EB2DC6
:1057F000E850FF0B349710F40E945809CC20A9F010
:105800008091010380FD11C0F80112828595859574
:1058100085950E944621C8010E942E278091010390
:105820008595859585950E94FC2060E0C8010E94C1
:105830008E1326CB80E00E948624EE20C1F2A3CFF7
:10584000FF2099F0909123038E2D892BD11003C056
:105850000E94EA1DCCCFE1E0DE12FACF22FFC7CFD3
:10586000891729F280932303C2CFD11006C00E946A
:105870003D128E2D0E94E31DBACFF1E0DF1609F430
:10588000B6CFF5CFFF2031F021E02D1508F4AFCFD2
:105890008E2DDECFD110ABCFECCFDD2051F3D9333D
:1058A00049F43FEF87EE93E0315080409040E1F7BC
:1058B00000C000008D2F0E94862499CF8C2F8695E2
:1058C0008695837069F0813009F091CF8D2F9C2FE0
:1058D0009370F11002C090E080E00E942C0987CF05
:1058E0008D2F9C2F9370F11002C090E080E00E94F9
:1058F00042097DCF8D2FFF2029F00E94F60F0E94D4
:10590000B32075CF0E94390FFACF8C2F837009F026
:105910003FC0F1106CCF4D2F429546954770440F14
:10592000440F2D2F2F7030E0042E02C0220F331FA2
:105930000A94E2F790E080E0D4FF09C08FE090E0A5
:1059400002C0880F991F4A95E2F780959095C695F9
:10595000C695C370C23099F078F4409124035091F9
:105960002503C13039F0822B932B842395230E9489
:1059700056213DCF242B352B822B932BF8CF822B16
:10598000932B209124033091250382279327EFCF77
:105990008695FF2011F08C2F8170882309F427CF82
:1059A0004D2F429546954770440F440F2D2F2F7071
:1059B00030E0042E02C0220F331F0A94E2F790E079
:1059C00080E0D4FF09C08FE090E002C0880F991FEB
:1059D0004A95E2F780959095C695C695C370C230FA
:1059E00099F078F44091340450913504C13039F085
:1059F000822B932B842395230E94F320F8CE242B13
:105A0000352B822B932BF8CF822B932B20913404B0
:105A10003091350482279327EFCFCF70FF2029F0F4
:105A20008C2F0E9446218D2F13CF8D2F0E94E31DB6
:105A30008C2F0E94FC20DBCED23F61F160F4D03F7E
:105A4000B9F0D13F81F0FF2009F457C0D11088CEC2
:105A50008C2F8F7123C0D33F21F1D43FA1F78091C8
:105A6000150682FD2CC08C2F8F71FF2011F316C0FC
:105A7000FF2059F0D110BBCECF7181E090E002C081
:105A8000880F991FCA95E2F7C1CFE1E0ED1508F440
:105A9000AECEF2CF8C2F8F71F110CBCF0E9446216A
:105AA000A6CE90E080E0FF2009F4A6CFCF7181E080
:105AB00090E002C0880F991FCA95E2F79DCFFF20A2
:105AC00089F0CF718C2F0E9446218091150682FFAC
:105AD00007C0F8E0CF9FC0011124836080930103C9
